{
  "_format": "hh-sol-artifact-1",
  "contractName": "BasicNFT",
  "sourceName": "contracts/BasicNft.sol",
  "abi": [
    {
      "inputs": [],
      "stateMutability": "nonpayable",
      "type": "constructor"
    },
    {
      "inputs": [],
      "name": "ApprovalCallerNotOwnerNorApproved",
      "type": "error"
    },
    {
      "inputs": [],
      "name": "ApprovalQueryForNonexistentToken",
      "type": "error"
    },
    {
      "inputs": [],
      "name": "BalanceQueryForZeroAddress",
      "type": "error"
    },
    {
      "inputs": [],
      "name": "MintERC2309QuantityExceedsLimit",
      "type": "error"
    },
    {
      "inputs": [],
      "name": "MintToZeroAddress",
      "type": "error"
    },
    {
      "inputs": [],
      "name": "MintZeroQuantity",
      "type": "error"
    },
    {
      "inputs": [],
      "name": "NotCompatibleWithSpotMints",
      "type": "error"
    },
    {
      "inputs": [],
      "name": "OwnerQueryForNonexistentToken",
      "type": "error"
    },
    {
      "inputs": [],
      "name": "OwnershipNotInitializedForExtraData",
      "type": "error"
    },
    {
      "inputs": [],
      "name": "SequentialMintExceedsLimit",
      "type": "error"
    },
    {
      "inputs": [],
      "name": "SequentialUpToTooSmall",
      "type": "error"
    },
    {
      "inputs": [],
      "name": "SpotMintTokenIdTooSmall",
      "type": "error"
    },
    {
      "inputs": [],
      "name": "TokenAlreadyExists",
      "type": "error"
    },
    {
      "inputs": [],
      "name": "TransferCallerNotOwnerNorApproved",
      "type": "error"
    },
    {
      "inputs": [],
      "name": "TransferFromIncorrectOwner",
      "type": "error"
    },
    {
      "inputs": [],
      "name": "TransferToNonERC721ReceiverImplementer",
      "type": "error"
    },
    {
      "inputs": [],
      "name": "TransferToZeroAddress",
      "type": "error"
    },
    {
      "inputs": [],
      "name": "URIQueryForNonexistentToken",
      "type": "error"
    },
    {
      "anonymous": false,
      "inputs": [
        {
          "indexed": true,
          "internalType": "address",
          "name": "owner",
          "type": "address"
        },
        {
          "indexed": true,
          "internalType": "address",
          "name": "approved",
          "type": "address"
        },
        {
          "indexed": true,
          "internalType": "uint256",
          "name": "tokenId",
          "type": "uint256"
        }
      ],
      "name": "Approval",
      "type": "event"
    },
    {
      "anonymous": false,
      "inputs": [
        {
          "indexed": true,
          "internalType": "address",
          "name": "owner",
          "type": "address"
        },
        {
          "indexed": true,
          "internalType": "address",
          "name": "operator",
          "type": "address"
        },
        {
          "indexed": false,
          "internalType": "bool",
          "name": "approved",
          "type": "bool"
        }
      ],
      "name": "ApprovalForAll",
      "type": "event"
    },
    {
      "anonymous": false,
      "inputs": [
        {
          "indexed": true,
          "internalType": "uint256",
          "name": "fromTokenId",
          "type": "uint256"
        },
        {
          "indexed": false,
          "internalType": "uint256",
          "name": "toTokenId",
          "type": "uint256"
        },
        {
          "indexed": true,
          "internalType": "address",
          "name": "from",
          "type": "address"
        },
        {
          "indexed": true,
          "internalType": "address",
          "name": "to",
          "type": "address"
        }
      ],
      "name": "ConsecutiveTransfer",
      "type": "event"
    },
    {
      "anonymous": false,
      "inputs": [
        {
          "indexed": true,
          "internalType": "address",
          "name": "from",
          "type": "address"
        },
        {
          "indexed": true,
          "internalType": "address",
          "name": "to",
          "type": "address"
        },
        {
          "indexed": true,
          "internalType": "uint256",
          "name": "tokenId",
          "type": "uint256"
        }
      ],
      "name": "Transfer",
      "type": "event"
    },
    {
      "inputs": [],
      "name": "TOKEN_URL",
      "outputs": [
        {
          "internalType": "string",
          "name": "",
          "type": "string"
        }
      ],
      "stateMutability": "view",
      "type": "function"
    },
    {
      "inputs": [
        {
          "internalType": "address",
          "name": "to",
          "type": "address"
        },
        {
          "internalType": "uint256",
          "name": "tokenId",
          "type": "uint256"
        }
      ],
      "name": "approve",
      "outputs": [],
      "stateMutability": "payable",
      "type": "function"
    },
    {
      "inputs": [
        {
          "internalType": "address",
          "name": "owner",
          "type": "address"
        }
      ],
      "name": "balanceOf",
      "outputs": [
        {
          "internalType": "uint256",
          "name": "",
          "type": "uint256"
        }
      ],
      "stateMutability": "view",
      "type": "function"
    },
    {
      "inputs": [
        {
          "internalType": "uint256",
          "name": "tokenId",
          "type": "uint256"
        }
      ],
      "name": "getApproved",
      "outputs": [
        {
          "internalType": "address",
          "name": "",
          "type": "address"
        }
      ],
      "stateMutability": "view",
      "type": "function"
    },
    {
      "inputs": [
        {
          "internalType": "address",
          "name": "owner",
          "type": "address"
        },
        {
          "internalType": "address",
          "name": "operator",
          "type": "address"
        }
      ],
      "name": "isApprovedForAll",
      "outputs": [
        {
          "internalType": "bool",
          "name": "",
          "type": "bool"
        }
      ],
      "stateMutability": "view",
      "type": "function"
    },
    {
      "inputs": [],
      "name": "name",
      "outputs": [
        {
          "internalType": "string",
          "name": "",
          "type": "string"
        }
      ],
      "stateMutability": "view",
      "type": "function"
    },
    {
      "inputs": [
        {
          "internalType": "uint256",
          "name": "tokenId",
          "type": "uint256"
        }
      ],
      "name": "ownerOf",
      "outputs": [
        {
          "internalType": "address",
          "name": "",
          "type": "address"
        }
      ],
      "stateMutability": "view",
      "type": "function"
    },
    {
      "inputs": [
        {
          "internalType": "address",
          "name": "to",
          "type": "address"
        },
        {
          "internalType": "uint256",
          "name": "quantity",
          "type": "uint256"
        }
      ],
      "name": "safeMint",
      "outputs": [],
      "stateMutability": "nonpayable",
      "type": "function"
    },
    {
      "inputs": [
        {
          "internalType": "address",
          "name": "from",
          "type": "address"
        },
        {
          "internalType": "address",
          "name": "to",
          "type": "address"
        },
        {
          "internalType": "uint256",
          "name": "tokenId",
          "type": "uint256"
        }
      ],
      "name": "safeTransferFrom",
      "outputs": [],
      "stateMutability": "payable",
      "type": "function"
    },
    {
      "inputs": [
        {
          "internalType": "address",
          "name": "from",
          "type": "address"
        },
        {
          "internalType": "address",
          "name": "to",
          "type": "address"
        },
        {
          "internalType": "uint256",
          "name": "tokenId",
          "type": "uint256"
        },
        {
          "internalType": "bytes",
          "name": "_data",
          "type": "bytes"
        }
      ],
      "name": "safeTransferFrom",
      "outputs": [],
      "stateMutability": "payable",
      "type": "function"
    },
    {
      "inputs": [
        {
          "internalType": "address",
          "name": "operator",
          "type": "address"
        },
        {
          "internalType": "bool",
          "name": "approved",
          "type": "bool"
        }
      ],
      "name": "setApprovalForAll",
      "outputs": [],
      "stateMutability": "nonpayable",
      "type": "function"
    },
    {
      "inputs": [
        {
          "internalType": "bytes4",
          "name": "interfaceId",
          "type": "bytes4"
        }
      ],
      "name": "supportsInterface",
      "outputs": [
        {
          "internalType": "bool",
          "name": "",
          "type": "bool"
        }
      ],
      "stateMutability": "view",
      "type": "function"
    },
    {
      "inputs": [],
      "name": "symbol",
      "outputs": [
        {
          "internalType": "string",
          "name": "",
          "type": "string"
        }
      ],
      "stateMutability": "view",
      "type": "function"
    },
    {
      "inputs": [
        {
          "internalType": "uint256",
          "name": "tokenId",
          "type": "uint256"
        }
      ],
      "name": "tokenURI",
      "outputs": [
        {
          "internalType": "string",
          "name": "",
          "type": "string"
        }
      ],
      "stateMutability": "view",
      "type": "function"
    },
    {
      "inputs": [],
      "name": "totalSupply",
      "outputs": [
        {
          "internalType": "uint256",
          "name": "result",
          "type": "uint256"
        }
      ],
      "stateMutability": "view",
      "type": "function"
    },
    {
      "inputs": [
        {
          "internalType": "address",
          "name": "from",
          "type": "address"
        },
        {
          "internalType": "address",
          "name": "to",
          "type": "address"
        },
        {
          "internalType": "uint256",
          "name": "tokenId",
          "type": "uint256"
        }
      ],
      "name": "transferFrom",
      "outputs": [],
      "stateMutability": "payable",
      "type": "function"
    }
  ],
  "bytecode": "0x60806040526040518060800160405280604381526020016200221f60439139600a90816200002e9190620003dc565b503480156200003c57600080fd5b506040518060400160405280600881526020017f42617369634e46540000000000000000000000000000000000000000000000008152506040518060400160405280600481526020017f424e4654000000000000000000000000000000000000000000000000000000008152508160029081620000ba9190620003dc565b508060039081620000cc9190620003dc565b50620000dd6200012b60201b60201c565b600081905550620000f36200012b60201b60201c565b620001036200013060201b60201c565b101562000123576200012263fed8210f60e01b6200015860201b60201c565b5b5050620004c3565b600090565b60007fffffffffffffffffffffffffffffffffffffffffffffffffffffffffffffffff905090565b8060005260046000fd5b600081519050919050565b7f4e487b7100000000000000000000000000000000000000000000000000000000600052604160045260246000fd5b7f4e487b7100000000000000000000000000000000000000000000000000000000600052602260045260246000fd5b60006002820490506001821680620001e457607f821691505b602082108103620001fa57620001f96200019c565b5b50919050565b60008190508160005260206000209050919050565b60006020601f8301049050919050565b600082821b905092915050565b600060088302620002647fffffffffffffffffffffffffffffffffffffffffffffffffffffffffffffffff8262000225565b62000270868362000225565b95508019841693508086168417925050509392505050565b6000819050919050565b6000819050919050565b6000620002bd620002b7620002b18462000288565b62000292565b62000288565b9050919050565b6000819050919050565b620002d9836200029c565b620002f1620002e882620002c4565b84845462000232565b825550505050565b600090565b62000308620002f9565b62000315818484620002ce565b505050565b5b818110156200033d5762000331600082620002fe565b6001810190506200031b565b5050565b601f8211156200038c57620003568162000200565b620003618462000215565b8101602085101562000371578190505b62000389620003808562000215565b8301826200031a565b50505b505050565b600082821c905092915050565b6000620003b16000198460080262000391565b1980831691505092915050565b6000620003cc83836200039e565b9150826002028217905092915050565b620003e78262000162565b67ffffffffffffffff8111156200040357620004026200016d565b5b6200040f8254620001cb565b6200041c82828562000341565b600060209050601f8311600181146200045457600084156200043f578287015190505b6200044b8582620003be565b865550620004bb565b601f198416620004648662000200565b60005b828110156200048e5784890151825560018201915060208501945060208101905062000467565b86831015620004ae5784890151620004aa601f8916826200039e565b8355505b6001600288020188555050505b505050505050565b611d4c80620004d36000396000f3fe6080604052600436106100f35760003560e01c80636352211e1161008a578063a22cb46511610059578063a22cb46514610315578063b88d4fde1461033e578063c87b56dd1461035a578063e985e9c514610397576100f3565b80636352211e1461024757806370a082311461028457806395d89b41146102c1578063a1448194146102ec576100f3565b8063095ea7b3116100c6578063095ea7b3146101c857806318160ddd146101e457806323b872dd1461020f57806342842e0e1461022b576100f3565b806301ffc9a7146100f857806302b6bc5d1461013557806306fdde0314610160578063081812fc1461018b575b600080fd5b34801561010457600080fd5b5061011f600480360381019061011a91906115cd565b6103d4565b60405161012c9190611615565b60405180910390f35b34801561014157600080fd5b5061014a610466565b60405161015791906116c0565b60405180910390f35b34801561016c57600080fd5b506101756104f4565b60405161018291906116c0565b60405180910390f35b34801561019757600080fd5b506101b260048036038101906101ad9190611718565b610586565b6040516101bf9190611786565b60405180910390f35b6101e260048036038101906101dd91906117cd565b6105e4565b005b3480156101f057600080fd5b506101f96105f4565b604051610206919061181c565b60405180910390f35b61022960048036038101906102249190611837565b610641565b005b61024560048036038101906102409190611837565b610902565b005b34801561025357600080fd5b5061026e60048036038101906102699190611718565b610922565b60405161027b9190611786565b60405180910390f35b34801561029057600080fd5b506102ab60048036038101906102a6919061188a565b610934565b6040516102b8919061181c565b60405180910390f35b3480156102cd57600080fd5b506102d66109cb565b6040516102e391906116c0565b60405180910390f35b3480156102f857600080fd5b50610313600480360381019061030e91906117cd565b610a5d565b005b34801561032157600080fd5b5061033c600480360381019061033791906118e3565b610a6b565b005b61035860048036038101906103539190611a58565b610b76565b005b34801561036657600080fd5b50610381600480360381019061037c9190611718565b610bc8565b60405161038e91906116c0565b60405180910390f35b3480156103a357600080fd5b506103be60048036038101906103b99190611adb565b610c45565b6040516103cb9190611615565b60405180910390f35b60006301ffc9a760e01b827bffffffffffffffffffffffffffffffffffffffffffffffffffffffff1916148061042f57506380ac58cd60e01b827bffffffffffffffffffffffffffffffffffffffffffffffffffffffff1916145b8061045f5750635b5e139f60e01b827bffffffffffffffffffffffffffffffffffffffffffffffffffffffff1916145b9050919050565b600a805461047390611b4a565b80601f016020809104026020016040519081016040528092919081815260200182805461049f90611b4a565b80156104ec5780601f106104c1576101008083540402835291602001916104ec565b820191906000526020600020905b8154815290600101906020018083116104cf57829003601f168201915b505050505081565b60606002805461050390611b4a565b80601f016020809104026020016040519081016040528092919081815260200182805461052f90611b4a565b801561057c5780601f106105515761010080835404028352916020019161057c565b820191906000526020600020905b81548152906001019060200180831161055f57829003601f168201915b5050505050905090565b600061059182610cd9565b6105a6576105a563cf4700e460e01b610d85565b5b6006600083815260200190815260200160002060000160009054906101000a900473ffffffffffffffffffffffffffffffffffffffff169050919050565b6105f082826001610d8f565b5050565b60006105fe610ebe565b600154600054030390507fffffffffffffffffffffffffffffffffffffffffffffffffffffffffffffffff610631610ec3565b1461063e57600854810190505b90565b600061064c82610eeb565b905073ffffffffffffffffffffffffffffffffffffffff8473ffffffffffffffffffffffffffffffffffffffff161693508373ffffffffffffffffffffffffffffffffffffffff168173ffffffffffffffffffffffffffffffffffffffff16146106c1576106c063a114810060e01b610d85565b5b6000806106cd84611004565b915091506106e381876106de61102b565b611033565b61070e576106f8866106f361102b565b610c45565b61070d5761070c6359c896be60e01b610d85565b5b5b61071b8686866001611077565b801561072657600082555b600560008773ffffffffffffffffffffffffffffffffffffffff1673ffffffffffffffffffffffffffffffffffffffff168152602001908152602001600020600081546001900391905081905550600560008673ffffffffffffffffffffffffffffffffffffffff1673ffffffffffffffffffffffffffffffffffffffff16815260200190815260200160002060008154600101919050819055506107f4856107d088888761107d565b7c0200000000000000000000000000000000000000000000000000000000176110a5565b600460008681526020019081526020016000208190555060007c020000000000000000000000000000000000000000000000000000000084160361087a5760006001850190506000600460008381526020019081526020016000205403610878576000548114610877578360046000838152602001908152602001600020819055505b5b505b600073ffffffffffffffffffffffffffffffffffffffff8673ffffffffffffffffffffffffffffffffffffffff161690508481887fddf252ad1be2c89b69c2b068fc378daa952ba7f163c4a11628f55a4df523b3ef600080a4600081036108ec576108eb63ea553b3460e01b610d85565b5b6108f987878760016110d0565b50505050505050565b61091d83838360405180602001604052806000815250610b76565b505050565b600061092d82610eeb565b9050919050565b60008073ffffffffffffffffffffffffffffffffffffffff168273ffffffffffffffffffffffffffffffffffffffff160361097a57610979638f4eb60460e01b610d85565b5b67ffffffffffffffff600560008473ffffffffffffffffffffffffffffffffffffffff1673ffffffffffffffffffffffffffffffffffffffff16815260200190815260200160002054169050919050565b6060600380546109da90611b4a565b80601f0160208091040260200160405190810160405280929190818152602001828054610a0690611b4a565b8015610a535780601f10610a2857610100808354040283529160200191610a53565b820191906000526020600020905b815481529060010190602001808311610a3657829003601f168201915b5050505050905090565b610a6782826110d6565b5050565b8060076000610a7861102b565b73ffffffffffffffffffffffffffffffffffffffff1673ffffffffffffffffffffffffffffffffffffffff16815260200190815260200160002060008473ffffffffffffffffffffffffffffffffffffffff1673ffffffffffffffffffffffffffffffffffffffff16815260200190815260200160002060006101000a81548160ff0219169083151502179055508173ffffffffffffffffffffffffffffffffffffffff16610b2561102b565b73ffffffffffffffffffffffffffffffffffffffff167f17307eab39ab6107e8899845ad3d59bd9653f200f220920489ca2b5937696c3183604051610b6a9190611615565b60405180910390a35050565b610b81848484610641565b60008373ffffffffffffffffffffffffffffffffffffffff163b14610bc257610bac848484846110f4565b610bc157610bc063d1a57ed660e01b610d85565b5b5b50505050565b6060610bd382610cd9565b610be857610be763a14c4b5060e01b610d85565b5b6000610bf2611223565b90506000815103610c125760405180602001604052806000815250610c3d565b80610c1c846112b5565b604051602001610c2d929190611bb7565b6040516020818303038152906040525b915050919050565b6000600760008473ffffffffffffffffffffffffffffffffffffffff1673ffffffffffffffffffffffffffffffffffffffff16815260200190815260200160002060008373ffffffffffffffffffffffffffffffffffffffff1673ffffffffffffffffffffffffffffffffffffffff16815260200190815260200160002060009054906101000a900460ff16905092915050565b600081610ce4610ebe565b11610d7f57610cf1610ec3565b821115610d1b57610d146004600084815260200190815260200160002054611305565b9050610d80565b600054821015610d7e5760005b6000600460008581526020019081526020016000205491508103610d575782610d5090611c0a565b9250610d28565b60007c01000000000000000000000000000000000000000000000000000000008216149150505b5b5b919050565b8060005260046000fd5b6000610d9a83610922565b9050818015610ddc57508073ffffffffffffffffffffffffffffffffffffffff16610dc361102b565b73ffffffffffffffffffffffffffffffffffffffff1614155b15610e0857610df281610ded61102b565b610c45565b610e0757610e0663cfb3b94260e01b610d85565b5b5b836006600085815260200190815260200160002060000160006101000a81548173ffffffffffffffffffffffffffffffffffffffff021916908373ffffffffffffffffffffffffffffffffffffffff160217905550828473ffffffffffffffffffffffffffffffffffffffff168273ffffffffffffffffffffffffffffffffffffffff167f8c5be1e5ebec7d5bd14f71427d1e84f3dd0314c0f7b2291e5b200ac8c7c3b92560405160405180910390a450505050565b600090565b60007fffffffffffffffffffffffffffffffffffffffffffffffffffffffffffffffff905090565b600081610ef6610ebe565b11610fee5760046000838152602001908152602001600020549050610f19610ec3565b821115610f3e57610f2981611305565b610fff57610f3d63df2d9b4260e01b610d85565b5b60008103610fc5576000548210610f6057610f5f63df2d9b4260e01b610d85565b5b5b60046000836001900393508381526020019081526020016000205490506000810315610fc05760007c010000000000000000000000000000000000000000000000000000000082160315610fff57610fbf63df2d9b4260e01b610d85565b5b610f61565b60007c010000000000000000000000000000000000000000000000000000000082160315610fff575b610ffe63df2d9b4260e01b610d85565b5b919050565b60008060006006600085815260200190815260200160002090508092508254915050915091565b600033905090565b600073ffffffffffffffffffffffffffffffffffffffff8316925073ffffffffffffffffffffffffffffffffffffffff821691508382148383141790509392505050565b50505050565b60008060e883901c905060e8611094868684611346565b62ffffff16901b9150509392505050565b600073ffffffffffffffffffffffffffffffffffffffff83169250814260a01b178317905092915050565b50505050565b6110f082826040518060200160405280600081525061134f565b5050565b60008373ffffffffffffffffffffffffffffffffffffffff1663150b7a0261111a61102b565b8786866040518563ffffffff1660e01b815260040161113c9493929190611c88565b6020604051808303816000875af192505050801561117857506040513d601f19601f820116820180604052508101906111759190611ce9565b60015b6111d0573d80600081146111a8576040519150601f19603f3d011682016040523d82523d6000602084013e6111ad565b606091505b5060008151036111c8576111c763d1a57ed660e01b610d85565b5b805181602001fd5b63150b7a0260e01b7bffffffffffffffffffffffffffffffffffffffffffffffffffffffff1916817bffffffffffffffffffffffffffffffffffffffffffffffffffffffff191614915050949350505050565b6060600a805461123290611b4a565b80601f016020809104026020016040519081016040528092919081815260200182805461125e90611b4a565b80156112ab5780601f10611280576101008083540402835291602001916112ab565b820191906000526020600020905b81548152906001019060200180831161128e57829003601f168201915b5050505050905090565b606060a060405101806040526020810391506000825281835b6001156112f057600184039350600a81066030018453600a81049050806112ce575b50828103602084039350808452505050919050565b60007c0100000000000000000000000000000000000000000000000000000000821673ffffffffffffffffffffffffffffffffffffffff8316119050919050565b60009392505050565b61135983836113cb565b60008373ffffffffffffffffffffffffffffffffffffffff163b146113c657600080549050600083820390505b61139960008683806001019450866110f4565b6113ae576113ad63d1a57ed660e01b610d85565b5b8181106113865781600054146113c357600080fd5b50505b505050565b600080549050600082036113ea576113e963b562e8dd60e01b610d85565b5b6113f76000848385611077565b61141783611408600086600061107d565b61141185611551565b176110a5565b6004600083815260200190815260200160002081905550600160406001901b178202600560008573ffffffffffffffffffffffffffffffffffffffff1673ffffffffffffffffffffffffffffffffffffffff16815260200190815260200160002060008282540192505081905550600073ffffffffffffffffffffffffffffffffffffffff8473ffffffffffffffffffffffffffffffffffffffff16169050600081036114cf576114ce632e07630060e01b610d85565b5b6000838301905060008390506114e3610ec3565b6001830311156114fe576114fd6381647e3a60e01b610d85565b5b5b808360007fddf252ad1be2c89b69c2b068fc378daa952ba7f163c4a11628f55a4df523b3ef600080a48181600101915081036114ff578160008190555050505061154c60008483856110d0565b505050565b60006001821460e11b9050919050565b6000604051905090565b600080fd5b600080fd5b60007fffffffff0000000000000000000000000000000000000000000000000000000082169050919050565b6115aa81611575565b81146115b557600080fd5b50565b6000813590506115c7816115a1565b92915050565b6000602082840312156115e3576115e261156b565b5b60006115f1848285016115b8565b91505092915050565b60008115159050919050565b61160f816115fa565b82525050565b600060208201905061162a6000830184611606565b92915050565b600081519050919050565b600082825260208201905092915050565b60005b8381101561166a57808201518184015260208101905061164f565b60008484015250505050565b6000601f19601f8301169050919050565b600061169282611630565b61169c818561163b565b93506116ac81856020860161164c565b6116b581611676565b840191505092915050565b600060208201905081810360008301526116da8184611687565b905092915050565b6000819050919050565b6116f5816116e2565b811461170057600080fd5b50565b600081359050611712816116ec565b92915050565b60006020828403121561172e5761172d61156b565b5b600061173c84828501611703565b91505092915050565b600073ffffffffffffffffffffffffffffffffffffffff82169050919050565b600061177082611745565b9050919050565b61178081611765565b82525050565b600060208201905061179b6000830184611777565b92915050565b6117aa81611765565b81146117b557600080fd5b50565b6000813590506117c7816117a1565b92915050565b600080604083850312156117e4576117e361156b565b5b60006117f2858286016117b8565b925050602061180385828601611703565b9150509250929050565b611816816116e2565b82525050565b6000602082019050611831600083018461180d565b92915050565b6000806000606084860312156118505761184f61156b565b5b600061185e868287016117b8565b935050602061186f868287016117b8565b925050604061188086828701611703565b9150509250925092565b6000602082840312156118a05761189f61156b565b5b60006118ae848285016117b8565b91505092915050565b6118c0816115fa565b81146118cb57600080fd5b50565b6000813590506118dd816118b7565b92915050565b600080604083850312156118fa576118f961156b565b5b6000611908858286016117b8565b9250506020611919858286016118ce565b9150509250929050565b600080fd5b600080fd5b7f4e487b7100000000000000000000000000000000000000000000000000000000600052604160045260246000fd5b61196582611676565b810181811067ffffffffffffffff821117156119845761198361192d565b5b80604052505050565b6000611997611561565b90506119a3828261195c565b919050565b600067ffffffffffffffff8211156119c3576119c261192d565b5b6119cc82611676565b9050602081019050919050565b82818337600083830152505050565b60006119fb6119f6846119a8565b61198d565b905082815260208101848484011115611a1757611a16611928565b5b611a228482856119d9565b509392505050565b600082601f830112611a3f57611a3e611923565b5b8135611a4f8482602086016119e8565b91505092915050565b60008060008060808587031215611a7257611a7161156b565b5b6000611a80878288016117b8565b9450506020611a91878288016117b8565b9350506040611aa287828801611703565b925050606085013567ffffffffffffffff811115611ac357611ac2611570565b5b611acf87828801611a2a565b91505092959194509250565b60008060408385031215611af257611af161156b565b5b6000611b00858286016117b8565b9250506020611b11858286016117b8565b9150509250929050565b7f4e487b7100000000000000000000000000000000000000000000000000000000600052602260045260246000fd5b60006002820490506001821680611b6257607f821691505b602082108103611b7557611b74611b1b565b5b50919050565b600081905092915050565b6000611b9182611630565b611b9b8185611b7b565b9350611bab81856020860161164c565b80840191505092915050565b6000611bc38285611b86565b9150611bcf8284611b86565b91508190509392505050565b7f4e487b7100000000000000000000000000000000000000000000000000000000600052601160045260246000fd5b6000611c15826116e2565b915060008203611c2857611c27611bdb565b5b600182039050919050565b600081519050919050565b600082825260208201905092915050565b6000611c5a82611c33565b611c648185611c3e565b9350611c7481856020860161164c565b611c7d81611676565b840191505092915050565b6000608082019050611c9d6000830187611777565b611caa6020830186611777565b611cb7604083018561180d565b8181036060830152611cc98184611c4f565b905095945050505050565b600081519050611ce3816115a1565b92915050565b600060208284031215611cff57611cfe61156b565b5b6000611d0d84828501611cd4565b9150509291505056fea2646970667358221220f1a72feb6de926abf462031f8a8f57354b93a369552f2eee3e59fa4f52b979fd64736f6c63430008180033697066733a2f2f626166796265696779686f75636d63687270613269726e7576646c776e6663736a6e6e37677036716b646932776e61617237716a7068326e746f792f",
  "linkReferences": {},
  "deployedLinkReferences": {}
}