{
  "_format": "hh-sol-artifact-1",
  "contractName": "Banker",
  "sourceName": "contracts/Banker.sol",
  "abi": [
    {
      "inputs": [
        {
          "internalType": "address",
          "name": "_stakableToken",
          "type": "address"
        },
        {
          "internalType": "address",
          "name": "_lendableToken",
          "type": "address"
        },
        {
          "internalType": "uint256",
          "name": "_loanAmount",
          "type": "uint256"
        }
      ],
      "stateMutability": "nonpayable",
      "type": "constructor"
    },
    {
      "inputs": [
        {
          "internalType": "bytes32",
          "name": "key",
          "type": "bytes32"
        }
      ],
      "name": "EnumerableMapNonexistentKey",
      "type": "error"
    },
    {
      "inputs": [],
      "name": "LOAN_AMOUNT",
      "outputs": [
        {
          "internalType": "uint256",
          "name": "",
          "type": "uint256"
        }
      ],
      "stateMutability": "view",
      "type": "function"
    },
    {
      "inputs": [
        {
          "internalType": "uint256",
          "name": "amount",
          "type": "uint256"
        }
      ],
      "name": "addFunding",
      "outputs": [],
      "stateMutability": "nonpayable",
      "type": "function"
    },
    {
      "inputs": [],
      "name": "availableForLending",
      "outputs": [
        {
          "internalType": "uint256",
          "name": "",
          "type": "uint256"
        }
      ],
      "stateMutability": "view",
      "type": "function"
    },
    {
      "inputs": [
        {
          "internalType": "uint256",
          "name": "tokenId",
          "type": "uint256"
        }
      ],
      "name": "borrow",
      "outputs": [],
      "stateMutability": "nonpayable",
      "type": "function"
    },
    {
      "inputs": [],
      "name": "lendableToken",
      "outputs": [
        {
          "internalType": "contract ERC20",
          "name": "",
          "type": "address"
        }
      ],
      "stateMutability": "view",
      "type": "function"
    },
    {
      "inputs": [
        {
          "internalType": "uint256",
          "name": "tokenId",
          "type": "uint256"
        }
      ],
      "name": "repay",
      "outputs": [],
      "stateMutability": "nonpayable",
      "type": "function"
    },
    {
      "inputs": [],
      "name": "stakableToken",
      "outputs": [
        {
          "internalType": "contract ERC721A",
          "name": "",
          "type": "address"
        }
      ],
      "stateMutability": "view",
      "type": "function"
    }
  ],
  "bytecode": "0x60806040523480156200001157600080fd5b50604051620014923803806200149283398181016040528101906200003791906200016d565b826000806101000a81548173ffffffffffffffffffffffffffffffffffffffff021916908373ffffffffffffffffffffffffffffffffffffffff16021790555081600160006101000a81548173ffffffffffffffffffffffffffffffffffffffff021916908373ffffffffffffffffffffffffffffffffffffffff16021790555080600281905550505050620001c9565b600080fd5b600073ffffffffffffffffffffffffffffffffffffffff82169050919050565b6000620000fa82620000cd565b9050919050565b6200010c81620000ed565b81146200011857600080fd5b50565b6000815190506200012c8162000101565b92915050565b6000819050919050565b620001478162000132565b81146200015357600080fd5b50565b60008151905062000167816200013c565b92915050565b600080600060608486031215620001895762000188620000c8565b5b600062000199868287016200011b565b9350506020620001ac868287016200011b565b9250506040620001bf8682870162000156565b9150509250925092565b6112b980620001d96000396000f3fe608060405234801561001057600080fd5b506004361061007d5760003560e01c80635d5d46131161005b5780635d5d4613146100da57806396ab4010146100f6578063abad6ca614610114578063c5ebeaec146101325761007d565b8063153f47d7146100825780631c96c3fb146100a0578063371fd8e6146100be575b600080fd5b61008a61014e565b6040516100979190610c3c565b60405180910390f35b6100a8610154565b6040516100b59190610cd6565b60405180910390f35b6100d860048036038101906100d39190610d22565b610178565b005b6100f460048036038101906100ef9190610d22565b61047e565b005b6100fe61053d565b60405161010b9190610c3c565b60405180910390f35b61011c610543565b6040516101299190610d70565b60405180910390f35b61014c60048036038101906101479190610d22565b610569565b005b60035481565b60008054906101000a900473ffffffffffffffffffffffffffffffffffffffff1681565b3373ffffffffffffffffffffffffffffffffffffffff166101a38260046108b790919063ffffffff16565b73ffffffffffffffffffffffffffffffffffffffff16146101f9576040517f08c379a00000000000000000000000000000000000000000000000000000000081526004016101f090610de8565b60405180910390fd5b600254600160009054906101000a900473ffffffffffffffffffffffffffffffffffffffff1673ffffffffffffffffffffffffffffffffffffffff166370a08231336040518263ffffffff1660e01b81526004016102579190610e29565b602060405180830381865afa158015610274573d6000803e3d6000fd5b505050506040513d601f19601f820116820180604052508101906102989190610e59565b10156102d9576040517f08c379a00000000000000000000000000000000000000000000000000000000081526004016102d090610ef8565b60405180910390fd5b600160009054906101000a900473ffffffffffffffffffffffffffffffffffffffff1673ffffffffffffffffffffffffffffffffffffffff166323b872dd33306002546040518463ffffffff1660e01b815260040161033a93929190610f18565b6020604051808303816000875af1158015610359573d6000803e3d6000fd5b505050506040513d601f19601f8201168201806040525081019061037d9190610f87565b6103bc576040517f08c379a00000000000000000000000000000000000000000000000000000000081526004016103b390611026565b60405180910390fd5b60008054906101000a900473ffffffffffffffffffffffffffffffffffffffff1673ffffffffffffffffffffffffffffffffffffffff166323b872dd3033846040518463ffffffff1660e01b815260040161041993929190610f18565b600060405180830381600087803b15801561043357600080fd5b505af1158015610447573d6000803e3d6000fd5b505050506002546003600082825461045f9190611075565b9250508190555061047a8160046108d490919063ffffffff16565b5050565b600160009054906101000a900473ffffffffffffffffffffffffffffffffffffffff1673ffffffffffffffffffffffffffffffffffffffff166323b872dd3330846040518463ffffffff1660e01b81526004016104dd93929190610f18565b6020604051808303816000875af11580156104fc573d6000803e3d6000fd5b505050506040513d601f19601f820116820180604052508101906105209190610f87565b5080600360008282546105339190611075565b9250508190555050565b60025481565b600160009054906101000a900473ffffffffffffffffffffffffffffffffffffffff1681565b600254600160009054906101000a900473ffffffffffffffffffffffffffffffffffffffff1673ffffffffffffffffffffffffffffffffffffffff166370a08231306040518263ffffffff1660e01b81526004016105c79190610e29565b602060405180830381865afa1580156105e4573d6000803e3d6000fd5b505050506040513d601f19601f820116820180604052508101906106089190610e59565b1015610649576040517f08c379a000000000000000000000000000000000000000000000000000000000815260040161064090610ef8565b60405180910390fd5b3073ffffffffffffffffffffffffffffffffffffffff1660008054906101000a900473ffffffffffffffffffffffffffffffffffffffff1673ffffffffffffffffffffffffffffffffffffffff1663081812fc836040518263ffffffff1660e01b81526004016106b99190610c3c565b602060405180830381865afa1580156106d6573d6000803e3d6000fd5b505050506040513d601f19601f820116820180604052508101906106fa91906110d5565b73ffffffffffffffffffffffffffffffffffffffff1614610750576040517f08c379a000000000000000000000000000000000000000000000000000000000815260040161074790611174565b60405180910390fd5b60008054906101000a900473ffffffffffffffffffffffffffffffffffffffff1673ffffffffffffffffffffffffffffffffffffffff166323b872dd3330846040518463ffffffff1660e01b81526004016107ad93929190610f18565b600060405180830381600087803b1580156107c757600080fd5b505af11580156107db573d6000803e3d6000fd5b50505050600160009054906101000a900473ffffffffffffffffffffffffffffffffffffffff1673ffffffffffffffffffffffffffffffffffffffff1663a9059cbb336002546040518363ffffffff1660e01b815260040161083e929190611194565b6020604051808303816000875af115801561085d573d6000803e3d6000fd5b505050506040513d601f19601f820116820180604052508101906108819190610f87565b506002546003600082825461089691906111bd565b925050819055506108b3813360046108ee9092919063ffffffff16565b5050565b60006108c9836000018360001b610923565b60001c905092915050565b60006108e6836000018360001b6109a3565b905092915050565b600061091a846000018460001b8473ffffffffffffffffffffffffffffffffffffffff1660001b6109dc565b90509392505050565b6000808360020160008481526020019081526020016000205490506000801b8114801561095757506109558484610a17565b155b1561099957826040517f02b56686000000000000000000000000000000000000000000000000000000008152600401610990919061120a565b60405180910390fd5b8091505092915050565b6000826002016000838152602001908152602001600020600090556109d48284600001610a3790919063ffffffff16565b905092915050565b60008184600201600085815260200190815260200160002081905550610a0e8385600001610a4e90919063ffffffff16565b90509392505050565b6000610a2f8284600001610a6590919063ffffffff16565b905092915050565b6000610a468360000183610a7c565b905092915050565b6000610a5d8360000183610b90565b905092915050565b6000610a748360000183610c00565b905092915050565b60008083600101600084815260200190815260200160002054905060008114610b84576000600182610aae91906111bd565b9050600060018660000180549050610ac691906111bd565b9050808214610b35576000866000018281548110610ae757610ae6611225565b5b9060005260206000200154905080876000018481548110610b0b57610b0a611225565b5b90600052602060002001819055508387600101600083815260200190815260200160002081905550505b85600001805480610b4957610b48611254565b5b600190038181906000526020600020016000905590558560010160008681526020019081526020016000206000905560019350505050610b8a565b60009150505b92915050565b6000610b9c8383610c00565b610bf5578260000182908060018154018082558091505060019003906000526020600020016000909190919091505582600001805490508360010160008481526020019081526020016000208190555060019050610bfa565b600090505b92915050565b600080836001016000848152602001908152602001600020541415905092915050565b6000819050919050565b610c3681610c23565b82525050565b6000602082019050610c516000830184610c2d565b92915050565b600073ffffffffffffffffffffffffffffffffffffffff82169050919050565b6000819050919050565b6000610c9c610c97610c9284610c57565b610c77565b610c57565b9050919050565b6000610cae82610c81565b9050919050565b6000610cc082610ca3565b9050919050565b610cd081610cb5565b82525050565b6000602082019050610ceb6000830184610cc7565b92915050565b600080fd5b610cff81610c23565b8114610d0a57600080fd5b50565b600081359050610d1c81610cf6565b92915050565b600060208284031215610d3857610d37610cf1565b5b6000610d4684828501610d0d565b91505092915050565b6000610d5a82610ca3565b9050919050565b610d6a81610d4f565b82525050565b6000602082019050610d856000830184610d61565b92915050565b600082825260208201905092915050565b7f4d73672e73656e646572206973206e6f74206f776e6572206f66206c6f616e00600082015250565b6000610dd2601f83610d8b565b9150610ddd82610d9c565b602082019050919050565b60006020820190508181036000830152610e0181610dc5565b9050919050565b6000610e1382610c57565b9050919050565b610e2381610e08565b82525050565b6000602082019050610e3e6000830184610e1a565b92915050565b600081519050610e5381610cf6565b92915050565b600060208284031215610e6f57610e6e610cf1565b5b6000610e7d84828501610e44565b91505092915050565b7f436f6e747261637420646f6573206e6f74206861766520656e6f75676820746f60008201527f206d616b65206c6f616e00000000000000000000000000000000000000000000602082015250565b6000610ee2602a83610d8b565b9150610eed82610e86565b604082019050919050565b60006020820190508181036000830152610f1181610ed5565b9050919050565b6000606082019050610f2d6000830186610e1a565b610f3a6020830185610e1a565b610f476040830184610c2d565b949350505050565b60008115159050919050565b610f6481610f4f565b8114610f6f57600080fd5b50565b600081519050610f8181610f5b565b92915050565b600060208284031215610f9d57610f9c610cf1565b5b6000610fab84828501610f72565b91505092915050565b7f436f6e747261637420756e61626c6520746f207472616e7366657220746f6b6560008201527f6e7320746f20736574746c652064656274000000000000000000000000000000602082015250565b6000611010603183610d8b565b915061101b82610fb4565b604082019050919050565b6000602082019050818103600083015261103f81611003565b9050919050565b7f4e487b7100000000000000000000000000000000000000000000000000000000600052601160045260246000fd5b600061108082610c23565b915061108b83610c23565b92508282019050808211156110a3576110a2611046565b5b92915050565b6110b281610e08565b81146110bd57600080fd5b50565b6000815190506110cf816110a9565b92915050565b6000602082840312156110eb576110ea610cf1565b5b60006110f9848285016110c0565b91505092915050565b7f436f6e7472616374206973206e6f7420617070726f76656420746f207472616e60008201527f73666572207468697320746f6b656e0000000000000000000000000000000000602082015250565b600061115e602f83610d8b565b915061116982611102565b604082019050919050565b6000602082019050818103600083015261118d81611151565b9050919050565b60006040820190506111a96000830185610e1a565b6111b66020830184610c2d565b9392505050565b60006111c882610c23565b91506111d383610c23565b92508282039050818111156111eb576111ea611046565b5b92915050565b6000819050919050565b611204816111f1565b82525050565b600060208201905061121f60008301846111fb565b92915050565b7f4e487b7100000000000000000000000000000000000000000000000000000000600052603260045260246000fd5b7f4e487b7100000000000000000000000000000000000000000000000000000000600052603160045260246000fdfea26469706673582212203074d75e6bdd8d67a7e07e94e31b653f589d868bc7061d8cc4f83fa165c5c11e64736f6c63430008180033",
  "linkReferences": {},
  "deployedLinkReferences": {}
}