{
  "_format": "hh-sol-artifact-1",
  "contractName": "BasicNFT",
  "sourceName": "contracts/BasicNft.sol",
  "abi": [
    {
      "inputs": [],
      "stateMutability": "nonpayable",
      "type": "constructor"
    },
    {
      "inputs": [],
      "name": "ApprovalCallerNotOwnerNorApproved",
      "type": "error"
    },
    {
      "inputs": [],
      "name": "ApprovalQueryForNonexistentToken",
      "type": "error"
    },
    {
      "inputs": [],
      "name": "BalanceQueryForZeroAddress",
      "type": "error"
    },
    {
      "inputs": [],
      "name": "InvalidQueryRange",
      "type": "error"
    },
    {
      "inputs": [],
      "name": "MintERC2309QuantityExceedsLimit",
      "type": "error"
    },
    {
      "inputs": [],
      "name": "MintToZeroAddress",
      "type": "error"
    },
    {
      "inputs": [],
      "name": "MintZeroQuantity",
      "type": "error"
    },
    {
      "inputs": [],
      "name": "NotCompatibleWithSpotMints",
      "type": "error"
    },
    {
      "inputs": [],
      "name": "OwnerQueryForNonexistentToken",
      "type": "error"
    },
    {
      "inputs": [],
      "name": "OwnershipNotInitializedForExtraData",
      "type": "error"
    },
    {
      "inputs": [],
      "name": "SequentialMintExceedsLimit",
      "type": "error"
    },
    {
      "inputs": [],
      "name": "SequentialUpToTooSmall",
      "type": "error"
    },
    {
      "inputs": [],
      "name": "SpotMintTokenIdTooSmall",
      "type": "error"
    },
    {
      "inputs": [],
      "name": "TokenAlreadyExists",
      "type": "error"
    },
    {
      "inputs": [],
      "name": "TransferCallerNotOwnerNorApproved",
      "type": "error"
    },
    {
      "inputs": [],
      "name": "TransferFromIncorrectOwner",
      "type": "error"
    },
    {
      "inputs": [],
      "name": "TransferToNonERC721ReceiverImplementer",
      "type": "error"
    },
    {
      "inputs": [],
      "name": "TransferToZeroAddress",
      "type": "error"
    },
    {
      "inputs": [],
      "name": "URIQueryForNonexistentToken",
      "type": "error"
    },
    {
      "anonymous": false,
      "inputs": [
        {
          "indexed": true,
          "internalType": "address",
          "name": "owner",
          "type": "address"
        },
        {
          "indexed": true,
          "internalType": "address",
          "name": "approved",
          "type": "address"
        },
        {
          "indexed": true,
          "internalType": "uint256",
          "name": "tokenId",
          "type": "uint256"
        }
      ],
      "name": "Approval",
      "type": "event"
    },
    {
      "anonymous": false,
      "inputs": [
        {
          "indexed": true,
          "internalType": "address",
          "name": "owner",
          "type": "address"
        },
        {
          "indexed": true,
          "internalType": "address",
          "name": "operator",
          "type": "address"
        },
        {
          "indexed": false,
          "internalType": "bool",
          "name": "approved",
          "type": "bool"
        }
      ],
      "name": "ApprovalForAll",
      "type": "event"
    },
    {
      "anonymous": false,
      "inputs": [
        {
          "indexed": true,
          "internalType": "uint256",
          "name": "fromTokenId",
          "type": "uint256"
        },
        {
          "indexed": false,
          "internalType": "uint256",
          "name": "toTokenId",
          "type": "uint256"
        },
        {
          "indexed": true,
          "internalType": "address",
          "name": "from",
          "type": "address"
        },
        {
          "indexed": true,
          "internalType": "address",
          "name": "to",
          "type": "address"
        }
      ],
      "name": "ConsecutiveTransfer",
      "type": "event"
    },
    {
      "anonymous": false,
      "inputs": [
        {
          "indexed": true,
          "internalType": "address",
          "name": "from",
          "type": "address"
        },
        {
          "indexed": true,
          "internalType": "address",
          "name": "to",
          "type": "address"
        },
        {
          "indexed": true,
          "internalType": "uint256",
          "name": "tokenId",
          "type": "uint256"
        }
      ],
      "name": "Transfer",
      "type": "event"
    },
    {
      "inputs": [],
      "name": "TOKEN_URL",
      "outputs": [
        {
          "internalType": "string",
          "name": "",
          "type": "string"
        }
      ],
      "stateMutability": "view",
      "type": "function"
    },
    {
      "inputs": [
        {
          "internalType": "address",
          "name": "to",
          "type": "address"
        },
        {
          "internalType": "uint256",
          "name": "tokenId",
          "type": "uint256"
        }
      ],
      "name": "approve",
      "outputs": [],
      "stateMutability": "payable",
      "type": "function"
    },
    {
      "inputs": [
        {
          "internalType": "address",
          "name": "owner",
          "type": "address"
        }
      ],
      "name": "balanceOf",
      "outputs": [
        {
          "internalType": "uint256",
          "name": "",
          "type": "uint256"
        }
      ],
      "stateMutability": "view",
      "type": "function"
    },
    {
      "inputs": [
        {
          "internalType": "uint256",
          "name": "tokenId",
          "type": "uint256"
        }
      ],
      "name": "explicitOwnershipOf",
      "outputs": [
        {
          "components": [
            {
              "internalType": "address",
              "name": "addr",
              "type": "address"
            },
            {
              "internalType": "uint64",
              "name": "startTimestamp",
              "type": "uint64"
            },
            {
              "internalType": "bool",
              "name": "burned",
              "type": "bool"
            },
            {
              "internalType": "uint24",
              "name": "extraData",
              "type": "uint24"
            }
          ],
          "internalType": "struct IERC721A.TokenOwnership",
          "name": "ownership",
          "type": "tuple"
        }
      ],
      "stateMutability": "view",
      "type": "function"
    },
    {
      "inputs": [
        {
          "internalType": "uint256[]",
          "name": "tokenIds",
          "type": "uint256[]"
        }
      ],
      "name": "explicitOwnershipsOf",
      "outputs": [
        {
          "components": [
            {
              "internalType": "address",
              "name": "addr",
              "type": "address"
            },
            {
              "internalType": "uint64",
              "name": "startTimestamp",
              "type": "uint64"
            },
            {
              "internalType": "bool",
              "name": "burned",
              "type": "bool"
            },
            {
              "internalType": "uint24",
              "name": "extraData",
              "type": "uint24"
            }
          ],
          "internalType": "struct IERC721A.TokenOwnership[]",
          "name": "",
          "type": "tuple[]"
        }
      ],
      "stateMutability": "view",
      "type": "function"
    },
    {
      "inputs": [
        {
          "internalType": "uint256",
          "name": "tokenId",
          "type": "uint256"
        }
      ],
      "name": "getApproved",
      "outputs": [
        {
          "internalType": "address",
          "name": "",
          "type": "address"
        }
      ],
      "stateMutability": "view",
      "type": "function"
    },
    {
      "inputs": [
        {
          "internalType": "address",
          "name": "owner",
          "type": "address"
        },
        {
          "internalType": "address",
          "name": "operator",
          "type": "address"
        }
      ],
      "name": "isApprovedForAll",
      "outputs": [
        {
          "internalType": "bool",
          "name": "",
          "type": "bool"
        }
      ],
      "stateMutability": "view",
      "type": "function"
    },
    {
      "inputs": [],
      "name": "name",
      "outputs": [
        {
          "internalType": "string",
          "name": "",
          "type": "string"
        }
      ],
      "stateMutability": "view",
      "type": "function"
    },
    {
      "inputs": [
        {
          "internalType": "uint256",
          "name": "tokenId",
          "type": "uint256"
        }
      ],
      "name": "ownerOf",
      "outputs": [
        {
          "internalType": "address",
          "name": "",
          "type": "address"
        }
      ],
      "stateMutability": "view",
      "type": "function"
    },
    {
      "inputs": [
        {
          "internalType": "address",
          "name": "to",
          "type": "address"
        },
        {
          "internalType": "uint256",
          "name": "quantity",
          "type": "uint256"
        }
      ],
      "name": "safeMint",
      "outputs": [],
      "stateMutability": "nonpayable",
      "type": "function"
    },
    {
      "inputs": [
        {
          "internalType": "address",
          "name": "from",
          "type": "address"
        },
        {
          "internalType": "address",
          "name": "to",
          "type": "address"
        },
        {
          "internalType": "uint256",
          "name": "tokenId",
          "type": "uint256"
        }
      ],
      "name": "safeTransferFrom",
      "outputs": [],
      "stateMutability": "payable",
      "type": "function"
    },
    {
      "inputs": [
        {
          "internalType": "address",
          "name": "from",
          "type": "address"
        },
        {
          "internalType": "address",
          "name": "to",
          "type": "address"
        },
        {
          "internalType": "uint256",
          "name": "tokenId",
          "type": "uint256"
        },
        {
          "internalType": "bytes",
          "name": "_data",
          "type": "bytes"
        }
      ],
      "name": "safeTransferFrom",
      "outputs": [],
      "stateMutability": "payable",
      "type": "function"
    },
    {
      "inputs": [
        {
          "internalType": "address",
          "name": "operator",
          "type": "address"
        },
        {
          "internalType": "bool",
          "name": "approved",
          "type": "bool"
        }
      ],
      "name": "setApprovalForAll",
      "outputs": [],
      "stateMutability": "nonpayable",
      "type": "function"
    },
    {
      "inputs": [
        {
          "internalType": "bytes4",
          "name": "interfaceId",
          "type": "bytes4"
        }
      ],
      "name": "supportsInterface",
      "outputs": [
        {
          "internalType": "bool",
          "name": "",
          "type": "bool"
        }
      ],
      "stateMutability": "view",
      "type": "function"
    },
    {
      "inputs": [],
      "name": "symbol",
      "outputs": [
        {
          "internalType": "string",
          "name": "",
          "type": "string"
        }
      ],
      "stateMutability": "view",
      "type": "function"
    },
    {
      "inputs": [
        {
          "internalType": "uint256",
          "name": "tokenId",
          "type": "uint256"
        }
      ],
      "name": "tokenURI",
      "outputs": [
        {
          "internalType": "string",
          "name": "",
          "type": "string"
        }
      ],
      "stateMutability": "view",
      "type": "function"
    },
    {
      "inputs": [
        {
          "internalType": "address",
          "name": "owner",
          "type": "address"
        }
      ],
      "name": "tokensOfOwner",
      "outputs": [
        {
          "internalType": "uint256[]",
          "name": "",
          "type": "uint256[]"
        }
      ],
      "stateMutability": "view",
      "type": "function"
    },
    {
      "inputs": [
        {
          "internalType": "address",
          "name": "owner",
          "type": "address"
        },
        {
          "internalType": "uint256",
          "name": "start",
          "type": "uint256"
        },
        {
          "internalType": "uint256",
          "name": "stop",
          "type": "uint256"
        }
      ],
      "name": "tokensOfOwnerIn",
      "outputs": [
        {
          "internalType": "uint256[]",
          "name": "",
          "type": "uint256[]"
        }
      ],
      "stateMutability": "view",
      "type": "function"
    },
    {
      "inputs": [],
      "name": "totalSupply",
      "outputs": [
        {
          "internalType": "uint256",
          "name": "result",
          "type": "uint256"
        }
      ],
      "stateMutability": "view",
      "type": "function"
    },
    {
      "inputs": [
        {
          "internalType": "address",
          "name": "from",
          "type": "address"
        },
        {
          "internalType": "address",
          "name": "to",
          "type": "address"
        },
        {
          "internalType": "uint256",
          "name": "tokenId",
          "type": "uint256"
        }
      ],
      "name": "transferFrom",
      "outputs": [],
      "stateMutability": "payable",
      "type": "function"
    }
  ],
  "bytecode": "0x608060405260405180608001604052806043815260200162002b8f60439139600a90816200002e9190620003dc565b503480156200003c57600080fd5b506040518060400160405280600881526020017f42617369634e46540000000000000000000000000000000000000000000000008152506040518060400160405280600481526020017f424e4654000000000000000000000000000000000000000000000000000000008152508160029081620000ba9190620003dc565b508060039081620000cc9190620003dc565b50620000dd6200012b60201b60201c565b600081905550620000f36200012b60201b60201c565b620001036200013060201b60201c565b101562000123576200012263fed8210f60e01b6200015860201b60201c565b5b5050620004c3565b600090565b60007fffffffffffffffffffffffffffffffffffffffffffffffffffffffffffffffff905090565b8060005260046000fd5b600081519050919050565b7f4e487b7100000000000000000000000000000000000000000000000000000000600052604160045260246000fd5b7f4e487b7100000000000000000000000000000000000000000000000000000000600052602260045260246000fd5b60006002820490506001821680620001e457607f821691505b602082108103620001fa57620001f96200019c565b5b50919050565b60008190508160005260206000209050919050565b60006020601f8301049050919050565b600082821b905092915050565b600060088302620002647fffffffffffffffffffffffffffffffffffffffffffffffffffffffffffffffff8262000225565b62000270868362000225565b95508019841693508086168417925050509392505050565b6000819050919050565b6000819050919050565b6000620002bd620002b7620002b18462000288565b62000292565b62000288565b9050919050565b6000819050919050565b620002d9836200029c565b620002f1620002e882620002c4565b84845462000232565b825550505050565b600090565b62000308620002f9565b62000315818484620002ce565b505050565b5b818110156200033d5762000331600082620002fe565b6001810190506200031b565b5050565b601f8211156200038c57620003568162000200565b620003618462000215565b8101602085101562000371578190505b62000389620003808562000215565b8301826200031a565b50505b505050565b600082821c905092915050565b6000620003b16000198460080262000391565b1980831691505092915050565b6000620003cc83836200039e565b9150826002028217905092915050565b620003e78262000162565b67ffffffffffffffff8111156200040357620004026200016d565b5b6200040f8254620001cb565b6200041c82828562000341565b600060209050601f8311600181146200045457600084156200043f578287015190505b6200044b8582620003be565b865550620004bb565b601f198416620004648662000200565b60005b828110156200048e5784890151825560018201915060208501945060208101905062000467565b86831015620004ae5784890151620004aa601f8916826200039e565b8355505b6001600288020188555050505b505050505050565b6126bc80620004d36000396000f3fe60806040526004361061011f5760003560e01c806370a08231116100a0578063a22cb46511610064578063a22cb465146103f8578063b88d4fde14610421578063c23dc68f1461043d578063c87b56dd1461047a578063e985e9c5146104b75761011f565b806370a08231146102ed5780638462151c1461032a57806395d89b411461036757806399a2557a14610392578063a1448194146103cf5761011f565b806318160ddd116100e757806318160ddd1461021057806323b872dd1461023b57806342842e0e146102575780635bbb2177146102735780636352211e146102b05761011f565b806301ffc9a71461012457806302b6bc5d1461016157806306fdde031461018c578063081812fc146101b7578063095ea7b3146101f4575b600080fd5b34801561013057600080fd5b5061014b60048036038101906101469190611b68565b6104f4565b6040516101589190611bb0565b60405180910390f35b34801561016d57600080fd5b50610176610586565b6040516101839190611c5b565b60405180910390f35b34801561019857600080fd5b506101a1610614565b6040516101ae9190611c5b565b60405180910390f35b3480156101c357600080fd5b506101de60048036038101906101d99190611cb3565b6106a6565b6040516101eb9190611d21565b60405180910390f35b61020e60048036038101906102099190611d68565b610704565b005b34801561021c57600080fd5b50610225610714565b6040516102329190611db7565b60405180910390f35b61025560048036038101906102509190611dd2565b610761565b005b610271600480360381019061026c9190611dd2565b610a22565b005b34801561027f57600080fd5b5061029a60048036038101906102959190611e8a565b610a42565b6040516102a7919061203a565b60405180910390f35b3480156102bc57600080fd5b506102d760048036038101906102d29190611cb3565b610aa2565b6040516102e49190611d21565b60405180910390f35b3480156102f957600080fd5b50610314600480360381019061030f919061205c565b610ab4565b6040516103219190611db7565b60405180910390f35b34801561033657600080fd5b50610351600480360381019061034c919061205c565b610b4b565b60405161035e9190612147565b60405180910390f35b34801561037357600080fd5b5061037c610bc6565b6040516103899190611c5b565b60405180910390f35b34801561039e57600080fd5b506103b960048036038101906103b49190612169565b610c58565b6040516103c69190612147565b60405180910390f35b3480156103db57600080fd5b506103f660048036038101906103f19190611d68565b610c6e565b005b34801561040457600080fd5b5061041f600480360381019061041a91906121e8565b610c7c565b005b61043b60048036038101906104369190612358565b610d87565b005b34801561044957600080fd5b50610464600480360381019061045f9190611cb3565b610dd9565b6040516104719190612430565b60405180910390f35b34801561048657600080fd5b506104a1600480360381019061049c9190611cb3565b610e4e565b6040516104ae9190611c5b565b60405180910390f35b3480156104c357600080fd5b506104de60048036038101906104d9919061244b565b610ecb565b6040516104eb9190611bb0565b60405180910390f35b60006301ffc9a760e01b827bffffffffffffffffffffffffffffffffffffffffffffffffffffffff1916148061054f57506380ac58cd60e01b827bffffffffffffffffffffffffffffffffffffffffffffffffffffffff1916145b8061057f5750635b5e139f60e01b827bffffffffffffffffffffffffffffffffffffffffffffffffffffffff1916145b9050919050565b600a8054610593906124ba565b80601f01602080910402602001604051908101604052809291908181526020018280546105bf906124ba565b801561060c5780601f106105e15761010080835404028352916020019161060c565b820191906000526020600020905b8154815290600101906020018083116105ef57829003601f168201915b505050505081565b606060028054610623906124ba565b80601f016020809104026020016040519081016040528092919081815260200182805461064f906124ba565b801561069c5780601f106106715761010080835404028352916020019161069c565b820191906000526020600020905b81548152906001019060200180831161067f57829003601f168201915b5050505050905090565b60006106b182610f5f565b6106c6576106c563cf4700e460e01b61100b565b5b6006600083815260200190815260200160002060000160009054906101000a900473ffffffffffffffffffffffffffffffffffffffff169050919050565b61071082826001611015565b5050565b600061071e611144565b600154600054030390507fffffffffffffffffffffffffffffffffffffffffffffffffffffffffffffffff610751611149565b1461075e57600854810190505b90565b600061076c82611171565b905073ffffffffffffffffffffffffffffffffffffffff8473ffffffffffffffffffffffffffffffffffffffff161693508373ffffffffffffffffffffffffffffffffffffffff168173ffffffffffffffffffffffffffffffffffffffff16146107e1576107e063a114810060e01b61100b565b5b6000806107ed8461128a565b9150915061080381876107fe6112b1565b6112b9565b61082e57610818866108136112b1565b610ecb565b61082d5761082c6359c896be60e01b61100b565b5b5b61083b86868660016112fd565b801561084657600082555b600560008773ffffffffffffffffffffffffffffffffffffffff1673ffffffffffffffffffffffffffffffffffffffff168152602001908152602001600020600081546001900391905081905550600560008673ffffffffffffffffffffffffffffffffffffffff1673ffffffffffffffffffffffffffffffffffffffff1681526020019081526020016000206000815460010191905081905550610914856108f0888887611303565b7c02000000000000000000000000000000000000000000000000000000001761132b565b600460008681526020019081526020016000208190555060007c020000000000000000000000000000000000000000000000000000000084160361099a5760006001850190506000600460008381526020019081526020016000205403610998576000548114610997578360046000838152602001908152602001600020819055505b5b505b600073ffffffffffffffffffffffffffffffffffffffff8673ffffffffffffffffffffffffffffffffffffffff161690508481887fddf252ad1be2c89b69c2b068fc378daa952ba7f163c4a11628f55a4df523b3ef600080a460008103610a0c57610a0b63ea553b3460e01b61100b565b5b610a198787876001611356565b50505050505050565b610a3d83838360405180602001604052806000815250610d87565b505050565b606080600084849050905060405191508082528060051b90508060208301016040525b60008114610a975760006020820391508186013590506000610a8682610dd9565b905080836020860101525050610a65565b819250505092915050565b6000610aad82611171565b9050919050565b60008073ffffffffffffffffffffffffffffffffffffffff168273ffffffffffffffffffffffffffffffffffffffff1603610afa57610af9638f4eb60460e01b61100b565b5b67ffffffffffffffff600560008473ffffffffffffffffffffffffffffffffffffffff1673ffffffffffffffffffffffffffffffffffffffff16815260200190815260200160002054169050919050565b60607fffffffffffffffffffffffffffffffffffffffffffffffffffffffffffffffff610b76611149565b14610b8c57610b8b63bdba09d760e01b61100b565b5b6000610b96611144565b90506000610ba261135c565b90506060818314610bbb57610bb8858484611365565b90505b809350505050919050565b606060038054610bd5906124ba565b80601f0160208091040260200160405190810160405280929190818152602001828054610c01906124ba565b8015610c4e5780601f10610c2357610100808354040283529160200191610c4e565b820191906000526020600020905b815481529060010190602001808311610c3157829003601f168201915b5050505050905090565b6060610c65848484611365565b90509392505050565b610c788282611521565b5050565b8060076000610c896112b1565b73ffffffffffffffffffffffffffffffffffffffff1673ffffffffffffffffffffffffffffffffffffffff16815260200190815260200160002060008473ffffffffffffffffffffffffffffffffffffffff1673ffffffffffffffffffffffffffffffffffffffff16815260200190815260200160002060006101000a81548160ff0219169083151502179055508173ffffffffffffffffffffffffffffffffffffffff16610d366112b1565b73ffffffffffffffffffffffffffffffffffffffff167f17307eab39ab6107e8899845ad3d59bd9653f200f220920489ca2b5937696c3183604051610d7b9190611bb0565b60405180910390a35050565b610d92848484610761565b60008373ffffffffffffffffffffffffffffffffffffffff163b14610dd357610dbd8484848461153f565b610dd257610dd163d1a57ed660e01b61100b565b5b5b50505050565b610de1611aad565b610de9611144565b8210610e4857610df7611149565b821115610e0e57610e078261166e565b9050610e49565b610e1661135c565b821015610e47575b610e2782611699565b610e375781600190039150610e1e565b610e408261166e565b9050610e49565b5b5b919050565b6060610e5982610f5f565b610e6e57610e6d63a14c4b5060e01b61100b565b5b6000610e786116b9565b90506000815103610e985760405180602001604052806000815250610ec3565b80610ea28461174b565b604051602001610eb3929190612527565b6040516020818303038152906040525b915050919050565b6000600760008473ffffffffffffffffffffffffffffffffffffffff1673ffffffffffffffffffffffffffffffffffffffff16815260200190815260200160002060008373ffffffffffffffffffffffffffffffffffffffff1673ffffffffffffffffffffffffffffffffffffffff16815260200190815260200160002060009054906101000a900460ff16905092915050565b600081610f6a611144565b1161100557610f77611149565b821115610fa157610f9a600460008481526020019081526020016000205461179b565b9050611006565b6000548210156110045760005b6000600460008581526020019081526020016000205491508103610fdd5782610fd69061257a565b9250610fae565b60007c01000000000000000000000000000000000000000000000000000000008216149150505b5b5b919050565b8060005260046000fd5b600061102083610aa2565b905081801561106257508073ffffffffffffffffffffffffffffffffffffffff166110496112b1565b73ffffffffffffffffffffffffffffffffffffffff1614155b1561108e57611078816110736112b1565b610ecb565b61108d5761108c63cfb3b94260e01b61100b565b5b5b836006600085815260200190815260200160002060000160006101000a81548173ffffffffffffffffffffffffffffffffffffffff021916908373ffffffffffffffffffffffffffffffffffffffff160217905550828473ffffffffffffffffffffffffffffffffffffffff168273ffffffffffffffffffffffffffffffffffffffff167f8c5be1e5ebec7d5bd14f71427d1e84f3dd0314c0f7b2291e5b200ac8c7c3b92560405160405180910390a450505050565b600090565b60007fffffffffffffffffffffffffffffffffffffffffffffffffffffffffffffffff905090565b60008161117c611144565b11611274576004600083815260200190815260200160002054905061119f611149565b8211156111c4576111af8161179b565b611285576111c363df2d9b4260e01b61100b565b5b6000810361124b5760005482106111e6576111e563df2d9b4260e01b61100b565b5b5b600460008360019003935083815260200190815260200160002054905060008103156112465760007c0100000000000000000000000000000000000000000000000000000000821603156112855761124563df2d9b4260e01b61100b565b5b6111e7565b60007c010000000000000000000000000000000000000000000000000000000082160315611285575b61128463df2d9b4260e01b61100b565b5b919050565b60008060006006600085815260200190815260200160002090508092508254915050915091565b600033905090565b600073ffffffffffffffffffffffffffffffffffffffff8316925073ffffffffffffffffffffffffffffffffffffffff821691508382148383141790509392505050565b50505050565b60008060e883901c905060e861131a8686846117dc565b62ffffff16901b9150509392505050565b600073ffffffffffffffffffffffffffffffffffffffff83169250814260a01b178317905092915050565b50505050565b60008054905090565b606081831061137f5761137e6332c1995a60e01b61100b565b5b611387611144565b83101561139957611396611144565b92505b60006113a361135c565b905060007fffffffffffffffffffffffffffffffffffffffffffffffffffffffffffffffff6113d0611149565b036113db57816113dd565b835b90508084106113ea578093505b60006113f587610ab4565b905084861061140357600090505b6000811461151757808686031161141a5785850390505b600060405194506001820160051b8501905080604052600061143b88610dd9565b90506000816040015161145057816000015190505b60005b7fffffffffffffffffffffffffffffffffffffffffffffffffffffffffffffffff61147c611149565b146114ab57868a03611496576001611492611149565b0199505b61149e611149565b8a11156114aa57600091505b5b6114b48a61166e565b92506040830151600081146114cc57600092506114f2565b8351156114d857835192505b8b831860601b6114f1576001820191508a8260051b8a01525b5b5060018a01995083604052888a148061150a57508481145b1561145357808852505050505b5050509392505050565b61153b8282604051806020016040528060008152506117e5565b5050565b60008373ffffffffffffffffffffffffffffffffffffffff1663150b7a026115656112b1565b8786866040518563ffffffff1660e01b815260040161158794939291906125f8565b6020604051808303816000875af19250505080156115c357506040513d601f19601f820116820180604052508101906115c09190612659565b60015b61161b573d80600081146115f3576040519150601f19603f3d011682016040523d82523d6000602084013e6115f8565b606091505b5060008151036116135761161263d1a57ed660e01b61100b565b5b805181602001fd5b63150b7a0260e01b7bffffffffffffffffffffffffffffffffffffffffffffffffffffffff1916817bffffffffffffffffffffffffffffffffffffffffffffffffffffffff191614915050949350505050565b611676611aad565b6116926004600084815260200190815260200160002054611861565b9050919050565b600080600460008481526020019081526020016000205414159050919050565b6060600a80546116c8906124ba565b80601f01602080910402602001604051908101604052809291908181526020018280546116f4906124ba565b80156117415780601f1061171657610100808354040283529160200191611741565b820191906000526020600020905b81548152906001019060200180831161172457829003601f168201915b5050505050905090565b606060a060405101806040526020810391506000825281835b60011561178657600184039350600a81066030018453600a8104905080611764575b50828103602084039350808452505050919050565b60007c0100000000000000000000000000000000000000000000000000000000821673ffffffffffffffffffffffffffffffffffffffff8316119050919050565b60009392505050565b6117ef8383611917565b60008373ffffffffffffffffffffffffffffffffffffffff163b1461185c57600080549050600083820390505b61182f600086838060010194508661153f565b6118445761184363d1a57ed660e01b61100b565b5b81811061181c57816000541461185957600080fd5b50505b505050565b611869611aad565b81816000019073ffffffffffffffffffffffffffffffffffffffff16908173ffffffffffffffffffffffffffffffffffffffff168152505060a082901c816020019067ffffffffffffffff16908167ffffffffffffffff168152505060007c01000000000000000000000000000000000000000000000000000000008316141581604001901515908115158152505060e882901c816060019062ffffff16908162ffffff1681525050919050565b600080549050600082036119365761193563b562e8dd60e01b61100b565b5b61194360008483856112fd565b611963836119546000866000611303565b61195d85611a9d565b1761132b565b6004600083815260200190815260200160002081905550600160406001901b178202600560008573ffffffffffffffffffffffffffffffffffffffff1673ffffffffffffffffffffffffffffffffffffffff16815260200190815260200160002060008282540192505081905550600073ffffffffffffffffffffffffffffffffffffffff8473ffffffffffffffffffffffffffffffffffffffff1616905060008103611a1b57611a1a632e07630060e01b61100b565b5b600083830190506000839050611a2f611149565b600183031115611a4a57611a496381647e3a60e01b61100b565b5b5b808360007fddf252ad1be2c89b69c2b068fc378daa952ba7f163c4a11628f55a4df523b3ef600080a4818160010191508103611a4b5781600081905550505050611a986000848385611356565b505050565b60006001821460e11b9050919050565b6040518060800160405280600073ffffffffffffffffffffffffffffffffffffffff168152602001600067ffffffffffffffff168152602001600015158152602001600062ffffff1681525090565b6000604051905090565b600080fd5b600080fd5b60007fffffffff0000000000000000000000000000000000000000000000000000000082169050919050565b611b4581611b10565b8114611b5057600080fd5b50565b600081359050611b6281611b3c565b92915050565b600060208284031215611b7e57611b7d611b06565b5b6000611b8c84828501611b53565b91505092915050565b60008115159050919050565b611baa81611b95565b82525050565b6000602082019050611bc56000830184611ba1565b92915050565b600081519050919050565b600082825260208201905092915050565b60005b83811015611c05578082015181840152602081019050611bea565b60008484015250505050565b6000601f19601f8301169050919050565b6000611c2d82611bcb565b611c378185611bd6565b9350611c47818560208601611be7565b611c5081611c11565b840191505092915050565b60006020820190508181036000830152611c758184611c22565b905092915050565b6000819050919050565b611c9081611c7d565b8114611c9b57600080fd5b50565b600081359050611cad81611c87565b92915050565b600060208284031215611cc957611cc8611b06565b5b6000611cd784828501611c9e565b91505092915050565b600073ffffffffffffffffffffffffffffffffffffffff82169050919050565b6000611d0b82611ce0565b9050919050565b611d1b81611d00565b82525050565b6000602082019050611d366000830184611d12565b92915050565b611d4581611d00565b8114611d5057600080fd5b50565b600081359050611d6281611d3c565b92915050565b60008060408385031215611d7f57611d7e611b06565b5b6000611d8d85828601611d53565b9250506020611d9e85828601611c9e565b9150509250929050565b611db181611c7d565b82525050565b6000602082019050611dcc6000830184611da8565b92915050565b600080600060608486031215611deb57611dea611b06565b5b6000611df986828701611d53565b9350506020611e0a86828701611d53565b9250506040611e1b86828701611c9e565b9150509250925092565b600080fd5b600080fd5b600080fd5b60008083601f840112611e4a57611e49611e25565b5b8235905067ffffffffffffffff811115611e6757611e66611e2a565b5b602083019150836020820283011115611e8357611e82611e2f565b5b9250929050565b60008060208385031215611ea157611ea0611b06565b5b600083013567ffffffffffffffff811115611ebf57611ebe611b0b565b5b611ecb85828601611e34565b92509250509250929050565b600081519050919050565b600082825260208201905092915050565b6000819050602082019050919050565b611f0c81611d00565b82525050565b600067ffffffffffffffff82169050919050565b611f2f81611f12565b82525050565b611f3e81611b95565b82525050565b600062ffffff82169050919050565b611f5c81611f44565b82525050565b608082016000820151611f786000850182611f03565b506020820151611f8b6020850182611f26565b506040820151611f9e6040850182611f35565b506060820151611fb16060850182611f53565b50505050565b6000611fc38383611f62565b60808301905092915050565b6000602082019050919050565b6000611fe782611ed7565b611ff18185611ee2565b9350611ffc83611ef3565b8060005b8381101561202d5781516120148882611fb7565b975061201f83611fcf565b925050600181019050612000565b5085935050505092915050565b600060208201905081810360008301526120548184611fdc565b905092915050565b60006020828403121561207257612071611b06565b5b600061208084828501611d53565b91505092915050565b600081519050919050565b600082825260208201905092915050565b6000819050602082019050919050565b6120be81611c7d565b82525050565b60006120d083836120b5565b60208301905092915050565b6000602082019050919050565b60006120f482612089565b6120fe8185612094565b9350612109836120a5565b8060005b8381101561213a57815161212188826120c4565b975061212c836120dc565b92505060018101905061210d565b5085935050505092915050565b6000602082019050818103600083015261216181846120e9565b905092915050565b60008060006060848603121561218257612181611b06565b5b600061219086828701611d53565b93505060206121a186828701611c9e565b92505060406121b286828701611c9e565b9150509250925092565b6121c581611b95565b81146121d057600080fd5b50565b6000813590506121e2816121bc565b92915050565b600080604083850312156121ff576121fe611b06565b5b600061220d85828601611d53565b925050602061221e858286016121d3565b9150509250929050565b600080fd5b7f4e487b7100000000000000000000000000000000000000000000000000000000600052604160045260246000fd5b61226582611c11565b810181811067ffffffffffffffff821117156122845761228361222d565b5b80604052505050565b6000612297611afc565b90506122a3828261225c565b919050565b600067ffffffffffffffff8211156122c3576122c261222d565b5b6122cc82611c11565b9050602081019050919050565b82818337600083830152505050565b60006122fb6122f6846122a8565b61228d565b90508281526020810184848401111561231757612316612228565b5b6123228482856122d9565b509392505050565b600082601f83011261233f5761233e611e25565b5b813561234f8482602086016122e8565b91505092915050565b6000806000806080858703121561237257612371611b06565b5b600061238087828801611d53565b945050602061239187828801611d53565b93505060406123a287828801611c9e565b925050606085013567ffffffffffffffff8111156123c3576123c2611b0b565b5b6123cf8782880161232a565b91505092959194509250565b6080820160008201516123f16000850182611f03565b5060208201516124046020850182611f26565b5060408201516124176040850182611f35565b50606082015161242a6060850182611f53565b50505050565b600060808201905061244560008301846123db565b92915050565b6000806040838503121561246257612461611b06565b5b600061247085828601611d53565b925050602061248185828601611d53565b9150509250929050565b7f4e487b7100000000000000000000000000000000000000000000000000000000600052602260045260246000fd5b600060028204905060018216806124d257607f821691505b6020821081036124e5576124e461248b565b5b50919050565b600081905092915050565b600061250182611bcb565b61250b81856124eb565b935061251b818560208601611be7565b80840191505092915050565b600061253382856124f6565b915061253f82846124f6565b91508190509392505050565b7f4e487b7100000000000000000000000000000000000000000000000000000000600052601160045260246000fd5b600061258582611c7d565b9150600082036125985761259761254b565b5b600182039050919050565b600081519050919050565b600082825260208201905092915050565b60006125ca826125a3565b6125d481856125ae565b93506125e4818560208601611be7565b6125ed81611c11565b840191505092915050565b600060808201905061260d6000830187611d12565b61261a6020830186611d12565b6126276040830185611da8565b818103606083015261263981846125bf565b905095945050505050565b60008151905061265381611b3c565b92915050565b60006020828403121561266f5761266e611b06565b5b600061267d84828501612644565b9150509291505056fea26469706673582212208950a13cd6a3b8e72d186fb6aeb0b6699858067ba31b160ac22d572ce42d210264736f6c63430008180033697066733a2f2f626166796265696779686f75636d63687270613269726e7576646c776e6663736a6e6e37677036716b646932776e61617237716a7068326e746f792f",
  "linkReferences": {},
  "deployedLinkReferences": {}
}