{
  "contracts/BasicNft.sol": {
    "BasicNFT": {
      "abi": [
        {
          "inputs": [],
          "stateMutability": "nonpayable",
          "type": "constructor"
        },
        {
          "inputs": [],
          "name": "ApprovalCallerNotOwnerNorApproved",
          "type": "error"
        },
        {
          "inputs": [],
          "name": "ApprovalQueryForNonexistentToken",
          "type": "error"
        },
        {
          "inputs": [],
          "name": "BalanceQueryForZeroAddress",
          "type": "error"
        },
        {
          "inputs": [],
          "name": "InvalidQueryRange",
          "type": "error"
        },
        {
          "inputs": [],
          "name": "MintERC2309QuantityExceedsLimit",
          "type": "error"
        },
        {
          "inputs": [],
          "name": "MintToZeroAddress",
          "type": "error"
        },
        {
          "inputs": [],
          "name": "MintZeroQuantity",
          "type": "error"
        },
        {
          "inputs": [],
          "name": "NotCompatibleWithSpotMints",
          "type": "error"
        },
        {
          "inputs": [],
          "name": "OwnerQueryForNonexistentToken",
          "type": "error"
        },
        {
          "inputs": [],
          "name": "OwnershipNotInitializedForExtraData",
          "type": "error"
        },
        {
          "inputs": [],
          "name": "SequentialMintExceedsLimit",
          "type": "error"
        },
        {
          "inputs": [],
          "name": "SequentialUpToTooSmall",
          "type": "error"
        },
        {
          "inputs": [],
          "name": "SpotMintTokenIdTooSmall",
          "type": "error"
        },
        {
          "inputs": [],
          "name": "TokenAlreadyExists",
          "type": "error"
        },
        {
          "inputs": [],
          "name": "TransferCallerNotOwnerNorApproved",
          "type": "error"
        },
        {
          "inputs": [],
          "name": "TransferFromIncorrectOwner",
          "type": "error"
        },
        {
          "inputs": [],
          "name": "TransferToNonERC721ReceiverImplementer",
          "type": "error"
        },
        {
          "inputs": [],
          "name": "TransferToZeroAddress",
          "type": "error"
        },
        {
          "inputs": [],
          "name": "URIQueryForNonexistentToken",
          "type": "error"
        },
        {
          "anonymous": false,
          "inputs": [
            {
              "indexed": true,
              "internalType": "address",
              "name": "owner",
              "type": "address"
            },
            {
              "indexed": true,
              "internalType": "address",
              "name": "approved",
              "type": "address"
            },
            {
              "indexed": true,
              "internalType": "uint256",
              "name": "tokenId",
              "type": "uint256"
            }
          ],
          "name": "Approval",
          "type": "event"
        },
        {
          "anonymous": false,
          "inputs": [
            {
              "indexed": true,
              "internalType": "address",
              "name": "owner",
              "type": "address"
            },
            {
              "indexed": true,
              "internalType": "address",
              "name": "operator",
              "type": "address"
            },
            {
              "indexed": false,
              "internalType": "bool",
              "name": "approved",
              "type": "bool"
            }
          ],
          "name": "ApprovalForAll",
          "type": "event"
        },
        {
          "anonymous": false,
          "inputs": [
            {
              "indexed": true,
              "internalType": "uint256",
              "name": "fromTokenId",
              "type": "uint256"
            },
            {
              "indexed": false,
              "internalType": "uint256",
              "name": "toTokenId",
              "type": "uint256"
            },
            {
              "indexed": true,
              "internalType": "address",
              "name": "from",
              "type": "address"
            },
            {
              "indexed": true,
              "internalType": "address",
              "name": "to",
              "type": "address"
            }
          ],
          "name": "ConsecutiveTransfer",
          "type": "event"
        },
        {
          "anonymous": false,
          "inputs": [
            {
              "indexed": true,
              "internalType": "address",
              "name": "from",
              "type": "address"
            },
            {
              "indexed": true,
              "internalType": "address",
              "name": "to",
              "type": "address"
            },
            {
              "indexed": true,
              "internalType": "uint256",
              "name": "tokenId",
              "type": "uint256"
            }
          ],
          "name": "Transfer",
          "type": "event"
        },
        {
          "inputs": [
            {
              "internalType": "address",
              "name": "to",
              "type": "address"
            },
            {
              "internalType": "uint256",
              "name": "tokenId",
              "type": "uint256"
            }
          ],
          "name": "approve",
          "outputs": [],
          "stateMutability": "payable",
          "type": "function"
        },
        {
          "inputs": [
            {
              "internalType": "address",
              "name": "owner",
              "type": "address"
            }
          ],
          "name": "balanceOf",
          "outputs": [
            {
              "internalType": "uint256",
              "name": "",
              "type": "uint256"
            }
          ],
          "stateMutability": "view",
          "type": "function"
        },
        {
          "inputs": [
            {
              "internalType": "uint256",
              "name": "tokenId",
              "type": "uint256"
            }
          ],
          "name": "explicitOwnershipOf",
          "outputs": [
            {
              "components": [
                {
                  "internalType": "address",
                  "name": "addr",
                  "type": "address"
                },
                {
                  "internalType": "uint64",
                  "name": "startTimestamp",
                  "type": "uint64"
                },
                {
                  "internalType": "bool",
                  "name": "burned",
                  "type": "bool"
                },
                {
                  "internalType": "uint24",
                  "name": "extraData",
                  "type": "uint24"
                }
              ],
              "internalType": "struct IERC721A.TokenOwnership",
              "name": "ownership",
              "type": "tuple"
            }
          ],
          "stateMutability": "view",
          "type": "function"
        },
        {
          "inputs": [
            {
              "internalType": "uint256[]",
              "name": "tokenIds",
              "type": "uint256[]"
            }
          ],
          "name": "explicitOwnershipsOf",
          "outputs": [
            {
              "components": [
                {
                  "internalType": "address",
                  "name": "addr",
                  "type": "address"
                },
                {
                  "internalType": "uint64",
                  "name": "startTimestamp",
                  "type": "uint64"
                },
                {
                  "internalType": "bool",
                  "name": "burned",
                  "type": "bool"
                },
                {
                  "internalType": "uint24",
                  "name": "extraData",
                  "type": "uint24"
                }
              ],
              "internalType": "struct IERC721A.TokenOwnership[]",
              "name": "",
              "type": "tuple[]"
            }
          ],
          "stateMutability": "view",
          "type": "function"
        },
        {
          "inputs": [
            {
              "internalType": "uint256",
              "name": "tokenId",
              "type": "uint256"
            }
          ],
          "name": "getApproved",
          "outputs": [
            {
              "internalType": "address",
              "name": "",
              "type": "address"
            }
          ],
          "stateMutability": "view",
          "type": "function"
        },
        {
          "inputs": [
            {
              "internalType": "address",
              "name": "owner",
              "type": "address"
            },
            {
              "internalType": "address",
              "name": "operator",
              "type": "address"
            }
          ],
          "name": "isApprovedForAll",
          "outputs": [
            {
              "internalType": "bool",
              "name": "",
              "type": "bool"
            }
          ],
          "stateMutability": "view",
          "type": "function"
        },
        {
          "inputs": [],
          "name": "name",
          "outputs": [
            {
              "internalType": "string",
              "name": "",
              "type": "string"
            }
          ],
          "stateMutability": "view",
          "type": "function"
        },
        {
          "inputs": [
            {
              "internalType": "uint256",
              "name": "tokenId",
              "type": "uint256"
            }
          ],
          "name": "ownerOf",
          "outputs": [
            {
              "internalType": "address",
              "name": "",
              "type": "address"
            }
          ],
          "stateMutability": "view",
          "type": "function"
        },
        {
          "inputs": [
            {
              "internalType": "address",
              "name": "to",
              "type": "address"
            },
            {
              "internalType": "uint256",
              "name": "quantity",
              "type": "uint256"
            }
          ],
          "name": "safeMint",
          "outputs": [],
          "stateMutability": "nonpayable",
          "type": "function"
        },
        {
          "inputs": [
            {
              "internalType": "address",
              "name": "from",
              "type": "address"
            },
            {
              "internalType": "address",
              "name": "to",
              "type": "address"
            },
            {
              "internalType": "uint256",
              "name": "tokenId",
              "type": "uint256"
            }
          ],
          "name": "safeTransferFrom",
          "outputs": [],
          "stateMutability": "payable",
          "type": "function"
        },
        {
          "inputs": [
            {
              "internalType": "address",
              "name": "from",
              "type": "address"
            },
            {
              "internalType": "address",
              "name": "to",
              "type": "address"
            },
            {
              "internalType": "uint256",
              "name": "tokenId",
              "type": "uint256"
            },
            {
              "internalType": "bytes",
              "name": "_data",
              "type": "bytes"
            }
          ],
          "name": "safeTransferFrom",
          "outputs": [],
          "stateMutability": "payable",
          "type": "function"
        },
        {
          "inputs": [
            {
              "internalType": "address",
              "name": "operator",
              "type": "address"
            },
            {
              "internalType": "bool",
              "name": "approved",
              "type": "bool"
            }
          ],
          "name": "setApprovalForAll",
          "outputs": [],
          "stateMutability": "nonpayable",
          "type": "function"
        },
        {
          "inputs": [
            {
              "internalType": "bytes4",
              "name": "interfaceId",
              "type": "bytes4"
            }
          ],
          "name": "supportsInterface",
          "outputs": [
            {
              "internalType": "bool",
              "name": "",
              "type": "bool"
            }
          ],
          "stateMutability": "view",
          "type": "function"
        },
        {
          "inputs": [],
          "name": "symbol",
          "outputs": [
            {
              "internalType": "string",
              "name": "",
              "type": "string"
            }
          ],
          "stateMutability": "view",
          "type": "function"
        },
        {
          "inputs": [
            {
              "internalType": "uint256",
              "name": "tokenId",
              "type": "uint256"
            }
          ],
          "name": "tokenURI",
          "outputs": [
            {
              "internalType": "string",
              "name": "",
              "type": "string"
            }
          ],
          "stateMutability": "view",
          "type": "function"
        },
        {
          "inputs": [
            {
              "internalType": "address",
              "name": "owner",
              "type": "address"
            }
          ],
          "name": "tokensOfOwner",
          "outputs": [
            {
              "internalType": "uint256[]",
              "name": "",
              "type": "uint256[]"
            }
          ],
          "stateMutability": "view",
          "type": "function"
        },
        {
          "inputs": [
            {
              "internalType": "address",
              "name": "owner",
              "type": "address"
            },
            {
              "internalType": "uint256",
              "name": "start",
              "type": "uint256"
            },
            {
              "internalType": "uint256",
              "name": "stop",
              "type": "uint256"
            }
          ],
          "name": "tokensOfOwnerIn",
          "outputs": [
            {
              "internalType": "uint256[]",
              "name": "",
              "type": "uint256[]"
            }
          ],
          "stateMutability": "view",
          "type": "function"
        },
        {
          "inputs": [],
          "name": "totalSupply",
          "outputs": [
            {
              "internalType": "uint256",
              "name": "result",
              "type": "uint256"
            }
          ],
          "stateMutability": "view",
          "type": "function"
        },
        {
          "inputs": [
            {
              "internalType": "address",
              "name": "from",
              "type": "address"
            },
            {
              "internalType": "address",
              "name": "to",
              "type": "address"
            },
            {
              "internalType": "uint256",
              "name": "tokenId",
              "type": "uint256"
            }
          ],
          "name": "transferFrom",
          "outputs": [],
          "stateMutability": "payable",
          "type": "function"
        }
      ],
      "evm": {
        "bytecode": {
          "linkReferences": {},
          "object": "60806040523480156200001157600080fd5b506040518060400160405280600881526020017f42617369634e46540000000000000000000000000000000000000000000000008152506040518060400160405280600481526020017f424e46540000000000000000000000000000000000000000000000000000000081525081600290816200008f9190620003b1565b508060039081620000a19190620003b1565b50620000b26200010060201b60201c565b600081905550620000c86200010060201b60201c565b620000d86200010560201b60201c565b1015620000f857620000f763fed8210f60e01b6200012d60201b60201c565b5b505062000498565b600090565b60007fffffffffffffffffffffffffffffffffffffffffffffffffffffffffffffffff905090565b8060005260046000fd5b600081519050919050565b7f4e487b7100000000000000000000000000000000000000000000000000000000600052604160045260246000fd5b7f4e487b7100000000000000000000000000000000000000000000000000000000600052602260045260246000fd5b60006002820490506001821680620001b957607f821691505b602082108103620001cf57620001ce62000171565b5b50919050565b60008190508160005260206000209050919050565b60006020601f8301049050919050565b600082821b905092915050565b600060088302620002397fffffffffffffffffffffffffffffffffffffffffffffffffffffffffffffffff82620001fa565b620002458683620001fa565b95508019841693508086168417925050509392505050565b6000819050919050565b6000819050919050565b6000620002926200028c62000286846200025d565b62000267565b6200025d565b9050919050565b6000819050919050565b620002ae8362000271565b620002c6620002bd8262000299565b84845462000207565b825550505050565b600090565b620002dd620002ce565b620002ea818484620002a3565b505050565b5b81811015620003125762000306600082620002d3565b600181019050620002f0565b5050565b601f82111562000361576200032b81620001d5565b6200033684620001ea565b8101602085101562000346578190505b6200035e6200035585620001ea565b830182620002ef565b50505b505050565b600082821c905092915050565b6000620003866000198460080262000366565b1980831691505092915050565b6000620003a1838362000373565b9150826002028217905092915050565b620003bc8262000137565b67ffffffffffffffff811115620003d857620003d762000142565b5b620003e48254620001a0565b620003f182828562000316565b600060209050601f83116001811462000429576000841562000414578287015190505b62000420858262000393565b86555062000490565b601f1984166200043986620001d5565b60005b8281101562000463578489015182556001820191506020850194506020810190506200043c565b868310156200048357848901516200047f601f89168262000373565b8355505b6001600288020188555050505b505050505050565b61257d80620004a86000396000f3fe6080604052600436106101145760003560e01c806370a08231116100a0578063a22cb46511610064578063a22cb465146103c2578063b88d4fde146103eb578063c23dc68f14610407578063c87b56dd14610444578063e985e9c51461048157610114565b806370a08231146102b75780638462151c146102f457806395d89b411461033157806399a2557a1461035c578063a14481941461039957610114565b806318160ddd116100e757806318160ddd146101da57806323b872dd1461020557806342842e0e146102215780635bbb21771461023d5780636352211e1461027a57610114565b806301ffc9a71461011957806306fdde0314610156578063081812fc14610181578063095ea7b3146101be575b600080fd5b34801561012557600080fd5b50610140600480360381019061013b9190611a29565b6104be565b60405161014d9190611a71565b60405180910390f35b34801561016257600080fd5b5061016b610550565b6040516101789190611b1c565b60405180910390f35b34801561018d57600080fd5b506101a860048036038101906101a39190611b74565b6105e2565b6040516101b59190611be2565b60405180910390f35b6101d860048036038101906101d39190611c29565b610640565b005b3480156101e657600080fd5b506101ef610650565b6040516101fc9190611c78565b60405180910390f35b61021f600480360381019061021a9190611c93565b61069d565b005b61023b60048036038101906102369190611c93565b61095e565b005b34801561024957600080fd5b50610264600480360381019061025f9190611d4b565b61097e565b6040516102719190611efb565b60405180910390f35b34801561028657600080fd5b506102a1600480360381019061029c9190611b74565b6109de565b6040516102ae9190611be2565b60405180910390f35b3480156102c357600080fd5b506102de60048036038101906102d99190611f1d565b6109f0565b6040516102eb9190611c78565b60405180910390f35b34801561030057600080fd5b5061031b60048036038101906103169190611f1d565b610a87565b6040516103289190612008565b60405180910390f35b34801561033d57600080fd5b50610346610b02565b6040516103539190611b1c565b60405180910390f35b34801561036857600080fd5b50610383600480360381019061037e919061202a565b610b94565b6040516103909190612008565b60405180910390f35b3480156103a557600080fd5b506103c060048036038101906103bb9190611c29565b610baa565b005b3480156103ce57600080fd5b506103e960048036038101906103e491906120a9565b610bb8565b005b61040560048036038101906104009190612219565b610cc3565b005b34801561041357600080fd5b5061042e60048036038101906104299190611b74565b610d15565b60405161043b91906122f1565b60405180910390f35b34801561045057600080fd5b5061046b60048036038101906104669190611b74565b610d8a565b6040516104789190611b1c565b60405180910390f35b34801561048d57600080fd5b506104a860048036038101906104a3919061230c565b610e07565b6040516104b59190611a71565b60405180910390f35b60006301ffc9a760e01b827bffffffffffffffffffffffffffffffffffffffffffffffffffffffff1916148061051957506380ac58cd60e01b827bffffffffffffffffffffffffffffffffffffffffffffffffffffffff1916145b806105495750635b5e139f60e01b827bffffffffffffffffffffffffffffffffffffffffffffffffffffffff1916145b9050919050565b60606002805461055f9061237b565b80601f016020809104026020016040519081016040528092919081815260200182805461058b9061237b565b80156105d85780601f106105ad576101008083540402835291602001916105d8565b820191906000526020600020905b8154815290600101906020018083116105bb57829003601f168201915b5050505050905090565b60006105ed82610e9b565b6106025761060163cf4700e460e01b610f47565b5b6006600083815260200190815260200160002060000160009054906101000a900473ffffffffffffffffffffffffffffffffffffffff169050919050565b61064c82826001610f51565b5050565b600061065a611080565b600154600054030390507fffffffffffffffffffffffffffffffffffffffffffffffffffffffffffffffff61068d611085565b1461069a57600854810190505b90565b60006106a8826110ad565b905073ffffffffffffffffffffffffffffffffffffffff8473ffffffffffffffffffffffffffffffffffffffff161693508373ffffffffffffffffffffffffffffffffffffffff168173ffffffffffffffffffffffffffffffffffffffff161461071d5761071c63a114810060e01b610f47565b5b600080610729846111c6565b9150915061073f818761073a6111ed565b6111f5565b61076a576107548661074f6111ed565b610e07565b610769576107686359c896be60e01b610f47565b5b5b6107778686866001611239565b801561078257600082555b600560008773ffffffffffffffffffffffffffffffffffffffff1673ffffffffffffffffffffffffffffffffffffffff168152602001908152602001600020600081546001900391905081905550600560008673ffffffffffffffffffffffffffffffffffffffff1673ffffffffffffffffffffffffffffffffffffffff16815260200190815260200160002060008154600101919050819055506108508561082c88888761123f565b7c020000000000000000000000000000000000000000000000000000000017611267565b600460008681526020019081526020016000208190555060007c02000000000000000000000000000000000000000000000000000000008416036108d657600060018501905060006004600083815260200190815260200160002054036108d45760005481146108d3578360046000838152602001908152602001600020819055505b5b505b600073ffffffffffffffffffffffffffffffffffffffff8673ffffffffffffffffffffffffffffffffffffffff161690508481887fddf252ad1be2c89b69c2b068fc378daa952ba7f163c4a11628f55a4df523b3ef600080a4600081036109485761094763ea553b3460e01b610f47565b5b6109558787876001611292565b50505050505050565b61097983838360405180602001604052806000815250610cc3565b505050565b606080600084849050905060405191508082528060051b90508060208301016040525b600081146109d357600060208203915081860135905060006109c282610d15565b9050808360208601015250506109a1565b819250505092915050565b60006109e9826110ad565b9050919050565b60008073ffffffffffffffffffffffffffffffffffffffff168273ffffffffffffffffffffffffffffffffffffffff1603610a3657610a35638f4eb60460e01b610f47565b5b67ffffffffffffffff600560008473ffffffffffffffffffffffffffffffffffffffff1673ffffffffffffffffffffffffffffffffffffffff16815260200190815260200160002054169050919050565b60607fffffffffffffffffffffffffffffffffffffffffffffffffffffffffffffffff610ab2611085565b14610ac857610ac763bdba09d760e01b610f47565b5b6000610ad2611080565b90506000610ade611298565b90506060818314610af757610af48584846112a1565b90505b809350505050919050565b606060038054610b119061237b565b80601f0160208091040260200160405190810160405280929190818152602001828054610b3d9061237b565b8015610b8a5780601f10610b5f57610100808354040283529160200191610b8a565b820191906000526020600020905b815481529060010190602001808311610b6d57829003601f168201915b5050505050905090565b6060610ba18484846112a1565b90509392505050565b610bb4828261145d565b5050565b8060076000610bc56111ed565b73ffffffffffffffffffffffffffffffffffffffff1673ffffffffffffffffffffffffffffffffffffffff16815260200190815260200160002060008473ffffffffffffffffffffffffffffffffffffffff1673ffffffffffffffffffffffffffffffffffffffff16815260200190815260200160002060006101000a81548160ff0219169083151502179055508173ffffffffffffffffffffffffffffffffffffffff16610c726111ed565b73ffffffffffffffffffffffffffffffffffffffff167f17307eab39ab6107e8899845ad3d59bd9653f200f220920489ca2b5937696c3183604051610cb79190611a71565b60405180910390a35050565b610cce84848461069d565b60008373ffffffffffffffffffffffffffffffffffffffff163b14610d0f57610cf98484848461147b565b610d0e57610d0d63d1a57ed660e01b610f47565b5b5b50505050565b610d1d61196e565b610d25611080565b8210610d8457610d33611085565b821115610d4a57610d43826115aa565b9050610d85565b610d52611298565b821015610d83575b610d63826115d5565b610d735781600190039150610d5a565b610d7c826115aa565b9050610d85565b5b5b919050565b6060610d9582610e9b565b610daa57610da963a14c4b5060e01b610f47565b5b6000610db46115f5565b90506000815103610dd45760405180602001604052806000815250610dff565b80610dde8461160c565b604051602001610def9291906123e8565b6040516020818303038152906040525b915050919050565b6000600760008473ffffffffffffffffffffffffffffffffffffffff1673ffffffffffffffffffffffffffffffffffffffff16815260200190815260200160002060008373ffffffffffffffffffffffffffffffffffffffff1673ffffffffffffffffffffffffffffffffffffffff16815260200190815260200160002060009054906101000a900460ff16905092915050565b600081610ea6611080565b11610f4157610eb3611085565b821115610edd57610ed6600460008481526020019081526020016000205461165c565b9050610f42565b600054821015610f405760005b6000600460008581526020019081526020016000205491508103610f195782610f129061243b565b9250610eea565b60007c01000000000000000000000000000000000000000000000000000000008216149150505b5b5b919050565b8060005260046000fd5b6000610f5c836109de565b9050818015610f9e57508073ffffffffffffffffffffffffffffffffffffffff16610f856111ed565b73ffffffffffffffffffffffffffffffffffffffff1614155b15610fca57610fb481610faf6111ed565b610e07565b610fc957610fc863cfb3b94260e01b610f47565b5b5b836006600085815260200190815260200160002060000160006101000a81548173ffffffffffffffffffffffffffffffffffffffff021916908373ffffffffffffffffffffffffffffffffffffffff160217905550828473ffffffffffffffffffffffffffffffffffffffff168273ffffffffffffffffffffffffffffffffffffffff167f8c5be1e5ebec7d5bd14f71427d1e84f3dd0314c0f7b2291e5b200ac8c7c3b92560405160405180910390a450505050565b600090565b60007fffffffffffffffffffffffffffffffffffffffffffffffffffffffffffffffff905090565b6000816110b8611080565b116111b057600460008381526020019081526020016000205490506110db611085565b821115611100576110eb8161165c565b6111c1576110ff63df2d9b4260e01b610f47565b5b600081036111875760005482106111225761112163df2d9b4260e01b610f47565b5b5b600460008360019003935083815260200190815260200160002054905060008103156111825760007c0100000000000000000000000000000000000000000000000000000000821603156111c15761118163df2d9b4260e01b610f47565b5b611123565b60007c0100000000000000000000000000000000000000000000000000000000821603156111c1575b6111c063df2d9b4260e01b610f47565b5b919050565b60008060006006600085815260200190815260200160002090508092508254915050915091565b600033905090565b600073ffffffffffffffffffffffffffffffffffffffff8316925073ffffffffffffffffffffffffffffffffffffffff821691508382148383141790509392505050565b50505050565b60008060e883901c905060e861125686868461169d565b62ffffff16901b9150509392505050565b600073ffffffffffffffffffffffffffffffffffffffff83169250814260a01b178317905092915050565b50505050565b60008054905090565b60608183106112bb576112ba6332c1995a60e01b610f47565b5b6112c3611080565b8310156112d5576112d2611080565b92505b60006112df611298565b905060007fffffffffffffffffffffffffffffffffffffffffffffffffffffffffffffffff61130c611085565b036113175781611319565b835b9050808410611326578093505b6000611331876109f0565b905084861061133f57600090505b600081146114535780868603116113565785850390505b600060405194506001820160051b8501905080604052600061137788610d15565b90506000816040015161138c57816000015190505b60005b7fffffffffffffffffffffffffffffffffffffffffffffffffffffffffffffffff6113b8611085565b146113e757868a036113d25760016113ce611085565b0199505b6113da611085565b8a11156113e657600091505b5b6113f08a6115aa565b9250604083015160008114611408576000925061142e565b83511561141457835192505b8b831860601b61142d576001820191508a8260051b8a01525b5b5060018a01995083604052888a148061144657508481145b1561138f57808852505050505b5050509392505050565b6114778282604051806020016040528060008152506116a6565b5050565b60008373ffffffffffffffffffffffffffffffffffffffff1663150b7a026114a16111ed565b8786866040518563ffffffff1660e01b81526004016114c394939291906124b9565b6020604051808303816000875af19250505080156114ff57506040513d601f19601f820116820180604052508101906114fc919061251a565b60015b611557573d806000811461152f576040519150601f19603f3d011682016040523d82523d6000602084013e611534565b606091505b50600081510361154f5761154e63d1a57ed660e01b610f47565b5b805181602001fd5b63150b7a0260e01b7bffffffffffffffffffffffffffffffffffffffffffffffffffffffff1916817bffffffffffffffffffffffffffffffffffffffffffffffffffffffff191614915050949350505050565b6115b261196e565b6115ce6004600084815260200190815260200160002054611722565b9050919050565b600080600460008481526020019081526020016000205414159050919050565b606060405180602001604052806000815250905090565b606060a060405101806040526020810391506000825281835b60011561164757600184039350600a81066030018453600a8104905080611625575b50828103602084039350808452505050919050565b60007c0100000000000000000000000000000000000000000000000000000000821673ffffffffffffffffffffffffffffffffffffffff8316119050919050565b60009392505050565b6116b083836117d8565b60008373ffffffffffffffffffffffffffffffffffffffff163b1461171d57600080549050600083820390505b6116f0600086838060010194508661147b565b6117055761170463d1a57ed660e01b610f47565b5b8181106116dd57816000541461171a57600080fd5b50505b505050565b61172a61196e565b81816000019073ffffffffffffffffffffffffffffffffffffffff16908173ffffffffffffffffffffffffffffffffffffffff168152505060a082901c816020019067ffffffffffffffff16908167ffffffffffffffff168152505060007c01000000000000000000000000000000000000000000000000000000008316141581604001901515908115158152505060e882901c816060019062ffffff16908162ffffff1681525050919050565b600080549050600082036117f7576117f663b562e8dd60e01b610f47565b5b6118046000848385611239565b61182483611815600086600061123f565b61181e8561195e565b17611267565b6004600083815260200190815260200160002081905550600160406001901b178202600560008573ffffffffffffffffffffffffffffffffffffffff1673ffffffffffffffffffffffffffffffffffffffff16815260200190815260200160002060008282540192505081905550600073ffffffffffffffffffffffffffffffffffffffff8473ffffffffffffffffffffffffffffffffffffffff16169050600081036118dc576118db632e07630060e01b610f47565b5b6000838301905060008390506118f0611085565b60018303111561190b5761190a6381647e3a60e01b610f47565b5b5b808360007fddf252ad1be2c89b69c2b068fc378daa952ba7f163c4a11628f55a4df523b3ef600080a481816001019150810361190c57816000819055505050506119596000848385611292565b505050565b60006001821460e11b9050919050565b6040518060800160405280600073ffffffffffffffffffffffffffffffffffffffff168152602001600067ffffffffffffffff168152602001600015158152602001600062ffffff1681525090565b6000604051905090565b600080fd5b600080fd5b60007fffffffff0000000000000000000000000000000000000000000000000000000082169050919050565b611a06816119d1565b8114611a1157600080fd5b50565b600081359050611a23816119fd565b92915050565b600060208284031215611a3f57611a3e6119c7565b5b6000611a4d84828501611a14565b91505092915050565b60008115159050919050565b611a6b81611a56565b82525050565b6000602082019050611a866000830184611a62565b92915050565b600081519050919050565b600082825260208201905092915050565b60005b83811015611ac6578082015181840152602081019050611aab565b60008484015250505050565b6000601f19601f8301169050919050565b6000611aee82611a8c565b611af88185611a97565b9350611b08818560208601611aa8565b611b1181611ad2565b840191505092915050565b60006020820190508181036000830152611b368184611ae3565b905092915050565b6000819050919050565b611b5181611b3e565b8114611b5c57600080fd5b50565b600081359050611b6e81611b48565b92915050565b600060208284031215611b8a57611b896119c7565b5b6000611b9884828501611b5f565b91505092915050565b600073ffffffffffffffffffffffffffffffffffffffff82169050919050565b6000611bcc82611ba1565b9050919050565b611bdc81611bc1565b82525050565b6000602082019050611bf76000830184611bd3565b92915050565b611c0681611bc1565b8114611c1157600080fd5b50565b600081359050611c2381611bfd565b92915050565b60008060408385031215611c4057611c3f6119c7565b5b6000611c4e85828601611c14565b9250506020611c5f85828601611b5f565b9150509250929050565b611c7281611b3e565b82525050565b6000602082019050611c8d6000830184611c69565b92915050565b600080600060608486031215611cac57611cab6119c7565b5b6000611cba86828701611c14565b9350506020611ccb86828701611c14565b9250506040611cdc86828701611b5f565b9150509250925092565b600080fd5b600080fd5b600080fd5b60008083601f840112611d0b57611d0a611ce6565b5b8235905067ffffffffffffffff811115611d2857611d27611ceb565b5b602083019150836020820283011115611d4457611d43611cf0565b5b9250929050565b60008060208385031215611d6257611d616119c7565b5b600083013567ffffffffffffffff811115611d8057611d7f6119cc565b5b611d8c85828601611cf5565b92509250509250929050565b600081519050919050565b600082825260208201905092915050565b6000819050602082019050919050565b611dcd81611bc1565b82525050565b600067ffffffffffffffff82169050919050565b611df081611dd3565b82525050565b611dff81611a56565b82525050565b600062ffffff82169050919050565b611e1d81611e05565b82525050565b608082016000820151611e396000850182611dc4565b506020820151611e4c6020850182611de7565b506040820151611e5f6040850182611df6565b506060820151611e726060850182611e14565b50505050565b6000611e848383611e23565b60808301905092915050565b6000602082019050919050565b6000611ea882611d98565b611eb28185611da3565b9350611ebd83611db4565b8060005b83811015611eee578151611ed58882611e78565b9750611ee083611e90565b925050600181019050611ec1565b5085935050505092915050565b60006020820190508181036000830152611f158184611e9d565b905092915050565b600060208284031215611f3357611f326119c7565b5b6000611f4184828501611c14565b91505092915050565b600081519050919050565b600082825260208201905092915050565b6000819050602082019050919050565b611f7f81611b3e565b82525050565b6000611f918383611f76565b60208301905092915050565b6000602082019050919050565b6000611fb582611f4a565b611fbf8185611f55565b9350611fca83611f66565b8060005b83811015611ffb578151611fe28882611f85565b9750611fed83611f9d565b925050600181019050611fce565b5085935050505092915050565b600060208201905081810360008301526120228184611faa565b905092915050565b600080600060608486031215612043576120426119c7565b5b600061205186828701611c14565b935050602061206286828701611b5f565b925050604061207386828701611b5f565b9150509250925092565b61208681611a56565b811461209157600080fd5b50565b6000813590506120a38161207d565b92915050565b600080604083850312156120c0576120bf6119c7565b5b60006120ce85828601611c14565b92505060206120df85828601612094565b9150509250929050565b600080fd5b7f4e487b7100000000000000000000000000000000000000000000000000000000600052604160045260246000fd5b61212682611ad2565b810181811067ffffffffffffffff82111715612145576121446120ee565b5b80604052505050565b60006121586119bd565b9050612164828261211d565b919050565b600067ffffffffffffffff821115612184576121836120ee565b5b61218d82611ad2565b9050602081019050919050565b82818337600083830152505050565b60006121bc6121b784612169565b61214e565b9050828152602081018484840111156121d8576121d76120e9565b5b6121e384828561219a565b509392505050565b600082601f830112612200576121ff611ce6565b5b81356122108482602086016121a9565b91505092915050565b60008060008060808587031215612233576122326119c7565b5b600061224187828801611c14565b945050602061225287828801611c14565b935050604061226387828801611b5f565b925050606085013567ffffffffffffffff811115612284576122836119cc565b5b612290878288016121eb565b91505092959194509250565b6080820160008201516122b26000850182611dc4565b5060208201516122c56020850182611de7565b5060408201516122d86040850182611df6565b5060608201516122eb6060850182611e14565b50505050565b6000608082019050612306600083018461229c565b92915050565b60008060408385031215612323576123226119c7565b5b600061233185828601611c14565b925050602061234285828601611c14565b9150509250929050565b7f4e487b7100000000000000000000000000000000000000000000000000000000600052602260045260246000fd5b6000600282049050600182168061239357607f821691505b6020821081036123a6576123a561234c565b5b50919050565b600081905092915050565b60006123c282611a8c565b6123cc81856123ac565b93506123dc818560208601611aa8565b80840191505092915050565b60006123f482856123b7565b915061240082846123b7565b91508190509392505050565b7f4e487b7100000000000000000000000000000000000000000000000000000000600052601160045260246000fd5b600061244682611b3e565b9150600082036124595761245861240c565b5b600182039050919050565b600081519050919050565b600082825260208201905092915050565b600061248b82612464565b612495818561246f565b93506124a5818560208601611aa8565b6124ae81611ad2565b840191505092915050565b60006080820190506124ce6000830187611bd3565b6124db6020830186611bd3565b6124e86040830185611c69565b81810360608301526124fa8184612480565b905095945050505050565b600081519050612514816119fd565b92915050565b6000602082840312156125305761252f6119c7565b5b600061253e84828501612505565b9150509291505056fea2646970667358221220ec060c59d342f100e80042ca269ab60e56980d214d20417d7deb66c180c14a5b64736f6c63430008180033",
          "opcodes": "PUSH1 0x80 PUSH1 0x40 MSTORE CALLVALUE DUP1 ISZERO PUSH3 0x11 JUMPI PUSH1 0x0 DUP1 REVERT JUMPDEST POP PUSH1 0x40 MLOAD DUP1 PUSH1 0x40 ADD PUSH1 0x40 MSTORE DUP1 PUSH1 0x8 DUP2 MSTORE PUSH1 0x20 ADD PUSH32 0x42617369634E4654000000000000000000000000000000000000000000000000 DUP2 MSTORE POP PUSH1 0x40 MLOAD DUP1 PUSH1 0x40 ADD PUSH1 0x40 MSTORE DUP1 PUSH1 0x4 DUP2 MSTORE PUSH1 0x20 ADD PUSH32 0x424E465400000000000000000000000000000000000000000000000000000000 DUP2 MSTORE POP DUP2 PUSH1 0x2 SWAP1 DUP2 PUSH3 0x8F SWAP2 SWAP1 PUSH3 0x3B1 JUMP JUMPDEST POP DUP1 PUSH1 0x3 SWAP1 DUP2 PUSH3 0xA1 SWAP2 SWAP1 PUSH3 0x3B1 JUMP JUMPDEST POP PUSH3 0xB2 PUSH3 0x100 PUSH1 0x20 SHL PUSH1 0x20 SHR JUMP JUMPDEST PUSH1 0x0 DUP2 SWAP1 SSTORE POP PUSH3 0xC8 PUSH3 0x100 PUSH1 0x20 SHL PUSH1 0x20 SHR JUMP JUMPDEST PUSH3 0xD8 PUSH3 0x105 PUSH1 0x20 SHL PUSH1 0x20 SHR JUMP JUMPDEST LT ISZERO PUSH3 0xF8 JUMPI PUSH3 0xF7 PUSH4 0xFED8210F PUSH1 0xE0 SHL PUSH3 0x12D PUSH1 0x20 SHL PUSH1 0x20 SHR JUMP JUMPDEST JUMPDEST POP POP PUSH3 0x498 JUMP JUMPDEST PUSH1 0x0 SWAP1 JUMP JUMPDEST PUSH1 0x0 PUSH32 0xFFFFFFFFFFFFFFFFFFFFFFFFFFFFFFFFFFFFFFFFFFFFFFFFFFFFFFFFFFFFFFFF SWAP1 POP SWAP1 JUMP JUMPDEST DUP1 PUSH1 0x0 MSTORE PUSH1 0x4 PUSH1 0x0 REVERT JUMPDEST PUSH1 0x0 DUP2 MLOAD SWAP1 POP SWAP2 SWAP1 POP JUMP JUMPDEST PUSH32 0x4E487B7100000000000000000000000000000000000000000000000000000000 PUSH1 0x0 MSTORE PUSH1 0x41 PUSH1 0x4 MSTORE PUSH1 0x24 PUSH1 0x0 REVERT JUMPDEST PUSH32 0x4E487B7100000000000000000000000000000000000000000000000000000000 PUSH1 0x0 MSTORE PUSH1 0x22 PUSH1 0x4 MSTORE PUSH1 0x24 PUSH1 0x0 REVERT JUMPDEST PUSH1 0x0 PUSH1 0x2 DUP3 DIV SWAP1 POP PUSH1 0x1 DUP3 AND DUP1 PUSH3 0x1B9 JUMPI PUSH1 0x7F DUP3 AND SWAP2 POP JUMPDEST PUSH1 0x20 DUP3 LT DUP2 SUB PUSH3 0x1CF JUMPI PUSH3 0x1CE PUSH3 0x171 JUMP JUMPDEST JUMPDEST POP SWAP2 SWAP1 POP JUMP JUMPDEST PUSH1 0x0 DUP2 SWAP1 POP DUP2 PUSH1 0x0 MSTORE PUSH1 0x20 PUSH1 0x0 KECCAK256 SWAP1 POP SWAP2 SWAP1 POP JUMP JUMPDEST PUSH1 0x0 PUSH1 0x20 PUSH1 0x1F DUP4 ADD DIV SWAP1 POP SWAP2 SWAP1 POP JUMP JUMPDEST PUSH1 0x0 DUP3 DUP3 SHL SWAP1 POP SWAP3 SWAP2 POP POP JUMP JUMPDEST PUSH1 0x0 PUSH1 0x8 DUP4 MUL PUSH3 0x239 PUSH32 0xFFFFFFFFFFFFFFFFFFFFFFFFFFFFFFFFFFFFFFFFFFFFFFFFFFFFFFFFFFFFFFFF DUP3 PUSH3 0x1FA JUMP JUMPDEST PUSH3 0x245 DUP7 DUP4 PUSH3 0x1FA JUMP JUMPDEST SWAP6 POP DUP1 NOT DUP5 AND SWAP4 POP DUP1 DUP7 AND DUP5 OR SWAP3 POP POP POP SWAP4 SWAP3 POP POP POP JUMP JUMPDEST PUSH1 0x0 DUP2 SWAP1 POP SWAP2 SWAP1 POP JUMP JUMPDEST PUSH1 0x0 DUP2 SWAP1 POP SWAP2 SWAP1 POP JUMP JUMPDEST PUSH1 0x0 PUSH3 0x292 PUSH3 0x28C PUSH3 0x286 DUP5 PUSH3 0x25D JUMP JUMPDEST PUSH3 0x267 JUMP JUMPDEST PUSH3 0x25D JUMP JUMPDEST SWAP1 POP SWAP2 SWAP1 POP JUMP JUMPDEST PUSH1 0x0 DUP2 SWAP1 POP SWAP2 SWAP1 POP JUMP JUMPDEST PUSH3 0x2AE DUP4 PUSH3 0x271 JUMP JUMPDEST PUSH3 0x2C6 PUSH3 0x2BD DUP3 PUSH3 0x299 JUMP JUMPDEST DUP5 DUP5 SLOAD PUSH3 0x207 JUMP JUMPDEST DUP3 SSTORE POP POP POP POP JUMP JUMPDEST PUSH1 0x0 SWAP1 JUMP JUMPDEST PUSH3 0x2DD PUSH3 0x2CE JUMP JUMPDEST PUSH3 0x2EA DUP2 DUP5 DUP5 PUSH3 0x2A3 JUMP JUMPDEST POP POP POP JUMP JUMPDEST JUMPDEST DUP2 DUP2 LT ISZERO PUSH3 0x312 JUMPI PUSH3 0x306 PUSH1 0x0 DUP3 PUSH3 0x2D3 JUMP JUMPDEST PUSH1 0x1 DUP2 ADD SWAP1 POP PUSH3 0x2F0 JUMP JUMPDEST POP POP JUMP JUMPDEST PUSH1 0x1F DUP3 GT ISZERO PUSH3 0x361 JUMPI PUSH3 0x32B DUP2 PUSH3 0x1D5 JUMP JUMPDEST PUSH3 0x336 DUP5 PUSH3 0x1EA JUMP JUMPDEST DUP2 ADD PUSH1 0x20 DUP6 LT ISZERO PUSH3 0x346 JUMPI DUP2 SWAP1 POP JUMPDEST PUSH3 0x35E PUSH3 0x355 DUP6 PUSH3 0x1EA JUMP JUMPDEST DUP4 ADD DUP3 PUSH3 0x2EF JUMP JUMPDEST POP POP JUMPDEST POP POP POP JUMP JUMPDEST PUSH1 0x0 DUP3 DUP3 SHR SWAP1 POP SWAP3 SWAP2 POP POP JUMP JUMPDEST PUSH1 0x0 PUSH3 0x386 PUSH1 0x0 NOT DUP5 PUSH1 0x8 MUL PUSH3 0x366 JUMP JUMPDEST NOT DUP1 DUP4 AND SWAP2 POP POP SWAP3 SWAP2 POP POP JUMP JUMPDEST PUSH1 0x0 PUSH3 0x3A1 DUP4 DUP4 PUSH3 0x373 JUMP JUMPDEST SWAP2 POP DUP3 PUSH1 0x2 MUL DUP3 OR SWAP1 POP SWAP3 SWAP2 POP POP JUMP JUMPDEST PUSH3 0x3BC DUP3 PUSH3 0x137 JUMP JUMPDEST PUSH8 0xFFFFFFFFFFFFFFFF DUP2 GT ISZERO PUSH3 0x3D8 JUMPI PUSH3 0x3D7 PUSH3 0x142 JUMP JUMPDEST JUMPDEST PUSH3 0x3E4 DUP3 SLOAD PUSH3 0x1A0 JUMP JUMPDEST PUSH3 0x3F1 DUP3 DUP3 DUP6 PUSH3 0x316 JUMP JUMPDEST PUSH1 0x0 PUSH1 0x20 SWAP1 POP PUSH1 0x1F DUP4 GT PUSH1 0x1 DUP2 EQ PUSH3 0x429 JUMPI PUSH1 0x0 DUP5 ISZERO PUSH3 0x414 JUMPI DUP3 DUP8 ADD MLOAD SWAP1 POP JUMPDEST PUSH3 0x420 DUP6 DUP3 PUSH3 0x393 JUMP JUMPDEST DUP7 SSTORE POP PUSH3 0x490 JUMP JUMPDEST PUSH1 0x1F NOT DUP5 AND PUSH3 0x439 DUP7 PUSH3 0x1D5 JUMP JUMPDEST PUSH1 0x0 JUMPDEST DUP3 DUP2 LT ISZERO PUSH3 0x463 JUMPI DUP5 DUP10 ADD MLOAD DUP3 SSTORE PUSH1 0x1 DUP3 ADD SWAP2 POP PUSH1 0x20 DUP6 ADD SWAP5 POP PUSH1 0x20 DUP2 ADD SWAP1 POP PUSH3 0x43C JUMP JUMPDEST DUP7 DUP4 LT ISZERO PUSH3 0x483 JUMPI DUP5 DUP10 ADD MLOAD PUSH3 0x47F PUSH1 0x1F DUP10 AND DUP3 PUSH3 0x373 JUMP JUMPDEST DUP4 SSTORE POP JUMPDEST PUSH1 0x1 PUSH1 0x2 DUP9 MUL ADD DUP9 SSTORE POP POP POP JUMPDEST POP POP POP POP POP POP JUMP JUMPDEST PUSH2 0x257D DUP1 PUSH3 0x4A8 PUSH1 0x0 CODECOPY PUSH1 0x0 RETURN INVALID PUSH1 0x80 PUSH1 0x40 MSTORE PUSH1 0x4 CALLDATASIZE LT PUSH2 0x114 JUMPI PUSH1 0x0 CALLDATALOAD PUSH1 0xE0 SHR DUP1 PUSH4 0x70A08231 GT PUSH2 0xA0 JUMPI DUP1 PUSH4 0xA22CB465 GT PUSH2 0x64 JUMPI DUP1 PUSH4 0xA22CB465 EQ PUSH2 0x3C2 JUMPI DUP1 PUSH4 0xB88D4FDE EQ PUSH2 0x3EB JUMPI DUP1 PUSH4 0xC23DC68F EQ PUSH2 0x407 JUMPI DUP1 PUSH4 0xC87B56DD EQ PUSH2 0x444 JUMPI DUP1 PUSH4 0xE985E9C5 EQ PUSH2 0x481 JUMPI PUSH2 0x114 JUMP JUMPDEST DUP1 PUSH4 0x70A08231 EQ PUSH2 0x2B7 JUMPI DUP1 PUSH4 0x8462151C EQ PUSH2 0x2F4 JUMPI DUP1 PUSH4 0x95D89B41 EQ PUSH2 0x331 JUMPI DUP1 PUSH4 0x99A2557A EQ PUSH2 0x35C JUMPI DUP1 PUSH4 0xA1448194 EQ PUSH2 0x399 JUMPI PUSH2 0x114 JUMP JUMPDEST DUP1 PUSH4 0x18160DDD GT PUSH2 0xE7 JUMPI DUP1 PUSH4 0x18160DDD EQ PUSH2 0x1DA JUMPI DUP1 PUSH4 0x23B872DD EQ PUSH2 0x205 JUMPI DUP1 PUSH4 0x42842E0E EQ PUSH2 0x221 JUMPI DUP1 PUSH4 0x5BBB2177 EQ PUSH2 0x23D JUMPI DUP1 PUSH4 0x6352211E EQ PUSH2 0x27A JUMPI PUSH2 0x114 JUMP JUMPDEST DUP1 PUSH4 0x1FFC9A7 EQ PUSH2 0x119 JUMPI DUP1 PUSH4 0x6FDDE03 EQ PUSH2 0x156 JUMPI DUP1 PUSH4 0x81812FC EQ PUSH2 0x181 JUMPI DUP1 PUSH4 0x95EA7B3 EQ PUSH2 0x1BE JUMPI JUMPDEST PUSH1 0x0 DUP1 REVERT JUMPDEST CALLVALUE DUP1 ISZERO PUSH2 0x125 JUMPI PUSH1 0x0 DUP1 REVERT JUMPDEST POP PUSH2 0x140 PUSH1 0x4 DUP1 CALLDATASIZE SUB DUP2 ADD SWAP1 PUSH2 0x13B SWAP2 SWAP1 PUSH2 0x1A29 JUMP JUMPDEST PUSH2 0x4BE JUMP JUMPDEST PUSH1 0x40 MLOAD PUSH2 0x14D SWAP2 SWAP1 PUSH2 0x1A71 JUMP JUMPDEST PUSH1 0x40 MLOAD DUP1 SWAP2 SUB SWAP1 RETURN JUMPDEST CALLVALUE DUP1 ISZERO PUSH2 0x162 JUMPI PUSH1 0x0 DUP1 REVERT JUMPDEST POP PUSH2 0x16B PUSH2 0x550 JUMP JUMPDEST PUSH1 0x40 MLOAD PUSH2 0x178 SWAP2 SWAP1 PUSH2 0x1B1C JUMP JUMPDEST PUSH1 0x40 MLOAD DUP1 SWAP2 SUB SWAP1 RETURN JUMPDEST CALLVALUE DUP1 ISZERO PUSH2 0x18D JUMPI PUSH1 0x0 DUP1 REVERT JUMPDEST POP PUSH2 0x1A8 PUSH1 0x4 DUP1 CALLDATASIZE SUB DUP2 ADD SWAP1 PUSH2 0x1A3 SWAP2 SWAP1 PUSH2 0x1B74 JUMP JUMPDEST PUSH2 0x5E2 JUMP JUMPDEST PUSH1 0x40 MLOAD PUSH2 0x1B5 SWAP2 SWAP1 PUSH2 0x1BE2 JUMP JUMPDEST PUSH1 0x40 MLOAD DUP1 SWAP2 SUB SWAP1 RETURN JUMPDEST PUSH2 0x1D8 PUSH1 0x4 DUP1 CALLDATASIZE SUB DUP2 ADD SWAP1 PUSH2 0x1D3 SWAP2 SWAP1 PUSH2 0x1C29 JUMP JUMPDEST PUSH2 0x640 JUMP JUMPDEST STOP JUMPDEST CALLVALUE DUP1 ISZERO PUSH2 0x1E6 JUMPI PUSH1 0x0 DUP1 REVERT JUMPDEST POP PUSH2 0x1EF PUSH2 0x650 JUMP JUMPDEST PUSH1 0x40 MLOAD PUSH2 0x1FC SWAP2 SWAP1 PUSH2 0x1C78 JUMP JUMPDEST PUSH1 0x40 MLOAD DUP1 SWAP2 SUB SWAP1 RETURN JUMPDEST PUSH2 0x21F PUSH1 0x4 DUP1 CALLDATASIZE SUB DUP2 ADD SWAP1 PUSH2 0x21A SWAP2 SWAP1 PUSH2 0x1C93 JUMP JUMPDEST PUSH2 0x69D JUMP JUMPDEST STOP JUMPDEST PUSH2 0x23B PUSH1 0x4 DUP1 CALLDATASIZE SUB DUP2 ADD SWAP1 PUSH2 0x236 SWAP2 SWAP1 PUSH2 0x1C93 JUMP JUMPDEST PUSH2 0x95E JUMP JUMPDEST STOP JUMPDEST CALLVALUE DUP1 ISZERO PUSH2 0x249 JUMPI PUSH1 0x0 DUP1 REVERT JUMPDEST POP PUSH2 0x264 PUSH1 0x4 DUP1 CALLDATASIZE SUB DUP2 ADD SWAP1 PUSH2 0x25F SWAP2 SWAP1 PUSH2 0x1D4B JUMP JUMPDEST PUSH2 0x97E JUMP JUMPDEST PUSH1 0x40 MLOAD PUSH2 0x271 SWAP2 SWAP1 PUSH2 0x1EFB JUMP JUMPDEST PUSH1 0x40 MLOAD DUP1 SWAP2 SUB SWAP1 RETURN JUMPDEST CALLVALUE DUP1 ISZERO PUSH2 0x286 JUMPI PUSH1 0x0 DUP1 REVERT JUMPDEST POP PUSH2 0x2A1 PUSH1 0x4 DUP1 CALLDATASIZE SUB DUP2 ADD SWAP1 PUSH2 0x29C SWAP2 SWAP1 PUSH2 0x1B74 JUMP JUMPDEST PUSH2 0x9DE JUMP JUMPDEST PUSH1 0x40 MLOAD PUSH2 0x2AE SWAP2 SWAP1 PUSH2 0x1BE2 JUMP JUMPDEST PUSH1 0x40 MLOAD DUP1 SWAP2 SUB SWAP1 RETURN JUMPDEST CALLVALUE DUP1 ISZERO PUSH2 0x2C3 JUMPI PUSH1 0x0 DUP1 REVERT JUMPDEST POP PUSH2 0x2DE PUSH1 0x4 DUP1 CALLDATASIZE SUB DUP2 ADD SWAP1 PUSH2 0x2D9 SWAP2 SWAP1 PUSH2 0x1F1D JUMP JUMPDEST PUSH2 0x9F0 JUMP JUMPDEST PUSH1 0x40 MLOAD PUSH2 0x2EB SWAP2 SWAP1 PUSH2 0x1C78 JUMP JUMPDEST PUSH1 0x40 MLOAD DUP1 SWAP2 SUB SWAP1 RETURN JUMPDEST CALLVALUE DUP1 ISZERO PUSH2 0x300 JUMPI PUSH1 0x0 DUP1 REVERT JUMPDEST POP PUSH2 0x31B PUSH1 0x4 DUP1 CALLDATASIZE SUB DUP2 ADD SWAP1 PUSH2 0x316 SWAP2 SWAP1 PUSH2 0x1F1D JUMP JUMPDEST PUSH2 0xA87 JUMP JUMPDEST PUSH1 0x40 MLOAD PUSH2 0x328 SWAP2 SWAP1 PUSH2 0x2008 JUMP JUMPDEST PUSH1 0x40 MLOAD DUP1 SWAP2 SUB SWAP1 RETURN JUMPDEST CALLVALUE DUP1 ISZERO PUSH2 0x33D JUMPI PUSH1 0x0 DUP1 REVERT JUMPDEST POP PUSH2 0x346 PUSH2 0xB02 JUMP JUMPDEST PUSH1 0x40 MLOAD PUSH2 0x353 SWAP2 SWAP1 PUSH2 0x1B1C JUMP JUMPDEST PUSH1 0x40 MLOAD DUP1 SWAP2 SUB SWAP1 RETURN JUMPDEST CALLVALUE DUP1 ISZERO PUSH2 0x368 JUMPI PUSH1 0x0 DUP1 REVERT JUMPDEST POP PUSH2 0x383 PUSH1 0x4 DUP1 CALLDATASIZE SUB DUP2 ADD SWAP1 PUSH2 0x37E SWAP2 SWAP1 PUSH2 0x202A JUMP JUMPDEST PUSH2 0xB94 JUMP JUMPDEST PUSH1 0x40 MLOAD PUSH2 0x390 SWAP2 SWAP1 PUSH2 0x2008 JUMP JUMPDEST PUSH1 0x40 MLOAD DUP1 SWAP2 SUB SWAP1 RETURN JUMPDEST CALLVALUE DUP1 ISZERO PUSH2 0x3A5 JUMPI PUSH1 0x0 DUP1 REVERT JUMPDEST POP PUSH2 0x3C0 PUSH1 0x4 DUP1 CALLDATASIZE SUB DUP2 ADD SWAP1 PUSH2 0x3BB SWAP2 SWAP1 PUSH2 0x1C29 JUMP JUMPDEST PUSH2 0xBAA JUMP JUMPDEST STOP JUMPDEST CALLVALUE DUP1 ISZERO PUSH2 0x3CE JUMPI PUSH1 0x0 DUP1 REVERT JUMPDEST POP PUSH2 0x3E9 PUSH1 0x4 DUP1 CALLDATASIZE SUB DUP2 ADD SWAP1 PUSH2 0x3E4 SWAP2 SWAP1 PUSH2 0x20A9 JUMP JUMPDEST PUSH2 0xBB8 JUMP JUMPDEST STOP JUMPDEST PUSH2 0x405 PUSH1 0x4 DUP1 CALLDATASIZE SUB DUP2 ADD SWAP1 PUSH2 0x400 SWAP2 SWAP1 PUSH2 0x2219 JUMP JUMPDEST PUSH2 0xCC3 JUMP JUMPDEST STOP JUMPDEST CALLVALUE DUP1 ISZERO PUSH2 0x413 JUMPI PUSH1 0x0 DUP1 REVERT JUMPDEST POP PUSH2 0x42E PUSH1 0x4 DUP1 CALLDATASIZE SUB DUP2 ADD SWAP1 PUSH2 0x429 SWAP2 SWAP1 PUSH2 0x1B74 JUMP JUMPDEST PUSH2 0xD15 JUMP JUMPDEST PUSH1 0x40 MLOAD PUSH2 0x43B SWAP2 SWAP1 PUSH2 0x22F1 JUMP JUMPDEST PUSH1 0x40 MLOAD DUP1 SWAP2 SUB SWAP1 RETURN JUMPDEST CALLVALUE DUP1 ISZERO PUSH2 0x450 JUMPI PUSH1 0x0 DUP1 REVERT JUMPDEST POP PUSH2 0x46B PUSH1 0x4 DUP1 CALLDATASIZE SUB DUP2 ADD SWAP1 PUSH2 0x466 SWAP2 SWAP1 PUSH2 0x1B74 JUMP JUMPDEST PUSH2 0xD8A JUMP JUMPDEST PUSH1 0x40 MLOAD PUSH2 0x478 SWAP2 SWAP1 PUSH2 0x1B1C JUMP JUMPDEST PUSH1 0x40 MLOAD DUP1 SWAP2 SUB SWAP1 RETURN JUMPDEST CALLVALUE DUP1 ISZERO PUSH2 0x48D JUMPI PUSH1 0x0 DUP1 REVERT JUMPDEST POP PUSH2 0x4A8 PUSH1 0x4 DUP1 CALLDATASIZE SUB DUP2 ADD SWAP1 PUSH2 0x4A3 SWAP2 SWAP1 PUSH2 0x230C JUMP JUMPDEST PUSH2 0xE07 JUMP JUMPDEST PUSH1 0x40 MLOAD PUSH2 0x4B5 SWAP2 SWAP1 PUSH2 0x1A71 JUMP JUMPDEST PUSH1 0x40 MLOAD DUP1 SWAP2 SUB SWAP1 RETURN JUMPDEST PUSH1 0x0 PUSH4 0x1FFC9A7 PUSH1 0xE0 SHL DUP3 PUSH28 0xFFFFFFFFFFFFFFFFFFFFFFFFFFFFFFFFFFFFFFFFFFFFFFFFFFFFFFFF NOT AND EQ DUP1 PUSH2 0x519 JUMPI POP PUSH4 0x80AC58CD PUSH1 0xE0 SHL DUP3 PUSH28 0xFFFFFFFFFFFFFFFFFFFFFFFFFFFFFFFFFFFFFFFFFFFFFFFFFFFFFFFF NOT AND EQ JUMPDEST DUP1 PUSH2 0x549 JUMPI POP PUSH4 0x5B5E139F PUSH1 0xE0 SHL DUP3 PUSH28 0xFFFFFFFFFFFFFFFFFFFFFFFFFFFFFFFFFFFFFFFFFFFFFFFFFFFFFFFF NOT AND EQ JUMPDEST SWAP1 POP SWAP2 SWAP1 POP JUMP JUMPDEST PUSH1 0x60 PUSH1 0x2 DUP1 SLOAD PUSH2 0x55F SWAP1 PUSH2 0x237B JUMP JUMPDEST DUP1 PUSH1 0x1F ADD PUSH1 0x20 DUP1 SWAP2 DIV MUL PUSH1 0x20 ADD PUSH1 0x40 MLOAD SWAP1 DUP2 ADD PUSH1 0x40 MSTORE DUP1 SWAP3 SWAP2 SWAP1 DUP2 DUP2 MSTORE PUSH1 0x20 ADD DUP3 DUP1 SLOAD PUSH2 0x58B SWAP1 PUSH2 0x237B JUMP JUMPDEST DUP1 ISZERO PUSH2 0x5D8 JUMPI DUP1 PUSH1 0x1F LT PUSH2 0x5AD JUMPI PUSH2 0x100 DUP1 DUP4 SLOAD DIV MUL DUP4 MSTORE SWAP2 PUSH1 0x20 ADD SWAP2 PUSH2 0x5D8 JUMP JUMPDEST DUP3 ADD SWAP2 SWAP1 PUSH1 0x0 MSTORE PUSH1 0x20 PUSH1 0x0 KECCAK256 SWAP1 JUMPDEST DUP2 SLOAD DUP2 MSTORE SWAP1 PUSH1 0x1 ADD SWAP1 PUSH1 0x20 ADD DUP1 DUP4 GT PUSH2 0x5BB JUMPI DUP3 SWAP1 SUB PUSH1 0x1F AND DUP3 ADD SWAP2 JUMPDEST POP POP POP POP POP SWAP1 POP SWAP1 JUMP JUMPDEST PUSH1 0x0 PUSH2 0x5ED DUP3 PUSH2 0xE9B JUMP JUMPDEST PUSH2 0x602 JUMPI PUSH2 0x601 PUSH4 0xCF4700E4 PUSH1 0xE0 SHL PUSH2 0xF47 JUMP JUMPDEST JUMPDEST PUSH1 0x6 PUSH1 0x0 DUP4 DUP2 MSTORE PUSH1 0x20 ADD SWAP1 DUP2 MSTORE PUSH1 0x20 ADD PUSH1 0x0 KECCAK256 PUSH1 0x0 ADD PUSH1 0x0 SWAP1 SLOAD SWAP1 PUSH2 0x100 EXP SWAP1 DIV PUSH20 0xFFFFFFFFFFFFFFFFFFFFFFFFFFFFFFFFFFFFFFFF AND SWAP1 POP SWAP2 SWAP1 POP JUMP JUMPDEST PUSH2 0x64C DUP3 DUP3 PUSH1 0x1 PUSH2 0xF51 JUMP JUMPDEST POP POP JUMP JUMPDEST PUSH1 0x0 PUSH2 0x65A PUSH2 0x1080 JUMP JUMPDEST PUSH1 0x1 SLOAD PUSH1 0x0 SLOAD SUB SUB SWAP1 POP PUSH32 0xFFFFFFFFFFFFFFFFFFFFFFFFFFFFFFFFFFFFFFFFFFFFFFFFFFFFFFFFFFFFFFFF PUSH2 0x68D PUSH2 0x1085 JUMP JUMPDEST EQ PUSH2 0x69A JUMPI PUSH1 0x8 SLOAD DUP2 ADD SWAP1 POP JUMPDEST SWAP1 JUMP JUMPDEST PUSH1 0x0 PUSH2 0x6A8 DUP3 PUSH2 0x10AD JUMP JUMPDEST SWAP1 POP PUSH20 0xFFFFFFFFFFFFFFFFFFFFFFFFFFFFFFFFFFFFFFFF DUP5 PUSH20 0xFFFFFFFFFFFFFFFFFFFFFFFFFFFFFFFFFFFFFFFF AND AND SWAP4 POP DUP4 PUSH20 0xFFFFFFFFFFFFFFFFFFFFFFFFFFFFFFFFFFFFFFFF AND DUP2 PUSH20 0xFFFFFFFFFFFFFFFFFFFFFFFFFFFFFFFFFFFFFFFF AND EQ PUSH2 0x71D JUMPI PUSH2 0x71C PUSH4 0xA1148100 PUSH1 0xE0 SHL PUSH2 0xF47 JUMP JUMPDEST JUMPDEST PUSH1 0x0 DUP1 PUSH2 0x729 DUP5 PUSH2 0x11C6 JUMP JUMPDEST SWAP2 POP SWAP2 POP PUSH2 0x73F DUP2 DUP8 PUSH2 0x73A PUSH2 0x11ED JUMP JUMPDEST PUSH2 0x11F5 JUMP JUMPDEST PUSH2 0x76A JUMPI PUSH2 0x754 DUP7 PUSH2 0x74F PUSH2 0x11ED JUMP JUMPDEST PUSH2 0xE07 JUMP JUMPDEST PUSH2 0x769 JUMPI PUSH2 0x768 PUSH4 0x59C896BE PUSH1 0xE0 SHL PUSH2 0xF47 JUMP JUMPDEST JUMPDEST JUMPDEST PUSH2 0x777 DUP7 DUP7 DUP7 PUSH1 0x1 PUSH2 0x1239 JUMP JUMPDEST DUP1 ISZERO PUSH2 0x782 JUMPI PUSH1 0x0 DUP3 SSTORE JUMPDEST PUSH1 0x5 PUSH1 0x0 DUP8 PUSH20 0xFFFFFFFFFFFFFFFFFFFFFFFFFFFFFFFFFFFFFFFF AND PUSH20 0xFFFFFFFFFFFFFFFFFFFFFFFFFFFFFFFFFFFFFFFF AND DUP2 MSTORE PUSH1 0x20 ADD SWAP1 DUP2 MSTORE PUSH1 0x20 ADD PUSH1 0x0 KECCAK256 PUSH1 0x0 DUP2 SLOAD PUSH1 0x1 SWAP1 SUB SWAP2 SWAP1 POP DUP2 SWAP1 SSTORE POP PUSH1 0x5 PUSH1 0x0 DUP7 PUSH20 0xFFFFFFFFFFFFFFFFFFFFFFFFFFFFFFFFFFFFFFFF AND PUSH20 0xFFFFFFFFFFFFFFFFFFFFFFFFFFFFFFFFFFFFFFFF AND DUP2 MSTORE PUSH1 0x20 ADD SWAP1 DUP2 MSTORE PUSH1 0x20 ADD PUSH1 0x0 KECCAK256 PUSH1 0x0 DUP2 SLOAD PUSH1 0x1 ADD SWAP2 SWAP1 POP DUP2 SWAP1 SSTORE POP PUSH2 0x850 DUP6 PUSH2 0x82C DUP9 DUP9 DUP8 PUSH2 0x123F JUMP JUMPDEST PUSH29 0x200000000000000000000000000000000000000000000000000000000 OR PUSH2 0x1267 JUMP JUMPDEST PUSH1 0x4 PUSH1 0x0 DUP7 DUP2 MSTORE PUSH1 0x20 ADD SWAP1 DUP2 MSTORE PUSH1 0x20 ADD PUSH1 0x0 KECCAK256 DUP2 SWAP1 SSTORE POP PUSH1 0x0 PUSH29 0x200000000000000000000000000000000000000000000000000000000 DUP5 AND SUB PUSH2 0x8D6 JUMPI PUSH1 0x0 PUSH1 0x1 DUP6 ADD SWAP1 POP PUSH1 0x0 PUSH1 0x4 PUSH1 0x0 DUP4 DUP2 MSTORE PUSH1 0x20 ADD SWAP1 DUP2 MSTORE PUSH1 0x20 ADD PUSH1 0x0 KECCAK256 SLOAD SUB PUSH2 0x8D4 JUMPI PUSH1 0x0 SLOAD DUP2 EQ PUSH2 0x8D3 JUMPI DUP4 PUSH1 0x4 PUSH1 0x0 DUP4 DUP2 MSTORE PUSH1 0x20 ADD SWAP1 DUP2 MSTORE PUSH1 0x20 ADD PUSH1 0x0 KECCAK256 DUP2 SWAP1 SSTORE POP JUMPDEST JUMPDEST POP JUMPDEST PUSH1 0x0 PUSH20 0xFFFFFFFFFFFFFFFFFFFFFFFFFFFFFFFFFFFFFFFF DUP7 PUSH20 0xFFFFFFFFFFFFFFFFFFFFFFFFFFFFFFFFFFFFFFFF AND AND SWAP1 POP DUP5 DUP2 DUP9 PUSH32 0xDDF252AD1BE2C89B69C2B068FC378DAA952BA7F163C4A11628F55A4DF523B3EF PUSH1 0x0 DUP1 LOG4 PUSH1 0x0 DUP2 SUB PUSH2 0x948 JUMPI PUSH2 0x947 PUSH4 0xEA553B34 PUSH1 0xE0 SHL PUSH2 0xF47 JUMP JUMPDEST JUMPDEST PUSH2 0x955 DUP8 DUP8 DUP8 PUSH1 0x1 PUSH2 0x1292 JUMP JUMPDEST POP POP POP POP POP POP POP JUMP JUMPDEST PUSH2 0x979 DUP4 DUP4 DUP4 PUSH1 0x40 MLOAD DUP1 PUSH1 0x20 ADD PUSH1 0x40 MSTORE DUP1 PUSH1 0x0 DUP2 MSTORE POP PUSH2 0xCC3 JUMP JUMPDEST POP POP POP JUMP JUMPDEST PUSH1 0x60 DUP1 PUSH1 0x0 DUP5 DUP5 SWAP1 POP SWAP1 POP PUSH1 0x40 MLOAD SWAP2 POP DUP1 DUP3 MSTORE DUP1 PUSH1 0x5 SHL SWAP1 POP DUP1 PUSH1 0x20 DUP4 ADD ADD PUSH1 0x40 MSTORE JUMPDEST PUSH1 0x0 DUP2 EQ PUSH2 0x9D3 JUMPI PUSH1 0x0 PUSH1 0x20 DUP3 SUB SWAP2 POP DUP2 DUP7 ADD CALLDATALOAD SWAP1 POP PUSH1 0x0 PUSH2 0x9C2 DUP3 PUSH2 0xD15 JUMP JUMPDEST SWAP1 POP DUP1 DUP4 PUSH1 0x20 DUP7 ADD ADD MSTORE POP POP PUSH2 0x9A1 JUMP JUMPDEST DUP2 SWAP3 POP POP POP SWAP3 SWAP2 POP POP JUMP JUMPDEST PUSH1 0x0 PUSH2 0x9E9 DUP3 PUSH2 0x10AD JUMP JUMPDEST SWAP1 POP SWAP2 SWAP1 POP JUMP JUMPDEST PUSH1 0x0 DUP1 PUSH20 0xFFFFFFFFFFFFFFFFFFFFFFFFFFFFFFFFFFFFFFFF AND DUP3 PUSH20 0xFFFFFFFFFFFFFFFFFFFFFFFFFFFFFFFFFFFFFFFF AND SUB PUSH2 0xA36 JUMPI PUSH2 0xA35 PUSH4 0x8F4EB604 PUSH1 0xE0 SHL PUSH2 0xF47 JUMP JUMPDEST JUMPDEST PUSH8 0xFFFFFFFFFFFFFFFF PUSH1 0x5 PUSH1 0x0 DUP5 PUSH20 0xFFFFFFFFFFFFFFFFFFFFFFFFFFFFFFFFFFFFFFFF AND PUSH20 0xFFFFFFFFFFFFFFFFFFFFFFFFFFFFFFFFFFFFFFFF AND DUP2 MSTORE PUSH1 0x20 ADD SWAP1 DUP2 MSTORE PUSH1 0x20 ADD PUSH1 0x0 KECCAK256 SLOAD AND SWAP1 POP SWAP2 SWAP1 POP JUMP JUMPDEST PUSH1 0x60 PUSH32 0xFFFFFFFFFFFFFFFFFFFFFFFFFFFFFFFFFFFFFFFFFFFFFFFFFFFFFFFFFFFFFFFF PUSH2 0xAB2 PUSH2 0x1085 JUMP JUMPDEST EQ PUSH2 0xAC8 JUMPI PUSH2 0xAC7 PUSH4 0xBDBA09D7 PUSH1 0xE0 SHL PUSH2 0xF47 JUMP JUMPDEST JUMPDEST PUSH1 0x0 PUSH2 0xAD2 PUSH2 0x1080 JUMP JUMPDEST SWAP1 POP PUSH1 0x0 PUSH2 0xADE PUSH2 0x1298 JUMP JUMPDEST SWAP1 POP PUSH1 0x60 DUP2 DUP4 EQ PUSH2 0xAF7 JUMPI PUSH2 0xAF4 DUP6 DUP5 DUP5 PUSH2 0x12A1 JUMP JUMPDEST SWAP1 POP JUMPDEST DUP1 SWAP4 POP POP POP POP SWAP2 SWAP1 POP JUMP JUMPDEST PUSH1 0x60 PUSH1 0x3 DUP1 SLOAD PUSH2 0xB11 SWAP1 PUSH2 0x237B JUMP JUMPDEST DUP1 PUSH1 0x1F ADD PUSH1 0x20 DUP1 SWAP2 DIV MUL PUSH1 0x20 ADD PUSH1 0x40 MLOAD SWAP1 DUP2 ADD PUSH1 0x40 MSTORE DUP1 SWAP3 SWAP2 SWAP1 DUP2 DUP2 MSTORE PUSH1 0x20 ADD DUP3 DUP1 SLOAD PUSH2 0xB3D SWAP1 PUSH2 0x237B JUMP JUMPDEST DUP1 ISZERO PUSH2 0xB8A JUMPI DUP1 PUSH1 0x1F LT PUSH2 0xB5F JUMPI PUSH2 0x100 DUP1 DUP4 SLOAD DIV MUL DUP4 MSTORE SWAP2 PUSH1 0x20 ADD SWAP2 PUSH2 0xB8A JUMP JUMPDEST DUP3 ADD SWAP2 SWAP1 PUSH1 0x0 MSTORE PUSH1 0x20 PUSH1 0x0 KECCAK256 SWAP1 JUMPDEST DUP2 SLOAD DUP2 MSTORE SWAP1 PUSH1 0x1 ADD SWAP1 PUSH1 0x20 ADD DUP1 DUP4 GT PUSH2 0xB6D JUMPI DUP3 SWAP1 SUB PUSH1 0x1F AND DUP3 ADD SWAP2 JUMPDEST POP POP POP POP POP SWAP1 POP SWAP1 JUMP JUMPDEST PUSH1 0x60 PUSH2 0xBA1 DUP5 DUP5 DUP5 PUSH2 0x12A1 JUMP JUMPDEST SWAP1 POP SWAP4 SWAP3 POP POP POP JUMP JUMPDEST PUSH2 0xBB4 DUP3 DUP3 PUSH2 0x145D JUMP JUMPDEST POP POP JUMP JUMPDEST DUP1 PUSH1 0x7 PUSH1 0x0 PUSH2 0xBC5 PUSH2 0x11ED JUMP JUMPDEST PUSH20 0xFFFFFFFFFFFFFFFFFFFFFFFFFFFFFFFFFFFFFFFF AND PUSH20 0xFFFFFFFFFFFFFFFFFFFFFFFFFFFFFFFFFFFFFFFF AND DUP2 MSTORE PUSH1 0x20 ADD SWAP1 DUP2 MSTORE PUSH1 0x20 ADD PUSH1 0x0 KECCAK256 PUSH1 0x0 DUP5 PUSH20 0xFFFFFFFFFFFFFFFFFFFFFFFFFFFFFFFFFFFFFFFF AND PUSH20 0xFFFFFFFFFFFFFFFFFFFFFFFFFFFFFFFFFFFFFFFF AND DUP2 MSTORE PUSH1 0x20 ADD SWAP1 DUP2 MSTORE PUSH1 0x20 ADD PUSH1 0x0 KECCAK256 PUSH1 0x0 PUSH2 0x100 EXP DUP2 SLOAD DUP2 PUSH1 0xFF MUL NOT AND SWAP1 DUP4 ISZERO ISZERO MUL OR SWAP1 SSTORE POP DUP2 PUSH20 0xFFFFFFFFFFFFFFFFFFFFFFFFFFFFFFFFFFFFFFFF AND PUSH2 0xC72 PUSH2 0x11ED JUMP JUMPDEST PUSH20 0xFFFFFFFFFFFFFFFFFFFFFFFFFFFFFFFFFFFFFFFF AND PUSH32 0x17307EAB39AB6107E8899845AD3D59BD9653F200F220920489CA2B5937696C31 DUP4 PUSH1 0x40 MLOAD PUSH2 0xCB7 SWAP2 SWAP1 PUSH2 0x1A71 JUMP JUMPDEST PUSH1 0x40 MLOAD DUP1 SWAP2 SUB SWAP1 LOG3 POP POP JUMP JUMPDEST PUSH2 0xCCE DUP5 DUP5 DUP5 PUSH2 0x69D JUMP JUMPDEST PUSH1 0x0 DUP4 PUSH20 0xFFFFFFFFFFFFFFFFFFFFFFFFFFFFFFFFFFFFFFFF AND EXTCODESIZE EQ PUSH2 0xD0F JUMPI PUSH2 0xCF9 DUP5 DUP5 DUP5 DUP5 PUSH2 0x147B JUMP JUMPDEST PUSH2 0xD0E JUMPI PUSH2 0xD0D PUSH4 0xD1A57ED6 PUSH1 0xE0 SHL PUSH2 0xF47 JUMP JUMPDEST JUMPDEST JUMPDEST POP POP POP POP JUMP JUMPDEST PUSH2 0xD1D PUSH2 0x196E JUMP JUMPDEST PUSH2 0xD25 PUSH2 0x1080 JUMP JUMPDEST DUP3 LT PUSH2 0xD84 JUMPI PUSH2 0xD33 PUSH2 0x1085 JUMP JUMPDEST DUP3 GT ISZERO PUSH2 0xD4A JUMPI PUSH2 0xD43 DUP3 PUSH2 0x15AA JUMP JUMPDEST SWAP1 POP PUSH2 0xD85 JUMP JUMPDEST PUSH2 0xD52 PUSH2 0x1298 JUMP JUMPDEST DUP3 LT ISZERO PUSH2 0xD83 JUMPI JUMPDEST PUSH2 0xD63 DUP3 PUSH2 0x15D5 JUMP JUMPDEST PUSH2 0xD73 JUMPI DUP2 PUSH1 0x1 SWAP1 SUB SWAP2 POP PUSH2 0xD5A JUMP JUMPDEST PUSH2 0xD7C DUP3 PUSH2 0x15AA JUMP JUMPDEST SWAP1 POP PUSH2 0xD85 JUMP JUMPDEST JUMPDEST JUMPDEST SWAP2 SWAP1 POP JUMP JUMPDEST PUSH1 0x60 PUSH2 0xD95 DUP3 PUSH2 0xE9B JUMP JUMPDEST PUSH2 0xDAA JUMPI PUSH2 0xDA9 PUSH4 0xA14C4B50 PUSH1 0xE0 SHL PUSH2 0xF47 JUMP JUMPDEST JUMPDEST PUSH1 0x0 PUSH2 0xDB4 PUSH2 0x15F5 JUMP JUMPDEST SWAP1 POP PUSH1 0x0 DUP2 MLOAD SUB PUSH2 0xDD4 JUMPI PUSH1 0x40 MLOAD DUP1 PUSH1 0x20 ADD PUSH1 0x40 MSTORE DUP1 PUSH1 0x0 DUP2 MSTORE POP PUSH2 0xDFF JUMP JUMPDEST DUP1 PUSH2 0xDDE DUP5 PUSH2 0x160C JUMP JUMPDEST PUSH1 0x40 MLOAD PUSH1 0x20 ADD PUSH2 0xDEF SWAP3 SWAP2 SWAP1 PUSH2 0x23E8 JUMP JUMPDEST PUSH1 0x40 MLOAD PUSH1 0x20 DUP2 DUP4 SUB SUB DUP2 MSTORE SWAP1 PUSH1 0x40 MSTORE JUMPDEST SWAP2 POP POP SWAP2 SWAP1 POP JUMP JUMPDEST PUSH1 0x0 PUSH1 0x7 PUSH1 0x0 DUP5 PUSH20 0xFFFFFFFFFFFFFFFFFFFFFFFFFFFFFFFFFFFFFFFF AND PUSH20 0xFFFFFFFFFFFFFFFFFFFFFFFFFFFFFFFFFFFFFFFF AND DUP2 MSTORE PUSH1 0x20 ADD SWAP1 DUP2 MSTORE PUSH1 0x20 ADD PUSH1 0x0 KECCAK256 PUSH1 0x0 DUP4 PUSH20 0xFFFFFFFFFFFFFFFFFFFFFFFFFFFFFFFFFFFFFFFF AND PUSH20 0xFFFFFFFFFFFFFFFFFFFFFFFFFFFFFFFFFFFFFFFF AND DUP2 MSTORE PUSH1 0x20 ADD SWAP1 DUP2 MSTORE PUSH1 0x20 ADD PUSH1 0x0 KECCAK256 PUSH1 0x0 SWAP1 SLOAD SWAP1 PUSH2 0x100 EXP SWAP1 DIV PUSH1 0xFF AND SWAP1 POP SWAP3 SWAP2 POP POP JUMP JUMPDEST PUSH1 0x0 DUP2 PUSH2 0xEA6 PUSH2 0x1080 JUMP JUMPDEST GT PUSH2 0xF41 JUMPI PUSH2 0xEB3 PUSH2 0x1085 JUMP JUMPDEST DUP3 GT ISZERO PUSH2 0xEDD JUMPI PUSH2 0xED6 PUSH1 0x4 PUSH1 0x0 DUP5 DUP2 MSTORE PUSH1 0x20 ADD SWAP1 DUP2 MSTORE PUSH1 0x20 ADD PUSH1 0x0 KECCAK256 SLOAD PUSH2 0x165C JUMP JUMPDEST SWAP1 POP PUSH2 0xF42 JUMP JUMPDEST PUSH1 0x0 SLOAD DUP3 LT ISZERO PUSH2 0xF40 JUMPI PUSH1 0x0 JUMPDEST PUSH1 0x0 PUSH1 0x4 PUSH1 0x0 DUP6 DUP2 MSTORE PUSH1 0x20 ADD SWAP1 DUP2 MSTORE PUSH1 0x20 ADD PUSH1 0x0 KECCAK256 SLOAD SWAP2 POP DUP2 SUB PUSH2 0xF19 JUMPI DUP3 PUSH2 0xF12 SWAP1 PUSH2 0x243B JUMP JUMPDEST SWAP3 POP PUSH2 0xEEA JUMP JUMPDEST PUSH1 0x0 PUSH29 0x100000000000000000000000000000000000000000000000000000000 DUP3 AND EQ SWAP2 POP POP JUMPDEST JUMPDEST JUMPDEST SWAP2 SWAP1 POP JUMP JUMPDEST DUP1 PUSH1 0x0 MSTORE PUSH1 0x4 PUSH1 0x0 REVERT JUMPDEST PUSH1 0x0 PUSH2 0xF5C DUP4 PUSH2 0x9DE JUMP JUMPDEST SWAP1 POP DUP2 DUP1 ISZERO PUSH2 0xF9E JUMPI POP DUP1 PUSH20 0xFFFFFFFFFFFFFFFFFFFFFFFFFFFFFFFFFFFFFFFF AND PUSH2 0xF85 PUSH2 0x11ED JUMP JUMPDEST PUSH20 0xFFFFFFFFFFFFFFFFFFFFFFFFFFFFFFFFFFFFFFFF AND EQ ISZERO JUMPDEST ISZERO PUSH2 0xFCA JUMPI PUSH2 0xFB4 DUP2 PUSH2 0xFAF PUSH2 0x11ED JUMP JUMPDEST PUSH2 0xE07 JUMP JUMPDEST PUSH2 0xFC9 JUMPI PUSH2 0xFC8 PUSH4 0xCFB3B942 PUSH1 0xE0 SHL PUSH2 0xF47 JUMP JUMPDEST JUMPDEST JUMPDEST DUP4 PUSH1 0x6 PUSH1 0x0 DUP6 DUP2 MSTORE PUSH1 0x20 ADD SWAP1 DUP2 MSTORE PUSH1 0x20 ADD PUSH1 0x0 KECCAK256 PUSH1 0x0 ADD PUSH1 0x0 PUSH2 0x100 EXP DUP2 SLOAD DUP2 PUSH20 0xFFFFFFFFFFFFFFFFFFFFFFFFFFFFFFFFFFFFFFFF MUL NOT AND SWAP1 DUP4 PUSH20 0xFFFFFFFFFFFFFFFFFFFFFFFFFFFFFFFFFFFFFFFF AND MUL OR SWAP1 SSTORE POP DUP3 DUP5 PUSH20 0xFFFFFFFFFFFFFFFFFFFFFFFFFFFFFFFFFFFFFFFF AND DUP3 PUSH20 0xFFFFFFFFFFFFFFFFFFFFFFFFFFFFFFFFFFFFFFFF AND PUSH32 0x8C5BE1E5EBEC7D5BD14F71427D1E84F3DD0314C0F7B2291E5B200AC8C7C3B925 PUSH1 0x40 MLOAD PUSH1 0x40 MLOAD DUP1 SWAP2 SUB SWAP1 LOG4 POP POP POP POP JUMP JUMPDEST PUSH1 0x0 SWAP1 JUMP JUMPDEST PUSH1 0x0 PUSH32 0xFFFFFFFFFFFFFFFFFFFFFFFFFFFFFFFFFFFFFFFFFFFFFFFFFFFFFFFFFFFFFFFF SWAP1 POP SWAP1 JUMP JUMPDEST PUSH1 0x0 DUP2 PUSH2 0x10B8 PUSH2 0x1080 JUMP JUMPDEST GT PUSH2 0x11B0 JUMPI PUSH1 0x4 PUSH1 0x0 DUP4 DUP2 MSTORE PUSH1 0x20 ADD SWAP1 DUP2 MSTORE PUSH1 0x20 ADD PUSH1 0x0 KECCAK256 SLOAD SWAP1 POP PUSH2 0x10DB PUSH2 0x1085 JUMP JUMPDEST DUP3 GT ISZERO PUSH2 0x1100 JUMPI PUSH2 0x10EB DUP2 PUSH2 0x165C JUMP JUMPDEST PUSH2 0x11C1 JUMPI PUSH2 0x10FF PUSH4 0xDF2D9B42 PUSH1 0xE0 SHL PUSH2 0xF47 JUMP JUMPDEST JUMPDEST PUSH1 0x0 DUP2 SUB PUSH2 0x1187 JUMPI PUSH1 0x0 SLOAD DUP3 LT PUSH2 0x1122 JUMPI PUSH2 0x1121 PUSH4 0xDF2D9B42 PUSH1 0xE0 SHL PUSH2 0xF47 JUMP JUMPDEST JUMPDEST JUMPDEST PUSH1 0x4 PUSH1 0x0 DUP4 PUSH1 0x1 SWAP1 SUB SWAP4 POP DUP4 DUP2 MSTORE PUSH1 0x20 ADD SWAP1 DUP2 MSTORE PUSH1 0x20 ADD PUSH1 0x0 KECCAK256 SLOAD SWAP1 POP PUSH1 0x0 DUP2 SUB ISZERO PUSH2 0x1182 JUMPI PUSH1 0x0 PUSH29 0x100000000000000000000000000000000000000000000000000000000 DUP3 AND SUB ISZERO PUSH2 0x11C1 JUMPI PUSH2 0x1181 PUSH4 0xDF2D9B42 PUSH1 0xE0 SHL PUSH2 0xF47 JUMP JUMPDEST JUMPDEST PUSH2 0x1123 JUMP JUMPDEST PUSH1 0x0 PUSH29 0x100000000000000000000000000000000000000000000000000000000 DUP3 AND SUB ISZERO PUSH2 0x11C1 JUMPI JUMPDEST PUSH2 0x11C0 PUSH4 0xDF2D9B42 PUSH1 0xE0 SHL PUSH2 0xF47 JUMP JUMPDEST JUMPDEST SWAP2 SWAP1 POP JUMP JUMPDEST PUSH1 0x0 DUP1 PUSH1 0x0 PUSH1 0x6 PUSH1 0x0 DUP6 DUP2 MSTORE PUSH1 0x20 ADD SWAP1 DUP2 MSTORE PUSH1 0x20 ADD PUSH1 0x0 KECCAK256 SWAP1 POP DUP1 SWAP3 POP DUP3 SLOAD SWAP2 POP POP SWAP2 POP SWAP2 JUMP JUMPDEST PUSH1 0x0 CALLER SWAP1 POP SWAP1 JUMP JUMPDEST PUSH1 0x0 PUSH20 0xFFFFFFFFFFFFFFFFFFFFFFFFFFFFFFFFFFFFFFFF DUP4 AND SWAP3 POP PUSH20 0xFFFFFFFFFFFFFFFFFFFFFFFFFFFFFFFFFFFFFFFF DUP3 AND SWAP2 POP DUP4 DUP3 EQ DUP4 DUP4 EQ OR SWAP1 POP SWAP4 SWAP3 POP POP POP JUMP JUMPDEST POP POP POP POP JUMP JUMPDEST PUSH1 0x0 DUP1 PUSH1 0xE8 DUP4 SWAP1 SHR SWAP1 POP PUSH1 0xE8 PUSH2 0x1256 DUP7 DUP7 DUP5 PUSH2 0x169D JUMP JUMPDEST PUSH3 0xFFFFFF AND SWAP1 SHL SWAP2 POP POP SWAP4 SWAP3 POP POP POP JUMP JUMPDEST PUSH1 0x0 PUSH20 0xFFFFFFFFFFFFFFFFFFFFFFFFFFFFFFFFFFFFFFFF DUP4 AND SWAP3 POP DUP2 TIMESTAMP PUSH1 0xA0 SHL OR DUP4 OR SWAP1 POP SWAP3 SWAP2 POP POP JUMP JUMPDEST POP POP POP POP JUMP JUMPDEST PUSH1 0x0 DUP1 SLOAD SWAP1 POP SWAP1 JUMP JUMPDEST PUSH1 0x60 DUP2 DUP4 LT PUSH2 0x12BB JUMPI PUSH2 0x12BA PUSH4 0x32C1995A PUSH1 0xE0 SHL PUSH2 0xF47 JUMP JUMPDEST JUMPDEST PUSH2 0x12C3 PUSH2 0x1080 JUMP JUMPDEST DUP4 LT ISZERO PUSH2 0x12D5 JUMPI PUSH2 0x12D2 PUSH2 0x1080 JUMP JUMPDEST SWAP3 POP JUMPDEST PUSH1 0x0 PUSH2 0x12DF PUSH2 0x1298 JUMP JUMPDEST SWAP1 POP PUSH1 0x0 PUSH32 0xFFFFFFFFFFFFFFFFFFFFFFFFFFFFFFFFFFFFFFFFFFFFFFFFFFFFFFFFFFFFFFFF PUSH2 0x130C PUSH2 0x1085 JUMP JUMPDEST SUB PUSH2 0x1317 JUMPI DUP2 PUSH2 0x1319 JUMP JUMPDEST DUP4 JUMPDEST SWAP1 POP DUP1 DUP5 LT PUSH2 0x1326 JUMPI DUP1 SWAP4 POP JUMPDEST PUSH1 0x0 PUSH2 0x1331 DUP8 PUSH2 0x9F0 JUMP JUMPDEST SWAP1 POP DUP5 DUP7 LT PUSH2 0x133F JUMPI PUSH1 0x0 SWAP1 POP JUMPDEST PUSH1 0x0 DUP2 EQ PUSH2 0x1453 JUMPI DUP1 DUP7 DUP7 SUB GT PUSH2 0x1356 JUMPI DUP6 DUP6 SUB SWAP1 POP JUMPDEST PUSH1 0x0 PUSH1 0x40 MLOAD SWAP5 POP PUSH1 0x1 DUP3 ADD PUSH1 0x5 SHL DUP6 ADD SWAP1 POP DUP1 PUSH1 0x40 MSTORE PUSH1 0x0 PUSH2 0x1377 DUP9 PUSH2 0xD15 JUMP JUMPDEST SWAP1 POP PUSH1 0x0 DUP2 PUSH1 0x40 ADD MLOAD PUSH2 0x138C JUMPI DUP2 PUSH1 0x0 ADD MLOAD SWAP1 POP JUMPDEST PUSH1 0x0 JUMPDEST PUSH32 0xFFFFFFFFFFFFFFFFFFFFFFFFFFFFFFFFFFFFFFFFFFFFFFFFFFFFFFFFFFFFFFFF PUSH2 0x13B8 PUSH2 0x1085 JUMP JUMPDEST EQ PUSH2 0x13E7 JUMPI DUP7 DUP11 SUB PUSH2 0x13D2 JUMPI PUSH1 0x1 PUSH2 0x13CE PUSH2 0x1085 JUMP JUMPDEST ADD SWAP10 POP JUMPDEST PUSH2 0x13DA PUSH2 0x1085 JUMP JUMPDEST DUP11 GT ISZERO PUSH2 0x13E6 JUMPI PUSH1 0x0 SWAP2 POP JUMPDEST JUMPDEST PUSH2 0x13F0 DUP11 PUSH2 0x15AA JUMP JUMPDEST SWAP3 POP PUSH1 0x40 DUP4 ADD MLOAD PUSH1 0x0 DUP2 EQ PUSH2 0x1408 JUMPI PUSH1 0x0 SWAP3 POP PUSH2 0x142E JUMP JUMPDEST DUP4 MLOAD ISZERO PUSH2 0x1414 JUMPI DUP4 MLOAD SWAP3 POP JUMPDEST DUP12 DUP4 XOR PUSH1 0x60 SHL PUSH2 0x142D JUMPI PUSH1 0x1 DUP3 ADD SWAP2 POP DUP11 DUP3 PUSH1 0x5 SHL DUP11 ADD MSTORE JUMPDEST JUMPDEST POP PUSH1 0x1 DUP11 ADD SWAP10 POP DUP4 PUSH1 0x40 MSTORE DUP9 DUP11 EQ DUP1 PUSH2 0x1446 JUMPI POP DUP5 DUP2 EQ JUMPDEST ISZERO PUSH2 0x138F JUMPI DUP1 DUP9 MSTORE POP POP POP POP JUMPDEST POP POP POP SWAP4 SWAP3 POP POP POP JUMP JUMPDEST PUSH2 0x1477 DUP3 DUP3 PUSH1 0x40 MLOAD DUP1 PUSH1 0x20 ADD PUSH1 0x40 MSTORE DUP1 PUSH1 0x0 DUP2 MSTORE POP PUSH2 0x16A6 JUMP JUMPDEST POP POP JUMP JUMPDEST PUSH1 0x0 DUP4 PUSH20 0xFFFFFFFFFFFFFFFFFFFFFFFFFFFFFFFFFFFFFFFF AND PUSH4 0x150B7A02 PUSH2 0x14A1 PUSH2 0x11ED JUMP JUMPDEST DUP8 DUP7 DUP7 PUSH1 0x40 MLOAD DUP6 PUSH4 0xFFFFFFFF AND PUSH1 0xE0 SHL DUP2 MSTORE PUSH1 0x4 ADD PUSH2 0x14C3 SWAP5 SWAP4 SWAP3 SWAP2 SWAP1 PUSH2 0x24B9 JUMP JUMPDEST PUSH1 0x20 PUSH1 0x40 MLOAD DUP1 DUP4 SUB DUP2 PUSH1 0x0 DUP8 GAS CALL SWAP3 POP POP POP DUP1 ISZERO PUSH2 0x14FF JUMPI POP PUSH1 0x40 MLOAD RETURNDATASIZE PUSH1 0x1F NOT PUSH1 0x1F DUP3 ADD AND DUP3 ADD DUP1 PUSH1 0x40 MSTORE POP DUP2 ADD SWAP1 PUSH2 0x14FC SWAP2 SWAP1 PUSH2 0x251A JUMP JUMPDEST PUSH1 0x1 JUMPDEST PUSH2 0x1557 JUMPI RETURNDATASIZE DUP1 PUSH1 0x0 DUP2 EQ PUSH2 0x152F JUMPI PUSH1 0x40 MLOAD SWAP2 POP PUSH1 0x1F NOT PUSH1 0x3F RETURNDATASIZE ADD AND DUP3 ADD PUSH1 0x40 MSTORE RETURNDATASIZE DUP3 MSTORE RETURNDATASIZE PUSH1 0x0 PUSH1 0x20 DUP5 ADD RETURNDATACOPY PUSH2 0x1534 JUMP JUMPDEST PUSH1 0x60 SWAP2 POP JUMPDEST POP PUSH1 0x0 DUP2 MLOAD SUB PUSH2 0x154F JUMPI PUSH2 0x154E PUSH4 0xD1A57ED6 PUSH1 0xE0 SHL PUSH2 0xF47 JUMP JUMPDEST JUMPDEST DUP1 MLOAD DUP2 PUSH1 0x20 ADD REVERT JUMPDEST PUSH4 0x150B7A02 PUSH1 0xE0 SHL PUSH28 0xFFFFFFFFFFFFFFFFFFFFFFFFFFFFFFFFFFFFFFFFFFFFFFFFFFFFFFFF NOT AND DUP2 PUSH28 0xFFFFFFFFFFFFFFFFFFFFFFFFFFFFFFFFFFFFFFFFFFFFFFFFFFFFFFFF NOT AND EQ SWAP2 POP POP SWAP5 SWAP4 POP POP POP POP JUMP JUMPDEST PUSH2 0x15B2 PUSH2 0x196E JUMP JUMPDEST PUSH2 0x15CE PUSH1 0x4 PUSH1 0x0 DUP5 DUP2 MSTORE PUSH1 0x20 ADD SWAP1 DUP2 MSTORE PUSH1 0x20 ADD PUSH1 0x0 KECCAK256 SLOAD PUSH2 0x1722 JUMP JUMPDEST SWAP1 POP SWAP2 SWAP1 POP JUMP JUMPDEST PUSH1 0x0 DUP1 PUSH1 0x4 PUSH1 0x0 DUP5 DUP2 MSTORE PUSH1 0x20 ADD SWAP1 DUP2 MSTORE PUSH1 0x20 ADD PUSH1 0x0 KECCAK256 SLOAD EQ ISZERO SWAP1 POP SWAP2 SWAP1 POP JUMP JUMPDEST PUSH1 0x60 PUSH1 0x40 MLOAD DUP1 PUSH1 0x20 ADD PUSH1 0x40 MSTORE DUP1 PUSH1 0x0 DUP2 MSTORE POP SWAP1 POP SWAP1 JUMP JUMPDEST PUSH1 0x60 PUSH1 0xA0 PUSH1 0x40 MLOAD ADD DUP1 PUSH1 0x40 MSTORE PUSH1 0x20 DUP2 SUB SWAP2 POP PUSH1 0x0 DUP3 MSTORE DUP2 DUP4 JUMPDEST PUSH1 0x1 ISZERO PUSH2 0x1647 JUMPI PUSH1 0x1 DUP5 SUB SWAP4 POP PUSH1 0xA DUP2 MOD PUSH1 0x30 ADD DUP5 MSTORE8 PUSH1 0xA DUP2 DIV SWAP1 POP DUP1 PUSH2 0x1625 JUMPI JUMPDEST POP DUP3 DUP2 SUB PUSH1 0x20 DUP5 SUB SWAP4 POP DUP1 DUP5 MSTORE POP POP POP SWAP2 SWAP1 POP JUMP JUMPDEST PUSH1 0x0 PUSH29 0x100000000000000000000000000000000000000000000000000000000 DUP3 AND PUSH20 0xFFFFFFFFFFFFFFFFFFFFFFFFFFFFFFFFFFFFFFFF DUP4 AND GT SWAP1 POP SWAP2 SWAP1 POP JUMP JUMPDEST PUSH1 0x0 SWAP4 SWAP3 POP POP POP JUMP JUMPDEST PUSH2 0x16B0 DUP4 DUP4 PUSH2 0x17D8 JUMP JUMPDEST PUSH1 0x0 DUP4 PUSH20 0xFFFFFFFFFFFFFFFFFFFFFFFFFFFFFFFFFFFFFFFF AND EXTCODESIZE EQ PUSH2 0x171D JUMPI PUSH1 0x0 DUP1 SLOAD SWAP1 POP PUSH1 0x0 DUP4 DUP3 SUB SWAP1 POP JUMPDEST PUSH2 0x16F0 PUSH1 0x0 DUP7 DUP4 DUP1 PUSH1 0x1 ADD SWAP5 POP DUP7 PUSH2 0x147B JUMP JUMPDEST PUSH2 0x1705 JUMPI PUSH2 0x1704 PUSH4 0xD1A57ED6 PUSH1 0xE0 SHL PUSH2 0xF47 JUMP JUMPDEST JUMPDEST DUP2 DUP2 LT PUSH2 0x16DD JUMPI DUP2 PUSH1 0x0 SLOAD EQ PUSH2 0x171A JUMPI PUSH1 0x0 DUP1 REVERT JUMPDEST POP POP JUMPDEST POP POP POP JUMP JUMPDEST PUSH2 0x172A PUSH2 0x196E JUMP JUMPDEST DUP2 DUP2 PUSH1 0x0 ADD SWAP1 PUSH20 0xFFFFFFFFFFFFFFFFFFFFFFFFFFFFFFFFFFFFFFFF AND SWAP1 DUP2 PUSH20 0xFFFFFFFFFFFFFFFFFFFFFFFFFFFFFFFFFFFFFFFF AND DUP2 MSTORE POP POP PUSH1 0xA0 DUP3 SWAP1 SHR DUP2 PUSH1 0x20 ADD SWAP1 PUSH8 0xFFFFFFFFFFFFFFFF AND SWAP1 DUP2 PUSH8 0xFFFFFFFFFFFFFFFF AND DUP2 MSTORE POP POP PUSH1 0x0 PUSH29 0x100000000000000000000000000000000000000000000000000000000 DUP4 AND EQ ISZERO DUP2 PUSH1 0x40 ADD SWAP1 ISZERO ISZERO SWAP1 DUP2 ISZERO ISZERO DUP2 MSTORE POP POP PUSH1 0xE8 DUP3 SWAP1 SHR DUP2 PUSH1 0x60 ADD SWAP1 PUSH3 0xFFFFFF AND SWAP1 DUP2 PUSH3 0xFFFFFF AND DUP2 MSTORE POP POP SWAP2 SWAP1 POP JUMP JUMPDEST PUSH1 0x0 DUP1 SLOAD SWAP1 POP PUSH1 0x0 DUP3 SUB PUSH2 0x17F7 JUMPI PUSH2 0x17F6 PUSH4 0xB562E8DD PUSH1 0xE0 SHL PUSH2 0xF47 JUMP JUMPDEST JUMPDEST PUSH2 0x1804 PUSH1 0x0 DUP5 DUP4 DUP6 PUSH2 0x1239 JUMP JUMPDEST PUSH2 0x1824 DUP4 PUSH2 0x1815 PUSH1 0x0 DUP7 PUSH1 0x0 PUSH2 0x123F JUMP JUMPDEST PUSH2 0x181E DUP6 PUSH2 0x195E JUMP JUMPDEST OR PUSH2 0x1267 JUMP JUMPDEST PUSH1 0x4 PUSH1 0x0 DUP4 DUP2 MSTORE PUSH1 0x20 ADD SWAP1 DUP2 MSTORE PUSH1 0x20 ADD PUSH1 0x0 KECCAK256 DUP2 SWAP1 SSTORE POP PUSH1 0x1 PUSH1 0x40 PUSH1 0x1 SWAP1 SHL OR DUP3 MUL PUSH1 0x5 PUSH1 0x0 DUP6 PUSH20 0xFFFFFFFFFFFFFFFFFFFFFFFFFFFFFFFFFFFFFFFF AND PUSH20 0xFFFFFFFFFFFFFFFFFFFFFFFFFFFFFFFFFFFFFFFF AND DUP2 MSTORE PUSH1 0x20 ADD SWAP1 DUP2 MSTORE PUSH1 0x20 ADD PUSH1 0x0 KECCAK256 PUSH1 0x0 DUP3 DUP3 SLOAD ADD SWAP3 POP POP DUP2 SWAP1 SSTORE POP PUSH1 0x0 PUSH20 0xFFFFFFFFFFFFFFFFFFFFFFFFFFFFFFFFFFFFFFFF DUP5 PUSH20 0xFFFFFFFFFFFFFFFFFFFFFFFFFFFFFFFFFFFFFFFF AND AND SWAP1 POP PUSH1 0x0 DUP2 SUB PUSH2 0x18DC JUMPI PUSH2 0x18DB PUSH4 0x2E076300 PUSH1 0xE0 SHL PUSH2 0xF47 JUMP JUMPDEST JUMPDEST PUSH1 0x0 DUP4 DUP4 ADD SWAP1 POP PUSH1 0x0 DUP4 SWAP1 POP PUSH2 0x18F0 PUSH2 0x1085 JUMP JUMPDEST PUSH1 0x1 DUP4 SUB GT ISZERO PUSH2 0x190B JUMPI PUSH2 0x190A PUSH4 0x81647E3A PUSH1 0xE0 SHL PUSH2 0xF47 JUMP JUMPDEST JUMPDEST JUMPDEST DUP1 DUP4 PUSH1 0x0 PUSH32 0xDDF252AD1BE2C89B69C2B068FC378DAA952BA7F163C4A11628F55A4DF523B3EF PUSH1 0x0 DUP1 LOG4 DUP2 DUP2 PUSH1 0x1 ADD SWAP2 POP DUP2 SUB PUSH2 0x190C JUMPI DUP2 PUSH1 0x0 DUP2 SWAP1 SSTORE POP POP POP POP PUSH2 0x1959 PUSH1 0x0 DUP5 DUP4 DUP6 PUSH2 0x1292 JUMP JUMPDEST POP POP POP JUMP JUMPDEST PUSH1 0x0 PUSH1 0x1 DUP3 EQ PUSH1 0xE1 SHL SWAP1 POP SWAP2 SWAP1 POP JUMP JUMPDEST PUSH1 0x40 MLOAD DUP1 PUSH1 0x80 ADD PUSH1 0x40 MSTORE DUP1 PUSH1 0x0 PUSH20 0xFFFFFFFFFFFFFFFFFFFFFFFFFFFFFFFFFFFFFFFF AND DUP2 MSTORE PUSH1 0x20 ADD PUSH1 0x0 PUSH8 0xFFFFFFFFFFFFFFFF AND DUP2 MSTORE PUSH1 0x20 ADD PUSH1 0x0 ISZERO ISZERO DUP2 MSTORE PUSH1 0x20 ADD PUSH1 0x0 PUSH3 0xFFFFFF AND DUP2 MSTORE POP SWAP1 JUMP JUMPDEST PUSH1 0x0 PUSH1 0x40 MLOAD SWAP1 POP SWAP1 JUMP JUMPDEST PUSH1 0x0 DUP1 REVERT JUMPDEST PUSH1 0x0 DUP1 REVERT JUMPDEST PUSH1 0x0 PUSH32 0xFFFFFFFF00000000000000000000000000000000000000000000000000000000 DUP3 AND SWAP1 POP SWAP2 SWAP1 POP JUMP JUMPDEST PUSH2 0x1A06 DUP2 PUSH2 0x19D1 JUMP JUMPDEST DUP2 EQ PUSH2 0x1A11 JUMPI PUSH1 0x0 DUP1 REVERT JUMPDEST POP JUMP JUMPDEST PUSH1 0x0 DUP2 CALLDATALOAD SWAP1 POP PUSH2 0x1A23 DUP2 PUSH2 0x19FD JUMP JUMPDEST SWAP3 SWAP2 POP POP JUMP JUMPDEST PUSH1 0x0 PUSH1 0x20 DUP3 DUP5 SUB SLT ISZERO PUSH2 0x1A3F JUMPI PUSH2 0x1A3E PUSH2 0x19C7 JUMP JUMPDEST JUMPDEST PUSH1 0x0 PUSH2 0x1A4D DUP5 DUP3 DUP6 ADD PUSH2 0x1A14 JUMP JUMPDEST SWAP2 POP POP SWAP3 SWAP2 POP POP JUMP JUMPDEST PUSH1 0x0 DUP2 ISZERO ISZERO SWAP1 POP SWAP2 SWAP1 POP JUMP JUMPDEST PUSH2 0x1A6B DUP2 PUSH2 0x1A56 JUMP JUMPDEST DUP3 MSTORE POP POP JUMP JUMPDEST PUSH1 0x0 PUSH1 0x20 DUP3 ADD SWAP1 POP PUSH2 0x1A86 PUSH1 0x0 DUP4 ADD DUP5 PUSH2 0x1A62 JUMP JUMPDEST SWAP3 SWAP2 POP POP JUMP JUMPDEST PUSH1 0x0 DUP2 MLOAD SWAP1 POP SWAP2 SWAP1 POP JUMP JUMPDEST PUSH1 0x0 DUP3 DUP3 MSTORE PUSH1 0x20 DUP3 ADD SWAP1 POP SWAP3 SWAP2 POP POP JUMP JUMPDEST PUSH1 0x0 JUMPDEST DUP4 DUP2 LT ISZERO PUSH2 0x1AC6 JUMPI DUP1 DUP3 ADD MLOAD DUP2 DUP5 ADD MSTORE PUSH1 0x20 DUP2 ADD SWAP1 POP PUSH2 0x1AAB JUMP JUMPDEST PUSH1 0x0 DUP5 DUP5 ADD MSTORE POP POP POP POP JUMP JUMPDEST PUSH1 0x0 PUSH1 0x1F NOT PUSH1 0x1F DUP4 ADD AND SWAP1 POP SWAP2 SWAP1 POP JUMP JUMPDEST PUSH1 0x0 PUSH2 0x1AEE DUP3 PUSH2 0x1A8C JUMP JUMPDEST PUSH2 0x1AF8 DUP2 DUP6 PUSH2 0x1A97 JUMP JUMPDEST SWAP4 POP PUSH2 0x1B08 DUP2 DUP6 PUSH1 0x20 DUP7 ADD PUSH2 0x1AA8 JUMP JUMPDEST PUSH2 0x1B11 DUP2 PUSH2 0x1AD2 JUMP JUMPDEST DUP5 ADD SWAP2 POP POP SWAP3 SWAP2 POP POP JUMP JUMPDEST PUSH1 0x0 PUSH1 0x20 DUP3 ADD SWAP1 POP DUP2 DUP2 SUB PUSH1 0x0 DUP4 ADD MSTORE PUSH2 0x1B36 DUP2 DUP5 PUSH2 0x1AE3 JUMP JUMPDEST SWAP1 POP SWAP3 SWAP2 POP POP JUMP JUMPDEST PUSH1 0x0 DUP2 SWAP1 POP SWAP2 SWAP1 POP JUMP JUMPDEST PUSH2 0x1B51 DUP2 PUSH2 0x1B3E JUMP JUMPDEST DUP2 EQ PUSH2 0x1B5C JUMPI PUSH1 0x0 DUP1 REVERT JUMPDEST POP JUMP JUMPDEST PUSH1 0x0 DUP2 CALLDATALOAD SWAP1 POP PUSH2 0x1B6E DUP2 PUSH2 0x1B48 JUMP JUMPDEST SWAP3 SWAP2 POP POP JUMP JUMPDEST PUSH1 0x0 PUSH1 0x20 DUP3 DUP5 SUB SLT ISZERO PUSH2 0x1B8A JUMPI PUSH2 0x1B89 PUSH2 0x19C7 JUMP JUMPDEST JUMPDEST PUSH1 0x0 PUSH2 0x1B98 DUP5 DUP3 DUP6 ADD PUSH2 0x1B5F JUMP JUMPDEST SWAP2 POP POP SWAP3 SWAP2 POP POP JUMP JUMPDEST PUSH1 0x0 PUSH20 0xFFFFFFFFFFFFFFFFFFFFFFFFFFFFFFFFFFFFFFFF DUP3 AND SWAP1 POP SWAP2 SWAP1 POP JUMP JUMPDEST PUSH1 0x0 PUSH2 0x1BCC DUP3 PUSH2 0x1BA1 JUMP JUMPDEST SWAP1 POP SWAP2 SWAP1 POP JUMP JUMPDEST PUSH2 0x1BDC DUP2 PUSH2 0x1BC1 JUMP JUMPDEST DUP3 MSTORE POP POP JUMP JUMPDEST PUSH1 0x0 PUSH1 0x20 DUP3 ADD SWAP1 POP PUSH2 0x1BF7 PUSH1 0x0 DUP4 ADD DUP5 PUSH2 0x1BD3 JUMP JUMPDEST SWAP3 SWAP2 POP POP JUMP JUMPDEST PUSH2 0x1C06 DUP2 PUSH2 0x1BC1 JUMP JUMPDEST DUP2 EQ PUSH2 0x1C11 JUMPI PUSH1 0x0 DUP1 REVERT JUMPDEST POP JUMP JUMPDEST PUSH1 0x0 DUP2 CALLDATALOAD SWAP1 POP PUSH2 0x1C23 DUP2 PUSH2 0x1BFD JUMP JUMPDEST SWAP3 SWAP2 POP POP JUMP JUMPDEST PUSH1 0x0 DUP1 PUSH1 0x40 DUP4 DUP6 SUB SLT ISZERO PUSH2 0x1C40 JUMPI PUSH2 0x1C3F PUSH2 0x19C7 JUMP JUMPDEST JUMPDEST PUSH1 0x0 PUSH2 0x1C4E DUP6 DUP3 DUP7 ADD PUSH2 0x1C14 JUMP JUMPDEST SWAP3 POP POP PUSH1 0x20 PUSH2 0x1C5F DUP6 DUP3 DUP7 ADD PUSH2 0x1B5F JUMP JUMPDEST SWAP2 POP POP SWAP3 POP SWAP3 SWAP1 POP JUMP JUMPDEST PUSH2 0x1C72 DUP2 PUSH2 0x1B3E JUMP JUMPDEST DUP3 MSTORE POP POP JUMP JUMPDEST PUSH1 0x0 PUSH1 0x20 DUP3 ADD SWAP1 POP PUSH2 0x1C8D PUSH1 0x0 DUP4 ADD DUP5 PUSH2 0x1C69 JUMP JUMPDEST SWAP3 SWAP2 POP POP JUMP JUMPDEST PUSH1 0x0 DUP1 PUSH1 0x0 PUSH1 0x60 DUP5 DUP7 SUB SLT ISZERO PUSH2 0x1CAC JUMPI PUSH2 0x1CAB PUSH2 0x19C7 JUMP JUMPDEST JUMPDEST PUSH1 0x0 PUSH2 0x1CBA DUP7 DUP3 DUP8 ADD PUSH2 0x1C14 JUMP JUMPDEST SWAP4 POP POP PUSH1 0x20 PUSH2 0x1CCB DUP7 DUP3 DUP8 ADD PUSH2 0x1C14 JUMP JUMPDEST SWAP3 POP POP PUSH1 0x40 PUSH2 0x1CDC DUP7 DUP3 DUP8 ADD PUSH2 0x1B5F JUMP JUMPDEST SWAP2 POP POP SWAP3 POP SWAP3 POP SWAP3 JUMP JUMPDEST PUSH1 0x0 DUP1 REVERT JUMPDEST PUSH1 0x0 DUP1 REVERT JUMPDEST PUSH1 0x0 DUP1 REVERT JUMPDEST PUSH1 0x0 DUP1 DUP4 PUSH1 0x1F DUP5 ADD SLT PUSH2 0x1D0B JUMPI PUSH2 0x1D0A PUSH2 0x1CE6 JUMP JUMPDEST JUMPDEST DUP3 CALLDATALOAD SWAP1 POP PUSH8 0xFFFFFFFFFFFFFFFF DUP2 GT ISZERO PUSH2 0x1D28 JUMPI PUSH2 0x1D27 PUSH2 0x1CEB JUMP JUMPDEST JUMPDEST PUSH1 0x20 DUP4 ADD SWAP2 POP DUP4 PUSH1 0x20 DUP3 MUL DUP4 ADD GT ISZERO PUSH2 0x1D44 JUMPI PUSH2 0x1D43 PUSH2 0x1CF0 JUMP JUMPDEST JUMPDEST SWAP3 POP SWAP3 SWAP1 POP JUMP JUMPDEST PUSH1 0x0 DUP1 PUSH1 0x20 DUP4 DUP6 SUB SLT ISZERO PUSH2 0x1D62 JUMPI PUSH2 0x1D61 PUSH2 0x19C7 JUMP JUMPDEST JUMPDEST PUSH1 0x0 DUP4 ADD CALLDATALOAD PUSH8 0xFFFFFFFFFFFFFFFF DUP2 GT ISZERO PUSH2 0x1D80 JUMPI PUSH2 0x1D7F PUSH2 0x19CC JUMP JUMPDEST JUMPDEST PUSH2 0x1D8C DUP6 DUP3 DUP7 ADD PUSH2 0x1CF5 JUMP JUMPDEST SWAP3 POP SWAP3 POP POP SWAP3 POP SWAP3 SWAP1 POP JUMP JUMPDEST PUSH1 0x0 DUP2 MLOAD SWAP1 POP SWAP2 SWAP1 POP JUMP JUMPDEST PUSH1 0x0 DUP3 DUP3 MSTORE PUSH1 0x20 DUP3 ADD SWAP1 POP SWAP3 SWAP2 POP POP JUMP JUMPDEST PUSH1 0x0 DUP2 SWAP1 POP PUSH1 0x20 DUP3 ADD SWAP1 POP SWAP2 SWAP1 POP JUMP JUMPDEST PUSH2 0x1DCD DUP2 PUSH2 0x1BC1 JUMP JUMPDEST DUP3 MSTORE POP POP JUMP JUMPDEST PUSH1 0x0 PUSH8 0xFFFFFFFFFFFFFFFF DUP3 AND SWAP1 POP SWAP2 SWAP1 POP JUMP JUMPDEST PUSH2 0x1DF0 DUP2 PUSH2 0x1DD3 JUMP JUMPDEST DUP3 MSTORE POP POP JUMP JUMPDEST PUSH2 0x1DFF DUP2 PUSH2 0x1A56 JUMP JUMPDEST DUP3 MSTORE POP POP JUMP JUMPDEST PUSH1 0x0 PUSH3 0xFFFFFF DUP3 AND SWAP1 POP SWAP2 SWAP1 POP JUMP JUMPDEST PUSH2 0x1E1D DUP2 PUSH2 0x1E05 JUMP JUMPDEST DUP3 MSTORE POP POP JUMP JUMPDEST PUSH1 0x80 DUP3 ADD PUSH1 0x0 DUP3 ADD MLOAD PUSH2 0x1E39 PUSH1 0x0 DUP6 ADD DUP3 PUSH2 0x1DC4 JUMP JUMPDEST POP PUSH1 0x20 DUP3 ADD MLOAD PUSH2 0x1E4C PUSH1 0x20 DUP6 ADD DUP3 PUSH2 0x1DE7 JUMP JUMPDEST POP PUSH1 0x40 DUP3 ADD MLOAD PUSH2 0x1E5F PUSH1 0x40 DUP6 ADD DUP3 PUSH2 0x1DF6 JUMP JUMPDEST POP PUSH1 0x60 DUP3 ADD MLOAD PUSH2 0x1E72 PUSH1 0x60 DUP6 ADD DUP3 PUSH2 0x1E14 JUMP JUMPDEST POP POP POP POP JUMP JUMPDEST PUSH1 0x0 PUSH2 0x1E84 DUP4 DUP4 PUSH2 0x1E23 JUMP JUMPDEST PUSH1 0x80 DUP4 ADD SWAP1 POP SWAP3 SWAP2 POP POP JUMP JUMPDEST PUSH1 0x0 PUSH1 0x20 DUP3 ADD SWAP1 POP SWAP2 SWAP1 POP JUMP JUMPDEST PUSH1 0x0 PUSH2 0x1EA8 DUP3 PUSH2 0x1D98 JUMP JUMPDEST PUSH2 0x1EB2 DUP2 DUP6 PUSH2 0x1DA3 JUMP JUMPDEST SWAP4 POP PUSH2 0x1EBD DUP4 PUSH2 0x1DB4 JUMP JUMPDEST DUP1 PUSH1 0x0 JUMPDEST DUP4 DUP2 LT ISZERO PUSH2 0x1EEE JUMPI DUP2 MLOAD PUSH2 0x1ED5 DUP9 DUP3 PUSH2 0x1E78 JUMP JUMPDEST SWAP8 POP PUSH2 0x1EE0 DUP4 PUSH2 0x1E90 JUMP JUMPDEST SWAP3 POP POP PUSH1 0x1 DUP2 ADD SWAP1 POP PUSH2 0x1EC1 JUMP JUMPDEST POP DUP6 SWAP4 POP POP POP POP SWAP3 SWAP2 POP POP JUMP JUMPDEST PUSH1 0x0 PUSH1 0x20 DUP3 ADD SWAP1 POP DUP2 DUP2 SUB PUSH1 0x0 DUP4 ADD MSTORE PUSH2 0x1F15 DUP2 DUP5 PUSH2 0x1E9D JUMP JUMPDEST SWAP1 POP SWAP3 SWAP2 POP POP JUMP JUMPDEST PUSH1 0x0 PUSH1 0x20 DUP3 DUP5 SUB SLT ISZERO PUSH2 0x1F33 JUMPI PUSH2 0x1F32 PUSH2 0x19C7 JUMP JUMPDEST JUMPDEST PUSH1 0x0 PUSH2 0x1F41 DUP5 DUP3 DUP6 ADD PUSH2 0x1C14 JUMP JUMPDEST SWAP2 POP POP SWAP3 SWAP2 POP POP JUMP JUMPDEST PUSH1 0x0 DUP2 MLOAD SWAP1 POP SWAP2 SWAP1 POP JUMP JUMPDEST PUSH1 0x0 DUP3 DUP3 MSTORE PUSH1 0x20 DUP3 ADD SWAP1 POP SWAP3 SWAP2 POP POP JUMP JUMPDEST PUSH1 0x0 DUP2 SWAP1 POP PUSH1 0x20 DUP3 ADD SWAP1 POP SWAP2 SWAP1 POP JUMP JUMPDEST PUSH2 0x1F7F DUP2 PUSH2 0x1B3E JUMP JUMPDEST DUP3 MSTORE POP POP JUMP JUMPDEST PUSH1 0x0 PUSH2 0x1F91 DUP4 DUP4 PUSH2 0x1F76 JUMP JUMPDEST PUSH1 0x20 DUP4 ADD SWAP1 POP SWAP3 SWAP2 POP POP JUMP JUMPDEST PUSH1 0x0 PUSH1 0x20 DUP3 ADD SWAP1 POP SWAP2 SWAP1 POP JUMP JUMPDEST PUSH1 0x0 PUSH2 0x1FB5 DUP3 PUSH2 0x1F4A JUMP JUMPDEST PUSH2 0x1FBF DUP2 DUP6 PUSH2 0x1F55 JUMP JUMPDEST SWAP4 POP PUSH2 0x1FCA DUP4 PUSH2 0x1F66 JUMP JUMPDEST DUP1 PUSH1 0x0 JUMPDEST DUP4 DUP2 LT ISZERO PUSH2 0x1FFB JUMPI DUP2 MLOAD PUSH2 0x1FE2 DUP9 DUP3 PUSH2 0x1F85 JUMP JUMPDEST SWAP8 POP PUSH2 0x1FED DUP4 PUSH2 0x1F9D JUMP JUMPDEST SWAP3 POP POP PUSH1 0x1 DUP2 ADD SWAP1 POP PUSH2 0x1FCE JUMP JUMPDEST POP DUP6 SWAP4 POP POP POP POP SWAP3 SWAP2 POP POP JUMP JUMPDEST PUSH1 0x0 PUSH1 0x20 DUP3 ADD SWAP1 POP DUP2 DUP2 SUB PUSH1 0x0 DUP4 ADD MSTORE PUSH2 0x2022 DUP2 DUP5 PUSH2 0x1FAA JUMP JUMPDEST SWAP1 POP SWAP3 SWAP2 POP POP JUMP JUMPDEST PUSH1 0x0 DUP1 PUSH1 0x0 PUSH1 0x60 DUP5 DUP7 SUB SLT ISZERO PUSH2 0x2043 JUMPI PUSH2 0x2042 PUSH2 0x19C7 JUMP JUMPDEST JUMPDEST PUSH1 0x0 PUSH2 0x2051 DUP7 DUP3 DUP8 ADD PUSH2 0x1C14 JUMP JUMPDEST SWAP4 POP POP PUSH1 0x20 PUSH2 0x2062 DUP7 DUP3 DUP8 ADD PUSH2 0x1B5F JUMP JUMPDEST SWAP3 POP POP PUSH1 0x40 PUSH2 0x2073 DUP7 DUP3 DUP8 ADD PUSH2 0x1B5F JUMP JUMPDEST SWAP2 POP POP SWAP3 POP SWAP3 POP SWAP3 JUMP JUMPDEST PUSH2 0x2086 DUP2 PUSH2 0x1A56 JUMP JUMPDEST DUP2 EQ PUSH2 0x2091 JUMPI PUSH1 0x0 DUP1 REVERT JUMPDEST POP JUMP JUMPDEST PUSH1 0x0 DUP2 CALLDATALOAD SWAP1 POP PUSH2 0x20A3 DUP2 PUSH2 0x207D JUMP JUMPDEST SWAP3 SWAP2 POP POP JUMP JUMPDEST PUSH1 0x0 DUP1 PUSH1 0x40 DUP4 DUP6 SUB SLT ISZERO PUSH2 0x20C0 JUMPI PUSH2 0x20BF PUSH2 0x19C7 JUMP JUMPDEST JUMPDEST PUSH1 0x0 PUSH2 0x20CE DUP6 DUP3 DUP7 ADD PUSH2 0x1C14 JUMP JUMPDEST SWAP3 POP POP PUSH1 0x20 PUSH2 0x20DF DUP6 DUP3 DUP7 ADD PUSH2 0x2094 JUMP JUMPDEST SWAP2 POP POP SWAP3 POP SWAP3 SWAP1 POP JUMP JUMPDEST PUSH1 0x0 DUP1 REVERT JUMPDEST PUSH32 0x4E487B7100000000000000000000000000000000000000000000000000000000 PUSH1 0x0 MSTORE PUSH1 0x41 PUSH1 0x4 MSTORE PUSH1 0x24 PUSH1 0x0 REVERT JUMPDEST PUSH2 0x2126 DUP3 PUSH2 0x1AD2 JUMP JUMPDEST DUP2 ADD DUP2 DUP2 LT PUSH8 0xFFFFFFFFFFFFFFFF DUP3 GT OR ISZERO PUSH2 0x2145 JUMPI PUSH2 0x2144 PUSH2 0x20EE JUMP JUMPDEST JUMPDEST DUP1 PUSH1 0x40 MSTORE POP POP POP JUMP JUMPDEST PUSH1 0x0 PUSH2 0x2158 PUSH2 0x19BD JUMP JUMPDEST SWAP1 POP PUSH2 0x2164 DUP3 DUP3 PUSH2 0x211D JUMP JUMPDEST SWAP2 SWAP1 POP JUMP JUMPDEST PUSH1 0x0 PUSH8 0xFFFFFFFFFFFFFFFF DUP3 GT ISZERO PUSH2 0x2184 JUMPI PUSH2 0x2183 PUSH2 0x20EE JUMP JUMPDEST JUMPDEST PUSH2 0x218D DUP3 PUSH2 0x1AD2 JUMP JUMPDEST SWAP1 POP PUSH1 0x20 DUP2 ADD SWAP1 POP SWAP2 SWAP1 POP JUMP JUMPDEST DUP3 DUP2 DUP4 CALLDATACOPY PUSH1 0x0 DUP4 DUP4 ADD MSTORE POP POP POP JUMP JUMPDEST PUSH1 0x0 PUSH2 0x21BC PUSH2 0x21B7 DUP5 PUSH2 0x2169 JUMP JUMPDEST PUSH2 0x214E JUMP JUMPDEST SWAP1 POP DUP3 DUP2 MSTORE PUSH1 0x20 DUP2 ADD DUP5 DUP5 DUP5 ADD GT ISZERO PUSH2 0x21D8 JUMPI PUSH2 0x21D7 PUSH2 0x20E9 JUMP JUMPDEST JUMPDEST PUSH2 0x21E3 DUP5 DUP3 DUP6 PUSH2 0x219A JUMP JUMPDEST POP SWAP4 SWAP3 POP POP POP JUMP JUMPDEST PUSH1 0x0 DUP3 PUSH1 0x1F DUP4 ADD SLT PUSH2 0x2200 JUMPI PUSH2 0x21FF PUSH2 0x1CE6 JUMP JUMPDEST JUMPDEST DUP2 CALLDATALOAD PUSH2 0x2210 DUP5 DUP3 PUSH1 0x20 DUP7 ADD PUSH2 0x21A9 JUMP JUMPDEST SWAP2 POP POP SWAP3 SWAP2 POP POP JUMP JUMPDEST PUSH1 0x0 DUP1 PUSH1 0x0 DUP1 PUSH1 0x80 DUP6 DUP8 SUB SLT ISZERO PUSH2 0x2233 JUMPI PUSH2 0x2232 PUSH2 0x19C7 JUMP JUMPDEST JUMPDEST PUSH1 0x0 PUSH2 0x2241 DUP8 DUP3 DUP9 ADD PUSH2 0x1C14 JUMP JUMPDEST SWAP5 POP POP PUSH1 0x20 PUSH2 0x2252 DUP8 DUP3 DUP9 ADD PUSH2 0x1C14 JUMP JUMPDEST SWAP4 POP POP PUSH1 0x40 PUSH2 0x2263 DUP8 DUP3 DUP9 ADD PUSH2 0x1B5F JUMP JUMPDEST SWAP3 POP POP PUSH1 0x60 DUP6 ADD CALLDATALOAD PUSH8 0xFFFFFFFFFFFFFFFF DUP2 GT ISZERO PUSH2 0x2284 JUMPI PUSH2 0x2283 PUSH2 0x19CC JUMP JUMPDEST JUMPDEST PUSH2 0x2290 DUP8 DUP3 DUP9 ADD PUSH2 0x21EB JUMP JUMPDEST SWAP2 POP POP SWAP3 SWAP6 SWAP2 SWAP5 POP SWAP3 POP JUMP JUMPDEST PUSH1 0x80 DUP3 ADD PUSH1 0x0 DUP3 ADD MLOAD PUSH2 0x22B2 PUSH1 0x0 DUP6 ADD DUP3 PUSH2 0x1DC4 JUMP JUMPDEST POP PUSH1 0x20 DUP3 ADD MLOAD PUSH2 0x22C5 PUSH1 0x20 DUP6 ADD DUP3 PUSH2 0x1DE7 JUMP JUMPDEST POP PUSH1 0x40 DUP3 ADD MLOAD PUSH2 0x22D8 PUSH1 0x40 DUP6 ADD DUP3 PUSH2 0x1DF6 JUMP JUMPDEST POP PUSH1 0x60 DUP3 ADD MLOAD PUSH2 0x22EB PUSH1 0x60 DUP6 ADD DUP3 PUSH2 0x1E14 JUMP JUMPDEST POP POP POP POP JUMP JUMPDEST PUSH1 0x0 PUSH1 0x80 DUP3 ADD SWAP1 POP PUSH2 0x2306 PUSH1 0x0 DUP4 ADD DUP5 PUSH2 0x229C JUMP JUMPDEST SWAP3 SWAP2 POP POP JUMP JUMPDEST PUSH1 0x0 DUP1 PUSH1 0x40 DUP4 DUP6 SUB SLT ISZERO PUSH2 0x2323 JUMPI PUSH2 0x2322 PUSH2 0x19C7 JUMP JUMPDEST JUMPDEST PUSH1 0x0 PUSH2 0x2331 DUP6 DUP3 DUP7 ADD PUSH2 0x1C14 JUMP JUMPDEST SWAP3 POP POP PUSH1 0x20 PUSH2 0x2342 DUP6 DUP3 DUP7 ADD PUSH2 0x1C14 JUMP JUMPDEST SWAP2 POP POP SWAP3 POP SWAP3 SWAP1 POP JUMP JUMPDEST PUSH32 0x4E487B7100000000000000000000000000000000000000000000000000000000 PUSH1 0x0 MSTORE PUSH1 0x22 PUSH1 0x4 MSTORE PUSH1 0x24 PUSH1 0x0 REVERT JUMPDEST PUSH1 0x0 PUSH1 0x2 DUP3 DIV SWAP1 POP PUSH1 0x1 DUP3 AND DUP1 PUSH2 0x2393 JUMPI PUSH1 0x7F DUP3 AND SWAP2 POP JUMPDEST PUSH1 0x20 DUP3 LT DUP2 SUB PUSH2 0x23A6 JUMPI PUSH2 0x23A5 PUSH2 0x234C JUMP JUMPDEST JUMPDEST POP SWAP2 SWAP1 POP JUMP JUMPDEST PUSH1 0x0 DUP2 SWAP1 POP SWAP3 SWAP2 POP POP JUMP JUMPDEST PUSH1 0x0 PUSH2 0x23C2 DUP3 PUSH2 0x1A8C JUMP JUMPDEST PUSH2 0x23CC DUP2 DUP6 PUSH2 0x23AC JUMP JUMPDEST SWAP4 POP PUSH2 0x23DC DUP2 DUP6 PUSH1 0x20 DUP7 ADD PUSH2 0x1AA8 JUMP JUMPDEST DUP1 DUP5 ADD SWAP2 POP POP SWAP3 SWAP2 POP POP JUMP JUMPDEST PUSH1 0x0 PUSH2 0x23F4 DUP3 DUP6 PUSH2 0x23B7 JUMP JUMPDEST SWAP2 POP PUSH2 0x2400 DUP3 DUP5 PUSH2 0x23B7 JUMP JUMPDEST SWAP2 POP DUP2 SWAP1 POP SWAP4 SWAP3 POP POP POP JUMP JUMPDEST PUSH32 0x4E487B7100000000000000000000000000000000000000000000000000000000 PUSH1 0x0 MSTORE PUSH1 0x11 PUSH1 0x4 MSTORE PUSH1 0x24 PUSH1 0x0 REVERT JUMPDEST PUSH1 0x0 PUSH2 0x2446 DUP3 PUSH2 0x1B3E JUMP JUMPDEST SWAP2 POP PUSH1 0x0 DUP3 SUB PUSH2 0x2459 JUMPI PUSH2 0x2458 PUSH2 0x240C JUMP JUMPDEST JUMPDEST PUSH1 0x1 DUP3 SUB SWAP1 POP SWAP2 SWAP1 POP JUMP JUMPDEST PUSH1 0x0 DUP2 MLOAD SWAP1 POP SWAP2 SWAP1 POP JUMP JUMPDEST PUSH1 0x0 DUP3 DUP3 MSTORE PUSH1 0x20 DUP3 ADD SWAP1 POP SWAP3 SWAP2 POP POP JUMP JUMPDEST PUSH1 0x0 PUSH2 0x248B DUP3 PUSH2 0x2464 JUMP JUMPDEST PUSH2 0x2495 DUP2 DUP6 PUSH2 0x246F JUMP JUMPDEST SWAP4 POP PUSH2 0x24A5 DUP2 DUP6 PUSH1 0x20 DUP7 ADD PUSH2 0x1AA8 JUMP JUMPDEST PUSH2 0x24AE DUP2 PUSH2 0x1AD2 JUMP JUMPDEST DUP5 ADD SWAP2 POP POP SWAP3 SWAP2 POP POP JUMP JUMPDEST PUSH1 0x0 PUSH1 0x80 DUP3 ADD SWAP1 POP PUSH2 0x24CE PUSH1 0x0 DUP4 ADD DUP8 PUSH2 0x1BD3 JUMP JUMPDEST PUSH2 0x24DB PUSH1 0x20 DUP4 ADD DUP7 PUSH2 0x1BD3 JUMP JUMPDEST PUSH2 0x24E8 PUSH1 0x40 DUP4 ADD DUP6 PUSH2 0x1C69 JUMP JUMPDEST DUP2 DUP2 SUB PUSH1 0x60 DUP4 ADD MSTORE PUSH2 0x24FA DUP2 DUP5 PUSH2 0x2480 JUMP JUMPDEST SWAP1 POP SWAP6 SWAP5 POP POP POP POP POP JUMP JUMPDEST PUSH1 0x0 DUP2 MLOAD SWAP1 POP PUSH2 0x2514 DUP2 PUSH2 0x19FD JUMP JUMPDEST SWAP3 SWAP2 POP POP JUMP JUMPDEST PUSH1 0x0 PUSH1 0x20 DUP3 DUP5 SUB SLT ISZERO PUSH2 0x2530 JUMPI PUSH2 0x252F PUSH2 0x19C7 JUMP JUMPDEST JUMPDEST PUSH1 0x0 PUSH2 0x253E DUP5 DUP3 DUP6 ADD PUSH2 0x2505 JUMP JUMPDEST SWAP2 POP POP SWAP3 SWAP2 POP POP JUMP INVALID LOG2 PUSH5 0x6970667358 0x22 SLT KECCAK256 0xEC MOD 0xC MSIZE 0xD3 TIMESTAMP CALL STOP 0xE8 STOP TIMESTAMP 0xCA 0x26 SWAP11 0xB6 0xE JUMP SWAP9 0xD 0x21 0x4D KECCAK256 COINBASE PUSH30 0x7DEB66C180C14A5B64736F6C634300081800330000000000000000000000 "
        },
        "methodIdentifiers": {
          "approve(address,uint256)": "095ea7b3",
          "balanceOf(address)": "70a08231",
          "explicitOwnershipOf(uint256)": "c23dc68f",
          "explicitOwnershipsOf(uint256[])": "5bbb2177",
          "getApproved(uint256)": "081812fc",
          "isApprovedForAll(address,address)": "e985e9c5",
          "name()": "06fdde03",
          "ownerOf(uint256)": "6352211e",
          "safeMint(address,uint256)": "a1448194",
          "safeTransferFrom(address,address,uint256)": "42842e0e",
          "safeTransferFrom(address,address,uint256,bytes)": "b88d4fde",
          "setApprovalForAll(address,bool)": "a22cb465",
          "supportsInterface(bytes4)": "01ffc9a7",
          "symbol()": "95d89b41",
          "tokenURI(uint256)": "c87b56dd",
          "tokensOfOwner(address)": "8462151c",
          "tokensOfOwnerIn(address,uint256,uint256)": "99a2557a",
          "totalSupply()": "18160ddd",
          "transferFrom(address,address,uint256)": "23b872dd"
        }
      }
    }
  }
}